:020000040800F2
:1000000048070020CD01000819040008A1030008DA
:10001000150400087D020008230B00080000000002
:100020000000000000000000000000009105000832
:1000300081020008000000006D050008A506000808
:10004000E7010008E7010008E7010008E7010008F0
:10005000E7010008E7010008E7010008E7010008E0
:10006000E7010008E7010008E7010008E7010008D0
:10007000E7010008E7010008E7010008E7010008C0
:10008000E7010008E7010008E7010008E7010008B0
:10009000E7010008E7010008E7010008E7010008A0
:1000A000E7010008E7010008E7010008E701000890
:1000B000E7010008E7010008E7010008E701000880
:1000C000E7010008E7010008E7010008E701000870
:1000D000E70100083D0A0008E7010008E701000801
:1000E000E7010008E7010008E7010008E701000850
:1000F000E7010008E7010008E7010008E701000840
:10010000E7010008E7010008E7010008E70100082F
:10011000E7010008E7010008E7010008E70100081F
:10012000E7010008E7010008E7010008E70100080F
:1001300000F002F800F03AF80AA090E8000C8244BF
:100140008344AAF10107DA4501D100F02FF8AFF29C
:10015000090EBAE80F0013F0010F18BFFB1A43F0A5
:1001600001031847900A0000B00A0000103A24BFAB
:1001700078C878C1FAD8520724BF30C830C144BF0C
:1001800004680C607047000000230024002500264E
:10019000103A28BF78C1FBD8520728BF30C148BFEA
:1001A0000B6070471FB51FBD10B510BD00F033F8D0
:1001B0001146FFF7F7FF00F001FD00F051F803B41E
:1001C000FFF7F2FF03BC00F0AEFC000009488047D7
:1001D00009480047FEE7FEE7FEE7FEE7FEE7FEE729
:1001E000FEE7FEE7FEE7FEE704480549054A064B41
:1001F00070470000A90600083101000848010020EE
:10020000480700204803002048030020704770473B
:10021000704770477047754600F02CF8AE460500F1
:100220006946534620F00700854618B020B5FFF711
:10023000DBFFBDE820404FF000064FF000074FF015
:1002400000084FF0000B21F00701AC46ACE8C009F4
:10025000ACE8C009ACE8C009ACE8C0098D467047FD
:1002600010B50446AFF300802046BDE81040FFF70C
:10027000A6BF000000487047E800002000BFFEE76E
:1002800070472DE9F041024600250026002000239A
:100290000024002791F803C00CF00F0591F803C06B
:1002A0000CF0100CBCF1000F03D091F802C04CEA26
:1002B000050591F800C0BCF1000F31D01468002092
:1002C0002BE04FF0010C0CFA00F3B1F800C00CEA7F
:1002D00003069E4220D183004FF00F0C0CFA03F767
:1002E000BC4305FA03FC4CEA040491F803C0BCF1DA
:1002F000280F06D14FF0010C0CFA00FCC2F814C014
:100300000AE091F803C0BCF1480F05D14FF0010C91
:100310000CFA00FCC2F810C0401C0828D1D31460AD
:10032000B1F800C0BCF1FF0F34DD546800202EE0AE
:1003300000F1080C4FF0010808FA0CF3B1F800C006
:100340000CEA03069E4221D183004FF00F0C0CFAF9
:1003500003F7BC4305FA03FC4CEA040491F803C01C
:10036000BCF1280F05D100F1080C08FA0CF8C2F80E
:10037000148091F803C0BCF1480F07D100F1080CBC
:100380004FF0010808FA0CF8C2F81080401C082849
:10039000CED35460BDE8F081416170470161704780
:1003A00000BFFEE708B501211C2000F0E1F8102095
:1003B0008DF8030003208DF802004FF48070ADF833
:1003C000000069461048FFF75CFF4FF48070ADF8FD
:1003D000000069460D48FFF754FF40F21720ADF8C2
:1003E000000069460A48FFF74CFF4FF48071064849
:1003F000FFF7D4FF40F216210548FFF7CFFF012198
:100400000348FFF7C9FF08BD00080140000C014088
:100410000010014000BFFEE77047000000B58DB03E
:100420000121C80200F0A4F801214B4800F088F92E
:100430000121480300F09CF801211C2000F098F8ED
:1004400018208DF8330003208DF832008020ADF89D
:1004500030000CA94148FFF714FF0320ADF830002D
:100460000CA93F48FFF70DFF4FF4E070ADF83000E6
:100470000CA93C48FFF705FF0020ADF82A00ADF8B5
:10048000260040F2E730ADF828004720ADF8240000
:1004900000208DF82C0009A9334800F07DFA602077
:1004A000ADF804000120ADF806000420ADF8080006
:1004B0000020ADF80C000820ADF80E000020ADF8CB
:1004C0001000ADF81200C720ADF80A0001A92648B7
:1004D00000F052F90821244800F09AF940F28F10F8
:1004E000ADF80A0001A9204800F09CF908211E4837
:1004F00000F0EAF940F25720ADF80A0001A91A48C5
:1005000000F0F0F90821184800F03CFA0020ADF89E
:100510001400ADF81600ADF81800ADF81A004FF44D
:100520008040ADF820000020ADF81C004FF40050D2
:10053000ADF81E0005A90C4800F0F2F801210A48A8
:1005400000F0E2F80121084800F006F90121064810
:1005500000F0F6F80DB000BD002C0140000801408D
:10056000000C0140001001400034014070470000C1
:1005700029B1064A92690243044B9A6104E0034A96
:1005800092698243014B9A6170470000001002405B
:10059000704710B500F002F810BD00000CB5002047
:1005A000019000903348006840F480303149086081
:1005B00000BF3048006800F4003000900198401CF3
:1005C0000190009818B90198B0F5A06FF1D12948B1
:1005D000006800F4003010B10120009001E000201C
:1005E00000900098012843D12348006840F0100093
:1005F000214908600846006820F0030008600846AA
:10060000006840F0020008601A48406819494860D4
:100610000846406848600846406840F4806048608A
:100620000846406820F47C1048600846406840F462
:10063000E81048600846006840F08070086000BF1D
:100640000C48006800F000700028F9D009484068A4
:1006500020F00300074948600846406840F0020067
:10066000486000BF0348406800F00C000828F9D13A
:100670000CBD00000010024000200240042808D1F8
:100680004FF0E021096941F004014FF0E0221161CF
:1006900007E04FF0E021096921F004014FF0E0226A
:1006A000116170477047000010B51348006840F0B2
:1006B00001001149086008464068104908400E4989
:1006C0004860084600680E4908400B490860084623
:1006D000006820F4802008600846406820F4FE008E
:1006E00048604FF41F008860FFF753FF4FF0006031
:1006F0000449086010BD0000001002400000FFF82F
:10070000FFFFF6FE08ED00E021B1028842F0800212
:10071000028004E002884FF67F731A40028070471F
:100720000A884B881A438B881A43CB881A430B8953
:100730001A434B891A438B891A43A0F84420704707
:1007400021B1028842F00102028004E002884FF6E3
:10075000FE731A400280704731B1B0F8442042F471
:100760000042A0F8442005E0B0F84420C2F30E0295
:10077000A0F844207047000070B500240022002338
:10078000058C4FF6FE7635400584028C8388048BF9
:100790004FF68F752C40B51E2C400D882C43751ECE
:1007A0002A400D892A434D882A43144DA8420BD074
:1007B000134DA84208D0134DA84205D0124DA842AF
:1007C00002D0124DA84213D14FF6F7752A404D8939
:1007D0002A434FF6FB752A408D882A434FF6FF6562
:1007E0002B404FF6FF552B408D892B43CD892B4352
:1007F00083800483CD888586028470BD002C0140EF
:1008000000340140004001400044014000480140E4
:100810000A460021018B4FF6F773194011430183FB
:100820007047000070B5002400220023058C4FF6AD
:10083000EF7635400584028C8388048B48F6FF757B
:100840002C404FF6FF452C400D884FF6FF7606EA08
:1008500005252C434FF6DF752A400D8906EA05155C
:100860002A434D8806EA05152A43154DA84202D0B1
:10087000144DA8421DD14FF67F752A404D894FF681
:10088000FF7606EA05152A434FF6BF752A408D8884
:1008900006EA05152A434FF6FF352B404FF2FF7548
:1008A0002B408D8906EA85052B43CD8906EA85050F
:1008B0002B4383800483CD880587028470BD0000AC
:1008C000002C0140003401400A460021018B4FF208
:1008D000FF7319404FF6FF7303EA022319430183A4
:1008E0007047000070B5002400220023058C4FF6ED
:1008F000FF6635400584028C8388848B4FF68F75A4
:100900002C404FF6FC752C400D882C434FF6FF55BC
:100910002A400D894FF6FF7606EA05252A434D88C1
:1009200006EA05252A43154DA84202D0144DA842D7
:100930001DD14FF2FF752A404D894FF6FF7606EA2A
:1009400005252A434FF6FF352A408D8806EA0525FE
:100950002A434EF6FF752B404DF6FF752B408D89CF
:1009600006EA05152B43CD8906EA05152B4383803E
:100970008483CD888587028470BD0000002C0140EF
:10098000003401400A460021818B4FF6F77319406D
:100990001143818370470000002202881D4B98425A
:1009A0000ED01D4B98420BD0B0F1804F08D01B4B9E
:1009B000984205D01A4B984202D01A4B984204D163
:1009C0004FF68F731A404B881A43174B984207D043
:1009D000164B984204D04FF6FF431A40CB881A4377
:1009E00002808B8883850B8803850A4B98420BD045
:1009F000094B984208D00E4B984205D00D4B9842B7
:100A000002D00D4B984201D10B7A038601238382D9
:100A100070470000002C01400034014000040040F9
:100A200000080040000C004000100040001400408E
:100A300000400140004401400048014010B540F230
:100A400025511D4800F03EF810B31B4800F064F833
:100A5000C4B21A48008800F40040C8B9174800889A
:100A600000F4804060B10A2C03D0002013490880B4
:100A700020E01248008840F400401049088019E046
:100A80000D2C06D10D48008840F480400B490880A9
:100A900010E00A480088C0F30D0009490C540748CB
:100AA0000088401C0549088008460088C72801DDE9
:100AB0000020088010BD0000003801400800002020
:100AC0002000002070B502460024002300250020ED
:100AD00040F66A16B14200D100BFC1F3421501F0E1
:100AE0001F03012606FA03F3012D02D19689334034
:100AF00006E0022D02D1168A334001E0968A334087
:100B00000C12012606FA04F41688344013B10CB115
:100B1000012000E0002070BD01468888C0F3080075
:100B2000704700BFFEE700BF7047000010B56FF0D0
:100B30000400FFF7A3FD0A4800680A49B0FBF1F082
:100B4000094908700846007800EB4001C1EBC0106D
:100B50004FF6FF7101EAC0000449088010BD000093
:100B60000C00002000127A0000000020020000208B
:100B70000146114A12884A434FF0E0235A6100228D
:100B80009A611A46126942F001021A6100BF4FF0E1
:100B9000E022106900F001021AB100F48032002A4C
:100BA000F5D04FF0E022126922F001024FF0E0236D
:100BB0001A6100229A61704702000020FFF774FD5D
:100BC000FFF7F0FBFFF72AFCFFF7B0FF0120084911
:100BD00008600BE04FF4FA70FFF7CAFF04480068A2
:100BE00008B9012000E0002001490860F2E7000098
:100BF00080012142140C00080000002020000000A9
:100C00006C010008340C00082000002028070000B8
:100C10008801000800000000000000000000000043
:100C200000A24A04000000000000000001020304CA
:040C300006070809A2
:0400000508000131BD
:00000001FF
