:020000040800F2
:10000000700C0020D5010008611A000839100008A2
:100010005D1A000869060008A93200080000000007
:10002000000000000000000000000000F11E0008B9
:100030000D07000800000000F91B0008B1210008AE
:10004000EF010008EF010008EF010008EF010008D0
:10005000EF010008EF010008EF010008EF010008C0
:10006000EF010008BD090008EF010008EF010008DA
:10007000EF010008EF010008EF010008EF010008A0
:10008000EF010008EF010008EF010008EF01000890
:10009000EF010008EF010008EF0100082D0A000839
:1000A000EF01000815220008EF010008EF01000829
:1000B000EF010008EF010008EF010008EF01000860
:1000C000EF010008EF010008EF010008EF01000850
:1000D000EF0100084D2D0008D52D0008EF010008A4
:1000E00039080008EF010008EF010008EF010008DF
:1000F000EF010008EF010008EF010008EF01000820
:10010000EF010008EF010008EF010008EF0100080F
:10011000EF010008EF0100088D220008EF01000840
:10012000EF010008EF010008EF010008EF010008EF
:1001300000F002F800F03FF80AA090E8000C8244BA
:100140008344AAF10107DA4501D100F034F8AFF297
:10015000090EBAE80F0013F0010F18BFFB1A43F0A5
:1001600001031847CC660000EC660000103A24BF7B
:1001700078C878C1FAD8520724BF30C830C144BF0C
:1001800004680C607047000000230024002500264E
:10019000103A28BF78C1FBD8520728BF30C148BFEA
:1001A0000B607047642900F07780002070471FB50E
:1001B0001FBD10B510BD00F049F91146FFF7F7FF5C
:1001C00003F026FC00F067F903B4FFF7F2FF03BC6D
:1001D00003F0A0FB0948804709480047FEE7FEE717
:1001E000FEE7FEE7FEE7FEE7FEE7FEE7FEE7FEE7E7
:1001F00004480549054A064B70470000B521000830
:100200003101000870060020700C002070080020EA
:1002100070080020704700000FB4044910B503AA0D
:10022000029800F0DDF810BC5DF814FB40000020DF
:100230002DE9F0410E460446002020622046E16888
:10024000884730B3252805D0D4E901219047206A9A
:10025000401CF2E7E168204600278847050018D0D7
:10026000A5F14100192802D820354FF40067324625
:10027000294620462760FFF795FF40B1012804D0AA
:10028000F61D26F007060836D8E7361DD6E72846BD
:10029000DAE7206ABDE8F0812DE9F0410646002446
:1002A00010687529314616A510D0AFF300800028DC
:1002B00002DA404213A507E031688A0701D512A58A
:1002C00002E0490704D511A5012401E0AFF3008045
:1002D00000210A2206F1240709E0B0FBF2FCB0FB82
:1002E000F2F302FB1C00303078541846491C0028F9
:1002F000F3D123462A463046BDE8F04100F017B856
:10030000000000002D0000002B0000002000000075
:10031000704770477047704710B500F073F8006879
:1003200010BD10B5044600F06DF8046010BD2DE955
:10033000F0470D4699469246044600F124080168AC
:10034000880604D5E06921F01001216000E0012059
:10035000A84201DD471B00E00027A1697A1902EBE2
:100360000900081AA0612078C00602D42046AFF325
:100370000080002608E0D4E901211AF80600904721
:10038000206A401C761C20624E45F4DB2078C006B3
:100390000AD52046AFF3008006E0D4E901213020E1
:1003A0009047206A401C2062381EA7F10107F4DC48
:1003B00007E0D4E9012118F805009047206A401CA5
:1003C0002062281EA5F10105F3DC2046AFF3008072
:1003D0002078000602D50220BDE8F0870120FBE767
:1003E000074B70B50D467B4400F015F804462846CF
:1003F00000F024F810B14FF0FF3070BD204670BD02
:100400000B360000004870470C06002001694A1CAA
:1004100002610878704700B58FB0CDE90131002145
:10042000059105497944CDE9031011466846FFF767
:10043000FFFE0FB000BD0000E5FFFFFF007B00F0F6
:1004400080007047004870470C0600207546FFF793
:10045000F9FFAE4605006946534620F00700854681
:1004600018B020B5FFF7C4FEBDE820404FF00006ED
:100470004FF000074FF000084FF0000B21F007018C
:10048000AC46ACE8C009ACE8C009ACE8C009ACE8CF
:10049000C0098D46704710B50446AFF30080204672
:1004A000BDE81040FFF790BE21B1826842F0010222
:1004B000826003E0826822F0010282607047014698
:1004C00000208A6802F004020AB1012000E0002046
:1004D00070470146C86C80B270470246002013681E
:1004E0000B400BB1012000E00020704701460020C6
:1004F0008A6802F008020AB1012000E0002070477B
:1005000030B502460020002350680F4C20400D7982
:100510000C6844EA05242043506090680B4C20404E
:10052000D1E902542C434D7944EA450420439060BC
:10053000D06A20F470000C7C641EE4B2234340EACD
:100540000350D06230BD0000FFFEF0FFFDF7F1FF69
:10055000F0B504460D4600200021092D11DDE068AC
:10056000A5F10A0606EB4607072606FA07F18843B7
:10057000A5F10A0606EB460603FA06F10843E06019
:100580000CE0206905EB4507072606FA07F18843CA
:1005900005EB450603FA06F108432061072A0FDA46
:1005A000606B561E06EB86071F2606FA07F1884386
:1005B000561E06EB860605FA06F10843606322E044
:1005C0000D2A0FDA206BD61F06EB86071F2606FAC8
:1005D00007F18843D61F06EB860605FA06F10843A5
:1005E000206310E0E06AA2F10D0606EB86071F26E5
:1005F00006FA07F18843A2F10D0606EB860605FA16
:1006000006F10843E062F0BD816841F008018160B5
:10061000704721B1826842F4A002826003E08268E0
:1006200022F4A00282607047816841F00401816079
:100630007047000008B50121202001F00BFB1020BD
:100640008DF8030003208DF802000420ADF80000AF
:100650006946044800F0AEFA0421024800F035FB78
:1006600008BD00000014014000BFFEE700B587B0E0
:100670000121042001F0EEFA0121480201F0EAFA1A
:100680004FF4004001F0BAFA00208DF81B0003205F
:100690008DF81A007020ADF8180006A9184800F06F
:1006A00089FA00208DF8090004904FF4602003902F
:1006B0000020019001208DF8140000208DF8080022
:1006C00001A91048FFF71CFF01210F48FFF7ECFEBE
:1006D0000D48FFF799FF00BF0B48FFF707FF002801
:1006E000FAD10948FFF7A0FF00BF0748FFF7E7FE70
:1006F0000028FAD101A90448FFF702FF07B000BDA6
:10070000000801400028014000240140704700001B
:1007100000B587B001211C2001F09CFA01210520C1
:1007200001F078FA0121084601F094FA48208DF88A
:100730001B0003208DF81A00ADF8180006A93A48EE
:1007400000F038FAE020ADF8180006A9374800F0AC
:1007500031FA0820ADF8180006A9354800F02AFA49
:100760000521012000F006FA2020049001208DF8D8
:10077000160000208DF814000C208DF8150004A838
:1007800000F092F90321022000F0F4F9082004900F
:1007900004A800F089F917208DF80C0001208DF8CD
:1007A0000F0002208DF80D008DF80E0003A801F057
:1007B00059F909208DF80C0001208DF80F00022056
:1007C0008DF80D008DF80E0003A801F04BF9002004
:1007D000ADF80600ADF802004FF6FF70ADF804006A
:1007E0000020ADF800008DF8080069464FF0804009
:1007F00001F0F2FE69460F4801F0EEFE02231A46B0
:100800000121880701F047FE02231A460121094809
:1008100001F041FE0121880701F022FE0121054877
:1008200001F01EFE07B000BD00080140000C0140B1
:10083000001001400008004010B5022003F08EF8BF
:100840005348006818BB5348006808B9012000E00D
:100850000020504908605048D0F8A001012803D179
:1008600000204E49087002E001204C490870012028
:100870004B49087000BF464800680028FBD04FF481
:10088000806000F00BF901204649087010BD404817
:10089000001D006830BB3E487C30006808B901206C
:1008A00000E000203A497C3108603F48D0F8A401BC
:1008B000012803D100203D49087002E001203B4996
:1008C000087001203649087000BF3148001D0068DB
:1008D0000028FAD04FF4006000F0E0F80120314920
:1008E0000870D3E72A480830006830BB28486830D1
:1008F000006808B9012000E000202549683108603F
:100900002948D0F89001012803D100202849087017
:1009100002E001202649087001202149087000BF2B
:100920001B48083000680028FAD04FF4805000F0CF
:10093000B5F801201B490870A8E715480C3000687D
:1009400000BB1C480078401C1A4908700846007813
:10095000032190FBF1F201FB1200401C16490870C4
:100960000846007802F090F901200D49087000BF98
:1009700007480C3000680028FAD04FF4005000F00F
:100980008DF883E74FF4705000F088F800BF7DE7E2
:1009900028012242A00121420000214256000020ED
:1009A0004A0000204C000020000022425700002096
:1009B00058000020200000202100002010B5022057
:1009C00002F0CCFF1548006800BB15480078401CB9
:1009D0001349087008460078032190FBF1F201FBEF
:1009E0001200401C012804D0022806D003280CD194
:1009F00007E001200B49088007E00520094908802D
:100A000003E00A200749088000BF00BF0120064913
:100A10000870082000F042F810BD00000C012242CE
:100A20003F000020240000204A00002010B50220D2
:100A300002F094FF1548006800BB15480078401C80
:100A40001349087008460078032190FBF1F201FB7E
:100A50001200401C012804D0022806D003280CD123
:100A600007E001200B49088007E00A2009490880B7
:100A700003E064200749088000BF00BF0120064949
:100A80000870202000F00AF810BD000014812142F7
:100A90003E000020220000204A000020014908609A
:100AA0007047000014040140002123498279002A84
:100AB0003AD00A46126803689A430B461A600A1D28
:100AC000126803689A430B1D1A60027911440A6880
:100AD00003681A430A60184A0832126803689A4386
:100AE000154B08331A601A1D126803689A43124B9B
:100AF0000C331A604279102A0ED11A1F126803684B
:100B00001A430D4B08331A601A1D126803681A4302
:100B1000094B0C331A600DE00749427911440A6809
:100B200003681A430A6005E0027911440A68036801
:100B30009A430A60704700000004014008B5012193
:100B4000082001F087F810208DF8030003208DF8AD
:100B500002004FF40070ADF800006946044800F050
:100B600029F84FF40071024800F0AFF808BD00000A
:100B7000000C014030B500228B071C0F0F2303FA35
:100B800004F20B4B8C1053F824309343084C8D1017
:100B900044F8253023468C1053F824308C07240F5A
:100BA00000FA04F42343024C8D1044F8253030BD84
:100BB000080001402DE9F0410246002500260020F2
:100BC00000230024002791F803C00CF00F0591F8D2
:100BD00003C00CF0100CBCF1000F03D091F802C060
:100BE0004CEA050591F800C0BCF1000F31D0146843
:100BF00000202BE04FF0010C0CFA00F3B1F800C01C
:100C00000CEA03069E4220D183004FF00F0C0CFA31
:100C100003F7BC4305FA03FC4CEA040491F803C053
:100C2000BCF1280F06D14FF0010C0CFA00FCC2F801
:100C300014C00AE091F803C0BCF1480F05D14FF091
:100C4000010C0CFA00FCC2F810C0401C0828D1D3DB
:100C50001460B1F800C0BCF1FF0F34DD546800200F
:100C60002EE000F1080C4FF0010808FA0CF3B1F87F
:100C700000C00CEA03069E4221D183004FF00F0C06
:100C80000CFA03F7BC4305FA03FC4CEA040491F8A0
:100C900003C0BCF1280F05D100F1080C08FA0CF8CC
:100CA000C2F8148091F803C0BCF1480F07D100F1DD
:100CB000080C4FF0010808FA0CF8C2F81080401C2C
:100CC0000828CED35460BDE8F081416170470161CE
:100CD0007047000010B50446072301222146094849
:100CE000FFF736FC01210748FFF793FC00BF022104
:100CF0000448FFF7F2FB0028F9D00248FFF7E9FBB0
:100D000010BD0000002401402DE9F04107460C46CB
:100D10000025002608E03846FFF7DCFF05440520E3
:100D200002F01CFE701CC6B2A642F4DBB5FBF4F068
:100D300080B2BDE8F081000010B50446072301220F
:100D400021460948FFF704FC01210748FFF761FC31
:100D500000BF02210448FFF7C0FB0028F9D0024879
:100D6000FFF7B7FB10BD0000002801402DE9F0415E
:100D700007460C460025002608E03846FFF7DCFF52
:100D80000544052002F0EAFD701CC6B2A642F4DB61
:100D9000B5FBF4F080B2BDE8F08100002DE9F84F1A
:100DA0000746884693469A46DDF828900097C8F192
:100DB000F0001FFA80F8B3E099F8000080283DDACF
:100DC00099F800600D2E05D1009F08F110001FFA60
:100DD00080F830E0202E03DDA6F1200086B200E08E
:100DE0000026002422E000251CE004EB06105049F8
:100DF000095C80202841014041B108EB040291B216
:100E00007A1990B25A4600F00BF909E0D34507D0A1
:100E100008EB040291B27A1990B2524600F000F940
:100E2000681CC5B2082DE0DB601CC4B2102CDADBF4
:100E300007F1080087B209F1010971E0002668E0B6
:100E400006EB06103B4911F8100099F80010884293
:100E50005DD106EB0610374901EB4000407899F868
:100E60000110884253D100244FE0002520E006EB1A
:100E70000610304901EB4000801C10F8140080215E
:100E80002941084040B108EB040291B27A1990B2AE
:100E90005A4600F0C5F809E0D34507D008EB040234
:100EA00091B27A1990B2524600F0BAF8681CC5B2F5
:100EB000082DDCDB002524E006EB06101D4901EBC4
:100EC0004000801C012101EB4401405C802129414C
:100ED000084048B108EB040291B27A19083290B286
:100EE0005A4600F09DF80AE0D34508D008EB04020A
:100EF00091B27A19083290B2524600F091F8681C0B
:100F0000C5B2082DD8DB601CC4B2102CADDB701C40
:100F100086B2322E94DB09F1020907F1100087B284
:100F200099F8000000287FF447AFBDE8F88F000073
:100F3000304D0008A25A00082DE9FE4306460F4630
:100F4000904699460A9C174903C9CDE90101002042
:100F50008DF80B0001A84B464246394600903046BA
:100F6000FFF71CFF002510E00A20B4FBF0F100FBA6
:100F700011403030C5F1060101AA50540A20B4FBDB
:100F8000F0F404B903E0681CC5B2062DECDB00BF29
:100F900001A84B464246394600903046FFF7FEFE18
:100FA000BDE8FE83086700082DE9FE4306460F46AC
:100FB000904699460A9C18A103C9CDE90101002079
:100FC0008DF8090001A84B4642463946009030464C
:100FD000FFF7E4FE002511E00A2094FBF0F100FB8E
:100FE00011403030C5F1040101AA50540A2094FB8D
:100FF000F0F084B204B903E0681CC5B2042DEBDB49
:1010000000BF01A84B464246394600903046FFF7E4
:10101000C5FEBDE8FE830000202020202020000027
:1010200070B505460E4614463146284600F0CDFC04
:10103000204600F0F5FC70BD00BFFEE770B541F240
:10104000342001F007F8552800D070BD00242CE0B2
:10105000204600F0FFFF254604EBD5714910544AA5
:1010600022F81100601CC4B2204604EBD071491074
:1010700032F811104FF6FF7202EA012104EBD07230
:1010800052104B4B23F8121000F0E4FF254604EBFE
:10109000D5714910464A32F81110084404EBD57155
:1010A000491022F81100601CC4B2062CD0DB0024C9
:1010B00079E004F5805000F0CDFF2546E11704EB00
:1010C000917189103B4A42F82100601CC4B2E117BB
:1010D00004EB9171891052F8211009022046E217A1
:1010E00004EB92729210334B43F8221004F58050B7
:1010F00000F0B0FFE11704EB917189102D4A52F80E
:10110000211008442546E11704EB9171891042F83B
:101110002100601CC4B2E11704EB9171891052F8F0
:10112000211009022046E21704EB92729210214B23
:1011300043F8221004F5805000F08CFFE11704EB17
:10114000917189101B4A52F8211008442546E11775
:1011500004EB9171891042F82100601CC4B2E117C0
:1011600004EB9171891052F8211009022046E21710
:1011700004EB927292100F4B43F8221004F580504A
:1011800000F068FFE11704EB91718910094A52F8E9
:10119000211008442546E11704EB9171891042F8AB
:1011A0002100601CC4B20C2C83DB00BF4DE70000A3
:1011B000260000202C00002010B500200F490860F8
:1011C0000F48006820F470200D4908600846006848
:1011D00040F44030086000200A49C1F8B001022004
:1011E00002F0E2FB012005490860022002F0DCFB6E
:1011F00000200449C1F8AC0110BD0000AC0121423F
:10120000040801400000214210B500200F49086089
:101210000F48006820F470200D49086008460068F7
:1012200040F44030086001200A49C1F8B0010220B2
:1012300002F0BAFB012005490860022002F0B4FB6D
:1012400000200449C1F8AC0110BD0000AC012142EE
:10125000040801400000214270B5054600241748EB
:10126000006820F47020154908600846006840F4C2
:1012700000200860002616E00020114908600220C6
:1012800002F092FB01200F49C1F8AC016006040E88
:101290000B487C38006808B1601CC4B2012002F021
:1012A00083FB701CC6B2082EE6DB15B9FFF7ACFF56
:1012B00001E0FFF781FF204670BD000004080140F7
:1012C000AC0121420000214270B504461548006877
:1012D00020F47020134908600846006840F440304C
:1012E0000860002010490860002517E0E0090E4959
:1012F000091D08606006040E022002F055FB012063
:101300000A49C1F8AC01022002F04EFB0020064958
:101310000860022002F048FB681CC5B2082DE5DB1E
:1013200070BD000004080140AC01214200002142D0
:1013300010B50F48006820F470200D490860084679
:10134000006840F44030086001200A4908600A49FA
:10135000C1F8AC01042002F027FB00200549086019
:10136000042002F021FB00200349C1F8AC0110BDAC
:1013700004080140B00121420000214210B50F488D
:10138000006820F470200D4908600846006840F4A9
:101390004030086000200A4908600A49C1F8B001DD
:1013A000042002F001FB0120054908600549C1F84D
:1013B000B001042002F0F8FA10BD0000040801405A
:1013C000AC0121420000214210B5002414480068FD
:1013D00020F47020124908600846006840F400209C
:1013E000086001200F49086002F0DEFA01200E4972
:1013F000C1F8AC0102F0D8FA07E0601CC4B2FA2CC4
:1014000003DDFFF7BBFF012010BD064880380068F0
:101410000028F2D10349091F086000BFF4E700006B
:1014200004080140B0012142000021421FB5012102
:10143000102000F00FFC0121084600F00BFC4820B2
:101440008DF80F0003208DF80E004FF47050ADF8AA
:101450000C0003A92148FFF7ADFB0A210220FFF78A
:1014600089FB4FF48060019001208DF80A00002074
:101470008DF808000C208DF8090001A8FFF714FB77
:101480000B210220FFF776FB4FF40060019001A8CA
:10149000FFF70AFB0C210220FFF76CFB4FF4805092
:1014A000019001A8FFF700FB0D210220FFF762FB6E
:1014B0004FF40050019001A8FFF7F6FA28208DF8AC
:1014C000000001208DF803008DF8010002208DF846
:1014D0000200684600F0C6FA1FBD0000001001407F
:1014E00008B50121082000F0B5FB4FF47E40ADF8AF
:1014F000000003208DF8020010208DF803006946DB
:101500000148FFF757FB08BD000C014008B5012159
:101510001C2000F09FFB10208DF8030003208DF8A5
:1015200002004FF48070ADF8000069461048FFF7E4
:1015300041FB4FF48070ADF8000069460D48FFF79D
:1015400039FB40F21720ADF8000069460A48FFF762
:1015500031FB4FF480710648FFF7B9FB40F21721C9
:101560000548FFF7B4FB00200449086008BD0000EF
:1015700000080140000C0140001001408801224297
:1015800008B500F0EBF8002000F0C4F840A04FF6DA
:10159000FF731F22EB2100903220FFF7FFFB44A0D6
:1015A0004FF478430022C82100906420FFF7F6FB37
:1015B00041A04FF6FF731F22C8210090A020FFF723
:1015C000EDFB3EA04FF6FF731F22C8210090DC20E8
:1015D000FFF7E4FB3AA04EF67D731F22C82100906E
:1015E0004FF48C70FFF7DAFB37A04EF67D731F22A5
:1015F000B42100900020FFF7D1FB36A04EF67D739A
:101600001F22A02100900020FFF7C8FB34A04EF657
:101610007D731F228C2100900020FFF7BFFB33A0B9
:101620004EF67D731F22B42100904FF48C70FFF7AB
:10163000B5FB2EA04EF67D731F22A02100904FF423
:101640008C70FFF7ABFB2BA04EF67D731F226E2133
:1016500000906420FFF7A2FB26A04EF67D731F22A8
:101660006E210090A020FFF799FB22A04EF67D731B
:101670001F226E210090DC20FFF790FB1FA04EF68A
:101680007D731F221E2100906420FFF787FB08BD99
:101690004D61676E65746963206669656C64206777
:1016A000656E657261746F722056312E30000000D5
:1016B000204F4331200000004F4332004F4333009E
:1016C0002053746570000000204672657128487AC6
:1016D000293A000020416D706C287825293A0000D5
:1016E0002043757272286D41293A00002020202085
:1016F00020000000636C6F7365200000506F7765F9
:1017000072566F6C746167653A202020202020207B
:101710006D56000030B50446EF2340F23F12002121
:10172000084600F037F94FF400600B49086040109C
:10173000091F0860002506E0201200F087FBE0B2D8
:1017400000F084FB6D1CB5F5963FF5D34FF40060B7
:101750000149091F086030BD140C014010B5FFF7A6
:10176000BFFE00F003F9112000F064F9002000F042
:1017700043F9CF2000F05EF9002000F03DF9C120D0
:1017800000F03AF9302000F037F9ED2000F052F97E
:10179000642000F031F9032000F02EF9122000F04F
:1017A0002BF9812000F028F9E82000F043F985208A
:1017B00000F022F9112000F01FF9782000F01CF948
:1017C000F62000F037F9012000F016F9302000F083
:1017D00013F9002000F010F9CB2000F02BF939208C
:1017E00000F00AF92C2000F007F9002000F004F9BD
:1017F000342000F001F9052000F0FEF8F72000F099
:1018000019F9202000F0F8F8EA2000F013F9002080
:1018100000F0F2F8002000F0EFF8C02000F00AF924
:10182000202000F0E9F8C12000F004F9112000F0B8
:10183000E3F8C52000F0FEF8312000F0DDF83C2090
:1018400000F0DAF8C72000F0F5F8A92000F0D4F88D
:101850003A2000F0EFF8552000F0CEF8362000F0E6
:10186000E9F8E82000F0C8F8B12000F0E3F8002023
:1018700000F0C2F8182000F0BFF8B42000F0DAF849
:10188000002000F0B9F8002000F0B6F8F22000F0D7
:10189000D1F8002000F0B0F8262000F0CBF80120AD
:1018A00000F0AAF8E02000F0C5F80F2000F0A4F83E
:1018B000172000F0A1F8142000F09EF8092000F095
:1018C0009BF80C2000F098F8062000F095F84320D3
:1018D00000F092F8752000F08FF8362000F08CF8B8
:1018E000082000F089F8132000F086F8052000F0A9
:1018F00083F8102000F080F80B2000F07DF808201D
:1019000000F07AF8E12000F095F8002000F074F87B
:101910001F2000F071F8232000F06EF8032000F083
:101920006BF80E2000F068F8042000F065F839200C
:1019300000F062F8252000F05FF84D2000F05CF820
:10194000062000F059F80D2000F056F80B2000F0AA
:1019500053F8332000F050F8372000F04DF80F20F6
:1019600000F04AF8292000F065F810BD10B54FF4DA
:10197000805007490860642001F0F0FF4FF4805068
:101980000349091F0860322001F0E8FF10BD000084
:10199000140C0140F0B507460C4615461E462A2099
:1019A00000F048F8384600F03BF8284600F038F8D8
:1019B0002B2000F03FF8204600F032F8304600F0CF
:1019C0002FF82C2000F036F8F0BD30B504460D4657
:1019D0002A2000F02FF8C4F5A07188B200F020F89A
:1019E0002B2000F027F8C5F1F00188B200F018F8BC
:1019F0002C2000F01FF830BD10B504464FF40060F5
:101A0000064908604010091F0860204600F01EFAD1
:101A10004FF400600149091F086010BD140C01401B
:101A200010B504462012FFF7E7FFE0B2FFF7E4FF2E
:101A300010BD000010B504464FF400600649086070
:101A400040100860204600F001FA4FF4006002499F
:101A5000091F086010BD0000140C014000BFFEE724
:101A60007047000070B5002100230F22C47804B332
:101A7000154C246804F4E064C4F5E064210AC1F163
:101A80000403CA40447804FA03F1847814402143E3
:101A900009010E4C0678A155047804F01F050124B5
:101AA000AC4005786D11AD0005F1E025C5F80041A9
:101AB00009E0047804F01F050124AC40044D0678C9
:101AC000761145F8264070BD0CED00E000E400E022
:101AD00080E100E002490143024A116070470000C2
:101AE0000000FA050CED00E000B58DB00121C80240
:101AF00000F0B0F80121480300F0ACF801211C20EF
:101B000000F0A8F818208DF8330003208DF832007B
:101B10008020ADF830000CA93348FFF74BF80320C4
:101B2000ADF830000CA93148FFF744F84FF4E070ED
:101B3000ADF830000CA92E48FFF73CF80020ADF8B6
:101B40002A00ADF8260040F26710ADF8280000200A
:101B5000ADF824008DF82C0009A9264800F03CFDC2
:101B60006020ADF804000120ADF806000020ADF8BB
:101B70000800ADF80C00ADF80E00ADF81000ADF89F
:101B80001200B420ADF80A0001A91A4800F0C2FC06
:101B90000821184800F010FD0020ADF81400ADF841
:101BA0001600ADF818001B20ADF81A004FF4804065
:101BB000ADF820000020ADF81C004FF40050ADF847
:101BC0001E0005A90B4800F035FC0121094800F072
:101BD00025FC0121074800F04FFC0121054800F0D9
:101BE0003FFC0DB000BD000000080140000C0140AA
:101BF0000010014000340140704700000146002001
:101C0000034A506820F44040084350607047000089
:101C10000010024029B1064AD2690243044BDA613E
:101C200004E0034AD2698243014BDA617047000045
:101C30000010024029B1064A12690243044B1A619E
:101C400004E0034A12698243014B1A6170470000A5
:101C50000010024029B1064A92690243044B9A617E
:101C600004E0034A92698243014B9A617047000085
:101C70000010024029B1064AD2680243044BDA60E0
:101C800004E0034AD2688243014BDA6070470000E7
:101C90000010024030B500210022002400232D4D09
:101CA0006D6805F00C0121B1042905D0082923D164
:101CB00005E0294D056022E0274D05601FE0254D18
:101CC0006D6805F47012234D6D6805F480340225AB
:101CD00005EB92421CB9214D554305600BE01D4DAB
:101CE0006D6805F400351DB11C4D5543056002E0DB
:101CF000194D5543056002E0174D056000BF00BF58
:101D0000144D6D6805F0F0010909154D6B5C05680F
:101D1000DD4045600F4D6D6805F4E061090A104D26
:101D20006B5C4568DD4085600A4D6D6805F4605167
:101D3000C90A0B4D6B5C4568DD40C560054D6D689B
:101D400005F44041890B074D6B5CC568B5FBF3F5A5
:101D5000056130BD0010024000127A0000093D000C
:101D600000000020100000202DE9FC5F82460AF1EF
:101D70000301C8B20521FEF7C7FF0090009802F0EA
:101D800099FA80464FF06632174B02F0A7FA0646E2
:101D90000022164B02F0C2F8044601F0DDFF834634
:101DA000584602F08FFC0646114A124B02F006F824
:101DB000044601F0D1FF83460F49584602F0FEFD6C
:101DC00004460E4902F0C6FE01900D49019802F04A
:101DD000F5FD064602F076FC21F00041044602F0D3
:101DE00025FA80B2BDE8FC9F66660A400000B0405C
:101DF0001F85EB51B81EE13F000020410000C841A3
:101E000000007A442DE9F0470A210F20FEF7AEFFCB
:101E1000054640F6E44005FB00F4E11704EB1151E0
:101E2000081302F09FFD8246504602F04BFC8046AC
:101E3000044A054B02F052FA064602F0F7F980B266
:101E4000BDE8F08785EB51B81E85184000210821B8
:101E500017E000F0800222B14FF400420A4B1A60F2
:101E600004E04FF40042084B1B1D1A604FF400526F
:101E7000054B1B1D1A601B1F1A604206100E4A1EDE
:101E8000D1B20029E5DC7047100C01401FB50121DB
:101E90003220FFF7BFFE40F20770ADF808000020C7
:101EA000ADF80400ADF806008DF80C0001A90F484C
:101EB00000F092FB36208DF8000001208DF8030021
:101EC00002208DF801008DF802006846FFF7CAFD78
:101ED0000121064800F0BEFA01221146034800F035
:101EE0000FFB0121014800F0BBFA1FBD00100040AC
:101EF00070470000F0B50B46164642F21075A84236
:101F000007D26322551C45430B4FB7FBF5F5691EFD
:101F100004E00022084DB5FBF0F5691E4D1C5D4341
:101F20006427B5FBF7F5ACB2044F3A803F1D39800A
:101F3000024D0C352C80F0BD00A24A04283401402B
:101F400010B500F001F810BD0CB500200190009014
:101F50003348006840F480303149086000BF3048A1
:101F6000006800F4003000900198401C0190009837
:101F700018B90198B0F5A06FF1D12948006800F4B4
:101F8000003010B10120009001E000200090009886
:101F9000012843D12348006840F01000214908601F
:101FA0000846006820F0030008600846006840F01A
:101FB000020008601A4840681949486008464068AD
:101FC00048600846406840F48060486008464068C1
:101FD00020F47C1048600846406840F4E8104860EF
:101FE0000846006840F08070086000BF0C48006838
:101FF00000F000700028F9D00948406820F0030084
:10200000074948600846406840F00200486000BF49
:102010000348406800F00C000828F9D10CBD00000E
:10202000001002400020024008B501210420FFF703
:1020300011FE4FF4C050ADF8000010208DF80300E1
:1020400003208DF8020069460148FEF7B3FD08BD84
:102050000008014070B504460026FFF769F9A0208A
:10206000FFF732F9FFF7B0F92012FFF72DF9FFF76C
:10207000ABF92546E11704EB11610912A4EB01212C
:10208000C8B2FFF721F9FFF79FF9FFF751F9A12037
:10209000FFF71AF9FFF798F90020FFF7DDF8064679
:1020A000FFF76CF9304670BD70B504460E46FFF779
:1020B0003FF9A020FFF708F9FFF786F92012FFF794
:1020C00003F9FFF781F92546E11704EB11610912C5
:1020D000A4EB0121C8B2FFF7F7F8FFF775F9304616
:1020E000FFF7F2F8FFF770F9FFF748F90A2001F05F
:1020F00035FC70BD00B587B001211020FFF7AAFDA7
:1021000001218802FFF7A6FD4FF40040FFF776FD9E
:1021100000208DF81B0003208DF81A002020ADF858
:10212000180006A91648FEF745FD00208DF80900A5
:1021300004904FF4602003900020019001208DF85E
:10214000140000208DF8080001A90E48FEF7D8F908
:1021500001210C48FEF7A8F90A48FEF755FA00BF1E
:102160000848FEF7C3F90028FAD10648FEF75CFAE2
:1021700000BF0448FEF7A3F90028FAD107B000BD5C
:102180000010014000280140042808D14FF0E02150
:10219000096941F004014FF0E022116107E04FF0BE
:1021A000E021096921F004014FF0E022116170473C
:1021B0007047000010B51348006840F00100114955
:1021C000086008464068104908400E4948600846C3
:1021D00000680E4908400B4908600846006820F472
:1021E000802008600846406820F4FE0048604FF4F4
:1021F0001F008860FFF7A4FE4FF0006004490860EC
:1022000010BD0000001002400000FFF8FFFFF6FEC6
:1022100008ED00E010B50121154800F060F910B399
:102220000120144908701449087014480078401CB3
:1022300012490870084600780A2805DB0120104979
:10224000087000200D4908700E480078401C0D49A8
:10225000087008460078642805DB01200A490870E8
:102260000020084908700121014800F0F6F810BD6F
:10227000002C014048000020490000204D000020B3
:10228000460000204E0000204700002010B501212C
:10229000584800F024F9002844D00121554800F0A6
:1022A000DCF85548007868B954480088544908401B
:1022B00052490880084600885149303108404F494A
:1022C000088010BD4F480088401C4E4908804E4889
:1022D0000078012827D14D48098830F81100474976
:1022E000183108804A48007880B144480088444941
:1022F0000840424908800846008840F010000880E5
:102300000020434908700120424908703D48008878
:102310004149097888426BDD00203A490880022053
:102320003949087064E038480078022817D13A48E3
:10233000007834490988411A344830F811002F498F
:10234000183108802F4800883349097888424FDDCA
:1023500000202C49088003202B49087048E02A48B7
:102360000078032829D129482649098830F8110026
:102370002249183108802748007888B11F48008812
:102380001F49303108401D4908800846008840F048
:102390004000088000201F49087001201C49087077
:1023A000184800881C490978884221DD0020154919
:1023B00008800420144908701AE0134800780428A3
:1023C00016D1154800780F490988411A0F4830F88E
:1023D00011000A49183108800A4800880E49097816
:1023E000884205DD00200749088001200649087061
:1023F00000BF66E700100040570000202034014075
:10240000B0FF0F005C00002050000020D60200202A
:1024100054000020550000205200002021B1028805
:1024200042F08002028004E002884FF67F731A4077
:10243000028070470A884B881A438B881A43CB88DE
:102440001A430B891A434B891A438B891A43A0F804
:1024500044207047CA4302827047CA4302827047D1
:1024600021B1028842F00102028004E002884FF6A6
:10247000FE731A400280704731B1B0F8442042F434
:102480000042A0F8442005E0B0F84420C2F30E0258
:10249000A0F844207047F0B50C4615461E460021B2
:1024A000002200230189028B038C4FF6F877394014
:1024B00021434FF6FC473A4040F201173A434FF6AA
:1024C000DD773B404FF6FF7707EA06172F433B4384
:1024D000018102830384F0BD0146888C704730B5CA
:1024E0000246002000230024158A05EA010395898D
:1024F00005EA010413B10CB1012000E0002030BD59
:102500001AB183890B43838102E083898B438381E2
:102510007047000070B5002400220023058C4FF6A0
:10252000EF7635400584028C8388048B48F6FF756E
:102530002C404FF6FF452C400D884FF6FF7606EAFB
:1025400005252C434FF6DF752A400D8906EA05154F
:102550002A434D8806EA05152A43154DA84202D0A4
:10256000144DA8421DD14FF67F752A404D894FF674
:10257000FF7606EA05152A434FF6BF752A408D8877
:1025800006EA05152A434FF6FF352B404FF2FF753B
:102590002B408D8906EA85052B43CD8906EA850502
:1025A0002B4383800483CD880587028470BD00009F
:1025B000002C0140003401400A460021018B4FF2FB
:1025C000FF7319404FF6FF7303EA02231943018397
:1025D0007047818670470000002202881D4B984298
:1025E0000ED01D4B98420BD0B0F1804F08D01B4B42
:1025F000984205D01A4B984202D01A4B984204D107
:102600004FF68F731A404B881A43174B984207D0E6
:10261000164B984204D04FF6FF431A40CB881A431A
:1026200002808B8883850B8803850A4B98420BD0E8
:10263000094B984208D00E4B984205D00D4B98425A
:1026400002D00D4B984201D10B7A0386012383827D
:1026500070470000002C014000340140000400409D
:1026600000080040000C0040001000400014004032
:1026700000400140004401400048014070B5002482
:1026800000BF5B4A1588EA1705EB1262C2F3072107
:102690002046FFF709FD641C554A1588EA1705EB2B
:1026A00012621212A5EB0222D1B22046FFF7FCFC07
:1026B000641C4F4A5588EA1705EB1262C2F30721E2
:1026C0002046FFF7F1FC641C494A5588EA1705EBE0
:1026D00012621212A5EB0222D1B22046FFF7E4FCEF
:1026E000641C434A9588EA1705EB1262C2F307217E
:1026F0002046FFF7D9FC641C3D4A9588EA1705EB94
:1027000012621212A5EB0222D1B22046FFF7CCFCD6
:10271000641C0024374A1268110E04F58050FFF73C
:10272000C3FC641C334A1268C2F3074104F58050AD
:10273000FFF7BAFC641C2F4A1288C2F3072104F584
:102740008050FFF7B1FC641C2A4A117804F58050D0
:10275000FFF7AAFC641C274A5268110E04F580504A
:10276000FFF7A2FC641C234A5268C2F3074104F538
:102770008050FFF799FC641C1E4A9288C2F307211F
:1027800004F58050FFF790FC641C1A4A117904F597
:102790008050FFF789FC601CC4B2164A9268110E83
:1027A00004F58050FFF780FC601CC4B2114A9268A7
:1027B000C2F3074104F58050FFF776FC601CC4B2F9
:1027C0000C4A1289C2F3072104F58050FFF76CFC14
:1027D000601CC4B2074A117A04F58050FFF764FC0C
:1027E000601CC4B2552141F23420FFF75DFC70BD7E
:1027F000260000202C00002008B56CA04FF6FF73C7
:102800001F22C82100906420FEF7C8FA69A04FF685
:10281000FF731F22C8210090A020FEF7BFFA67A017
:102820004FF6FF731F22C8210090DC20FEF7B6FA96
:1028300064480078012809D15CA04FF47843002255
:10284000C82100906420FEF7A9FA19E05D480078DD
:10285000022809D157A04FF4FC630022C821009040
:10286000A020FEF79BFA0BE056480078032807D11A
:1028700052A01F230022C8210090DC20FEF78EFA10
:102880005148007848B951A04EF67D731F226E2141
:1028900000906420FEF782FA08E04EA04FF6E07345
:1028A0001F226E2100906420FEF778FA4B480078D2
:1028B00048B946A04EF67D731F226E210090A020DD
:1028C000FEF76CFA08E043A04FF6E0731F226E217A
:1028D0000090A020FEF762FA4148007848B93BA07A
:1028E0004EF67D731F226E210090DC20FEF756FA13
:1028F00008E038A04FF6E0731F226E210090DC2024
:10290000FEF74CFA374800684EF67D731F22B4215B
:1029100000906420FEF710FB334800884EF67D736C
:102920001F22A02100906420FEF73EFB2D48406846
:102930004EF67D731F22B4210090A020FEF7FCFA12
:10294000294840884EF67D731F22A021009008463A
:10295000FEF72AFB234880684EF67D731F22B421C0
:102960000090DC20FEF7E8FA1F4880884EF67D7361
:102970001F22A0210090DC20FEF716FB1B480088D8
:102980004EF67D731F22B42100904FF48C70FEF739
:102990000BFB174800884EF67D731F22A021009084
:1029A0004FF48C70FEF700FB08BD0000204F433150
:1029B00020000000204F433220000000204F43330E
:1029C000200000002100002056000020636C6F737F
:1029D00065200000204F70656E2000005700002029
:1029E000580000202C00002026000020220000209B
:1029F0002400002070B504464248008884423BDA37
:102A000040490988081B00EBD071C1F34F053D48D0
:102A100004801E2D00DD70BD3B480078401E3B4900
:102A200031F810003A49098805FB110081B2364897
:102A30000078401E354A22F8101033480078401EB6
:102A4000114631F81000012806DA01212E480078DD
:102A5000401E22F810103AE02B480078401E2B4907
:102A600031F81000632832DD012127480078401E2C
:102A7000264A22F810102AE022490988601A00EB41
:102A8000D071C1F34F051F4804801E2D00DDC2E741
:102A90001D480078401E1D4931F810001C49098866
:102AA00005FB010081B218480078401E174A22F841
:102AB000101015480078401E114631F810006328A8
:102AC00005DD632110480078401E22F81010012017
:102AD0001049087010490870104908700A480078B9
:102AE000401E0A4B13F8102007480078401E0C4B7C
:102AF00033F8200081B20448007800F097FA00BF54
:102B000089E700001E000020210000202600002090
:102B1000240000204A0000204B0000204C00002030
:102B20002C00002070B504464248008884423BDAFD
:102B300040490988081B00EBD071C1F34F053D489F
:102B400004801E2D00DD70BD3B480078401E3B49CF
:102B500051F820003A49098805FB110136480078F0
:102B6000401E364A42F8201033480078401E114675
:102B700051F82000642806D264212F480078401EB6
:102B800042F820103CE02C480078401E2B4951F8B8
:102B90002000B0F57A7F33D9642127480078401EA1
:102BA000264A42F820102BE022490988601A00EBDF
:102BB000D071C1F34F051F4804801E2D00DDC2E710
:102BC0001D480078401E1D4951F820001C49098805
:102BD00005FB010118480078401E184A42F82010F1
:102BE00015480078401E114651F82000B0F57A7F54
:102BF00006D94FF47A7110480078401E42F8201030
:102C000001201049087010490870104908700A48DE
:102C10000078401E0E4B13F8102007480078401E25
:102C2000064B33F8200081B20348007800F0FEF92B
:102C300000BF88E71A000020210000202C0000209F
:102C4000220000204A0000204B0000204C00002001
:102C50002600002010B50848007838B1074A91884E
:102C6000074A90680322FFF745F903E00021054871
:102C7000FFF7AFFC10BD0000580000202600002028
:102C80002C0000200034014001280AD10021124A02
:102C900011600121114AC2F884110F4A083A1160EB
:102CA00019E002280BD101210B4A116000210B4AC7
:102CB000C2F884110121084A083A11600BE0032888
:102CC00009D10121044A1160044AC2F8841100218B
:102CD000014A083A116070478801224200002242EE
:102CE0001FB50121C802FEF7B5FF6320ADF808004B
:102CF00041F61F40ADF804000020ADF80A00ADF821
:102D000006008DF80C0001A90F48FFF765FC19209B
:102D10008DF8000001208DF8030000208DF80100DF
:102D20008DF802006846FEF79DFE01210648FFF778
:102D300091FB012211460448FFF7E2FB0121024802
:102D4000FFF78EFB1FBD0000002C014010B540F2C4
:102D500025511D4800F0A8F810B31B4800F060F999
:102D6000C4B21A48008800F40040C8B91748008867
:102D700000F4804060B10A2C03D000201349088081
:102D800020E01248008840F400401049088019E013
:102D90000D2C06D10D48008840F480400B49088076
:102DA00010E00A480088C0F30D0009490C54074898
:102DB0000088401C0549088008460088C72801DDB6
:102DC0000020088010BD00000038014044000020B1
:102DD0007400002010B540F22551054800F064F859
:102DE00020B1034800F01CF9C4B200BF10BD0000C0
:102DF0000044004021B1828942F40052828104E003
:102E000082894DF6FF731A408281704710B50446DF
:102E10002048844209D101218803FEF72BFF0021BD
:102E20004FF48040FEF726FF32E01B48844209D170
:102E300001214804FEF7FEFE00214FF40030FEF7AA
:102E4000F9FE25E01548844209D101218804FEF7E6
:102E5000F1FE00214FF48020FEF7ECFE18E0104850
:102E6000844209D10121C804FEF7E4FE00214FF499
:102E70000020FEF7DFFE0BE00A48844208D1012162
:102E80000805FEF7D7FE00214FF48010FEF7D2FEB2
:102E900010BD0000003801400044004000480040E0
:102EA000004C00400050004070B502460024002352
:102EB0000025002040F66A16B14200D100BFC1F3E0
:102EC000421501F01F03012606FA03F3012D02D17A
:102ED0009689334006E0022D02D1168A334001E084
:102EE000968A33400C12012606FA04F41688344000
:102EF00013B10CB1012000E0002070BDF0B5034615
:102F0000002400260025002040F66A17B94200D1AF
:102F100000BF1846C1F3421401F01F06012707FA4B
:102F200006F5012C01D10C3004E0022C01D1103047
:102F300000E014301AB107682F43076002E0076809
:102F4000AF430760F0BD00002DE9F04786B00546AD
:102F50000E460024A24600BFA1460027B08900B15A
:102F600000BF2F462C8A4CF6FF700440F0880443C3
:102F70002C82AC894EF6F3100440B08831890843A6
:102F8000718908430443AC81AC8A4FF6FF4004408A
:102F9000B0890443AC8201A8FEF77CFE1F4887423B
:102FA00002D1DDF810A001E0DDF80CA0A88900F442
:102FB000004040B10AEBCA0000EB0A10316849003A
:102FC000B0FBF1F807E00AEBCA0000EB0A10316829
:102FD0008900B0FBF1F86420B8FBF0F0040120098F
:102FE000642101FB1089A88900F4004040B132201F
:102FF00000EBC900B0FBF1F000F00700044308E06B
:10300000322000EB09106421B0FBF1F000F00F005A
:1030100004432C8106B0BDE8F08700000038014071
:1030200001468888C0F30800704700002DE9F04F82
:103030008FB0064689469246B9F1640F02DBB9F5B6
:103040007A7F02DD0FB0BDE8F08FBAF1630F00DDCB
:10305000F8E749F6404191FBF9F0C11700EB917197
:10306000C1F38F05C82D00DDC825504601F092FC44
:103070008046794901F0B4FB0746784901F09EFC8F
:103080008346012E04D0022E45D0032E42D184E087
:1030900073490D7000243BE0284601F00BF9CDE99F
:1030A0000601204601F006F96E4A6F4BCDE900019A
:1030B00001F014F900224FF08043CDE9020100F045
:1030C0002DFFCDE90401DDE9062300F027FFCDE95E
:1030D000080100F09DFD07468846584601F0F2FAC7
:1030E0003A464346CDE90A0101F0F8F8CDE90C0172
:1030F00001F09CF85D490988084481B2701ECD2218
:1031000050435B4A02EB400020F81410601CC4B22C
:10311000AC42C1DB83E057490D7000243AE02846F9
:1031200001F0C8F8CDE90401204601F0C3F84D4A8A
:103130004D4BCDE9000101F0D1F8074600224FF0D8
:10314000804300F0EBFECDE90201DDE9042300F04D
:10315000E5FECDE9060100F05BFDCDE90A01584628
:1031600001F0B0FACDE90801DDE90A2301F0B6F873
:10317000CDE90C0101F05AF83C490988084481B2B4
:10318000701ECD2250433A4A02EB400020F8141042
:10319000601CC4B2AC42C2DB41E037490D70002470
:1031A0003AE0284601F086F8CDE90401204601F016
:1031B00081F82C4A2C4BCDE9000101F08FF807462D
:1031C00000224FF0804300F0A9FECDE90201DDE9C5
:1031D000042300F0A3FECDE9060100F019FDCDE9BE
:1031E0000A01584601F06EFACDE90801DDE90A232B
:1031F00001F074F8CDE90C0101F018F81B490988B9
:10320000084481B2701ECD225043194A02EB40009F
:1032100020F81410601CC4B2AC42C2DB00BF00BF77
:10322000314616A0FCF7F8FF00240CE0701ECD22FA
:1032300050430F4A02EB400030F8141014A0FCF782
:10324000EBFF601CC4B2AC42F0DB294612A0FCF7D5
:10325000E3FF00BFF6E600000000C8420000B443F0
:10326000510000202BE74130FD2109405A00002089
:103270003C0100205200002053000020CAE4B3F6B5
:10328000B5B1C7B0B5C473696EB1EDA3AC4F4320FF
:1032900025640D0A00000000636F756E74203D20E8
:1032A00025640D0A0000000000BFFEE7490050EA57
:1032B000C12018BF04204A0D18BF40F0010040F2A1
:1032C000FF72B2EB515F08BF40F00200012808BF57
:1032D000052070472DE9F74F144694B00021C4E94A
:1032E00002111599079121F00045C9498D4206DC6C
:1032F0001599C4E9000117B00020BDE8F08FC54959
:10330000DFF814A3A9423CDD0799C44E0029C44F3D
:10331000C44A1599534619DD01F0EAF8554506D01F
:10332000C14AC24B01F0E4F8C4E900010AE04FF0E1
:10333000D352BE4B01F0DCF832463B4601F0D8F8E0
:10334000C4E9000117B00120BDE8F08F00F036FDA0
:10335000554506D0B44AB54B00F030FDC4E9000134
:103360000AE04FF0D352B14B00F028FD32463B4605
:1033700000F024FDC4E9000117B04FF0FF30BDE8B4
:10338000F08FAB49A942159978DB21F000418346C3
:103390008846A84AA84B00F0A1FF0022A74B00F0E6
:1033A0000DFD00F013FF099000F06DFF06460F467B
:1033B0009C4A534600F092FF43465A4601F08CF86F
:1033C00080468A46984A994B3046394600F086FF37
:1033D0002A0D01250B924246534601F07DF8032D3C
:1033E000C4E9000139D00B98C1F30A51401A05EB2A
:1033F00045111139814230DA9148C346784400EBD7
:103400000510CDF80CA00C90D0E9002330463946C9
:1034100000F064FF02460B4604910690584603995B
:1034200001F066F880468A4602460B4658460399E4
:1034300001F05EF8049B069A01F05AF883460C9856
:1034400003913946D0E90223304600F047FF5A463F
:10345000039B01F04DF86D1CBDE707980028A2BF43
:10346000099817B0BDE8F08F616881F00041616094
:10347000099817B04042BDE8F08FFFE784461598E1
:10348000C1F31301C0F30A50A0F2F5304FEA6018FF
:1034900000F01F06C6F12000139000200690079050
:1034A00041F4801E05206D4676B1664A08EB0001A6
:1034B0007A4452F8213002EB8101B3404A681399F3
:1034C00022FA01F1194305E05F4908EB0002794453
:1034D00051F82210A1FB0E27A1FB0C131A449A42AB
:1034E00034BF0123002303EB070A05EB8003D3E974
:1034F00001B70F448F4234BF0121002193448B4414
:1035000011B1934502D903E0934501D2012100E0B6
:103510000021C3E901B7514445F82010011EA0F174
:103520000100C1DC0298059F00F10050800F12904D
:103530000298DDE90356800000F0A5FE8346284688
:103540000D9100F0B7FE6FF01D0201F0AAFBCDE96E
:103550000E01304600F0AEFE6FF03D0201F0A1FB1F
:1035600080468A46384600F0A5FE6FF05D0201F005
:1035700098FB074642465346119100F01FFCDDE9D7
:103580000E2300F01BFC5A460D9B00F017FC002593
:103590000E465A4628460D9B00F0AAFFDDE90E2391
:1035A00000F0A6FF4246534600F0A2FF3A46119BA8
:1035B00000F092FFDFF898A0244A534600F08EFEF8
:1035C00007468846234A244B3146284600F086FEAB
:1035D0003A46434600F0F2FB074688464FF0A842C1
:1035E00053463146284600F079FE3A46434600F0FD
:1035F000E5FB159A12F0004F04D0129A81F00041B9
:1036000052421292C4E90001129817B0BDE8F08F3F
:10361000FB21E93F7CD90240FB21F93F7370032E67
:103620008A19A33B000040543163621A61B4D03D53
:10363000FB21394183C8C96D305FE43F0000E03FA2
:1036400040330000BC3200009E320000182D44546C
:10365000FB21F93D3326A611460B113C2DE9FF4D08
:1036600021F0004807460C46B8F1795F08DA00F00F
:10367000ADFD002801BF0020324904B0BDE8F08D47
:103680003A4623461046194600F028FE05460246F3
:103690002D480E460B460621784400F05DF82A4678
:1036A000334600F01BFEDDE9022382468B46384696
:1036B000214600F013FE04460F4652465B4628465C
:1036C000314600F00BFE22463B4600F011FF074654
:1036D0008A464FF0FF322846314601F0E2FA1B4A93
:1036E00090450ADA3A46534600F002FF04B0002241
:1036F000BDE8F04D134B00F0EFBE154A4245A8BFA0
:10370000A8F500154FF00004B8BF124D22462B4615
:1037100000F0EEFE0646884622462B460020094968
:1037200000F0E6FE04460D463A4653463046414612
:1037300000F0DEFE04B022462B46BDE8F04D00F05E
:10374000CBBE00000000F03F743000003333D33FA5
:103750000000E93F0000D23F2DE9F0414F1E00EB91
:10376000C7010446D1E9000115461E4637F006029E
:103770000DD02A46334600F0B1FD7F1E04EBC7038F
:10378000D3E9002300F01AFB37F00602F1D1022F33
:1037900025D0042F13D0062F18BFBDE8F0812A468C
:1037A000334600F09BFDD4E90A2300F007FB2A46CC
:1037B000334600F093FDD4E9082300F0FFFA2A46CF
:1037C000334600F08BFDD4E9062300F0F7FA2A46D1
:1037D000334600F083FDD4E9042300F0EFFA2A46D3
:1037E000334600F07BFDD4E9022300F0E7FA2A46D5
:1037F000334600F073FDD4E90023BDE8F04100F04A
:10380000DDBA00002DE9FF4D054621F0004084B0EF
:103810000C46B0F1795F0BDA2846FFF747FD042824
:1038200008BF00F06FF8284608B02146BDE8F08DCB
:103830002A460B46104600F051FD06460F462A4622
:10384000234600F04BFD804626488A4632463B46DA
:1038500005217844FFF780FF83461098029160B3FA
:10386000214A224B4046514600F038FDCDE9000187
:103870005A4640465146029B00F030FD824688463B
:10388000DDE906014FF0FF3201F00BFA52464346E4
:1038900000F02EFE32463B4600F020FDDDE9062317
:1038A00000F026FEDDE9002300F022FE08B02A46E3
:1038B0002346BDE8F04D00F00FBE0B465A46304699
:1038C000394600F00BFD084A084B00F077FA4246F3
:1038D000534600F003FD08B02A462346BDE8F04DEC
:1038E00000F06CBAB22F0000495555555555C5BF6B
:1038F000012201F0D6B9002213461046114600F00D
:103900000DBB0000024A0020110701F0CAB90000F7
:1039100001FDFFFF00BF704710B56FF00400FEF718
:1039200033FC0A4800680A49B0FBF1F00949087005
:103930000846007800EB4001C1EBC0104FF6FF7164
:1039400001EAC0000449088010BD000060000020AA
:1039500000127A0014000020160000200146114ACF
:1039600012884A434FF0E0235A6100229A611A46B6
:10397000126942F001021A6100BF4FF0E0221069A3
:1039800000F001021AB100F48032002AF5D04FF0A5
:10399000E022126922F001024FF0E0231A610022B6
:1039A0009A617047160000200146114A12784A4376
:1039B0004FF0E0235A6100229A611A46126942F0E0
:1039C00001021A6100BF4FF0E022106900F001020D
:1039D0001AB100F48032002AF5D04FF0E0221269CB
:1039E00022F001024FF0E0231A6100229A61704731
:1039F0001400002000BF054A128802F04002002A8D
:103A0000F9D0C2B2014B1B1D1A807047003801402B
:103A100008B5FFF781FF4FF4E060FEF75BF84FF465
:103A2000165000F045F9FEF75FF8FCF771FEFFF75E
:103A300057F9FDF7A5FDFCF719FEFEF75BFBFDF757
:103A4000F5FCFDF763FDFCF7F5FDFDF777F8FEF7F4
:103A5000EBFAFEF71BFAFDF7F1FAFEF7CDFE0120B7
:103A60004F4908609BE04E48006808B9012000E01B
:103A700000204B4908604FF4FA70FFF76FFF494888
:103A8000007878B30020474908700120FEF76CF9F0
:103A9000454908800220FEF767F943494880032022
:103AA000FEF762F940498880084600884EF67D732B
:103AB0001F228C2100906420FDF776FA3A48408856
:103AC0004EF67D731F228C210090A020FDF76CFA2A
:103AD000354880884EF67D731F228C210090DC20B3
:103AE000FDF762FA3148007820B100202F490870B4
:103AF000FFF7B0F82E48007890B100202C490870EC
:103B0000FEF780F904464FF6E0731F221E21D220F3
:103B10000094FDF749FA072C02DA26A0FCF77CFB9B
:103B20003248007830B100203049087001201C492B
:103B3000091D08602E48007820B100202C4908702B
:103B4000FEF79CFD2B48007808B300202949087037
:103B50002948FEF7C1FC2949088008460088284901
:103B60000988884203D025480088FEF7DBFF4FF024
:103B70008040FEF7B1FC23490880084600882249AE
:103B80000988884203D01F480088FEF733FF1F488A
:103B9000007820B100201D490870FEF72DFE62E775
:103BA000A081214248000020380000204C00002065
:103BB00047000020092A2A2A2A2A2A2A2A2A2A2AC7
:103BC0002A2A2A2A2A2A09204572726F72203A501C
:103BD0006F776572204661756C7421092A2A2A2A3A
:103BE0002A2A2A2A2A2A2A2A2A0D0A0046000020DE
:103BF0004B00002049000020000800401800002071
:103C00001A0000201C0000201E0000204A00002096
:103C100000B5254B21F0004287B09A4203DC002218
:103C2000134600922BE0214B9A4208D140B94FF045
:103C30000100FCF776FBFFF75EFE07B000BD03DB7B
:103C4000FFF756FE07B000BD02AAFFF743FB10F0D6
:103C500003014FF001000DD0012914D002291AD020
:103C60000DF1080C9CE80F00FFF7F8FC07B081F09D
:103C7000004100BD0DF1080C00909CE80F00FFF71B
:103C8000C1FD07B000BD0DF1080C9CE80F00FFF767
:103C9000E5FC07B000BD0DF1080C00909CE80F009A
:103CA000FFF7B0FDE2E70000FB21E93F0000F07FF5
:103CB00010B586B00446012144F20400FDF7CAFFA6
:103CC0002348FFF7A3F84FF40070ADF81400032069
:103CD0008DF8160018208DF8170005A91D48FCF76F
:103CE00069FF4FF48060ADF8140004208DF81700D0
:103CF00005A91848FCF75EFF25208DF80000032079
:103D00008DF801008DF8020001208DF8030068464F
:103D1000FDF7A8FE01940020ADF80800ADF80A00F8
:103D2000ADF80C00ADF810000C20ADF80E0001A9A4
:103D30000748FFF709F9012240F225510448FFF72F
:103D4000DDF801210248FFF755F806B010BD00006C
:103D5000003801400008014021F00042A2F1605209
:103D6000B2F5801F01F0004328BFD2F17F6C0BD960
:103D70005FEA001C43EAC20242EB507018BF704772
:103D800028BF20F001007047B2F5801FBCBF184665
:103D900070474FEA410C1CF5001F02D2084600F0A4
:103DA000D4BE70B500F044FB00000089FFF7F6BFF9
:103DB0004FF00040A0F580007047000010B591EA78
:103DC000030F48BF83F0004300F19A83841A71EB1C
:103DD000030C05D2121943EB0C03001B61EB0C0121
:103DE000DFF824E14FEA1154A4EB135C1EEA430F01
:103DF00018BF9EEA445F73D023EA0E03DCF1200E65
:103E000021EA045143F4801332D322FA0CFE10EB62
:103E10000E0023FA0CFE41EB0E01CCF1200E03FA4A
:103E20000EFE10EB0E0051F10001B1F5801FCCF138
:103E3000200E32D201EB045112FA0EF2BDE810400E
:103E400058BF7047401C38BF5FEA420218BF704736
:103E5000002814BF20F0010041F100014FEA4103A6
:103E600013F5001F38BF7047A1F1C04100F02EBB11
:103E7000012A43EB0302ACF1200CDCF11F0E32BF30
:103E80004FF0000E23FA0CF310EB030041EB04514A
:103E9000B4EB115FD0D0A1EB045101F580114908BA
:103EA0005FEA300001EB04510ED350F1000038BF3F
:103EB00012FA0EFE08D1BDE81040C9E7401C38BF19
:103EC0005FEA4202CAD1C3E7BDE810404FEA4103AE
:103ED00013F5001F38BF7047A1F1C04100F0F6BADA
:103EE0009EEA445F08D011EA5E0FBDE8104004BFAF
:103EF00001F0004100207047BDE8104070B500F0AF
:103F000097FA00BF64FBBE3E0000E0FF02494FF09D
:103F1000000000F094BE00BF0000F87F2DE9C04112
:103F200030B4DFF8A0C23CEA111418BF3CEA131405
:103F300000F0EC8081EA03051CEA111444EAD57410
:103F400018BF1CEA131500F0C780A4EB05044FF05E
:103F5000004545EAC12145EAC32341EA505143EAFD
:103F6000525304F17F74994204F500344FEAC020A3
:103F70004FEAC22208BF904200F09C804FEA1365CE
:103F80000FF24016765D4FEA134506FB05F7C7F1C1
:103F9000807706FB07F74FEAD737A7FB036876421F
:103FA000C8F58038A7FB06CE38BFA8F1010807FB8B
:103FB00008E64FF0000EA6FB028CE6FB03CEDCF118
:103FC000000CCEF1004E38BFAEF1010EA6FB0C582E
:103FD0004FF000074FF00005E6FB0E87A1FB08C677
:103FE000A0FB07CE16EB0E0645F10005E1FB0765C9
:103FF00015F1E04E7EBFA4F580345FEA46066D41C0
:1040000016F1800745F100054FEA17274FEA0666CB
:1040100047EA0567A6F1DE46B6F1805F4FEA15254F
:104020001FD9384624F0010C05EBC471BCF1FE6FBA
:1040300001EB0C1102D8F0BCBDE8008124425CBF4A
:1040400001F5801E9EEAC47F02D4F0BCBDE8008169
:10405000244238D4F0BCA1F1C041BDE8004100F0D9
:1040600035BA4FEAD22242EA43524FEAD323A7FBA2
:1040700002864FEAD02040EA415007FB03661EEA61
:104080000E0F4FEAD12105FB026658BFA6EB005682
:10409000B6EB00564FEA520E4EEAC37E18EB0E0EF8
:1040A00056EB530EBDD518EB02085E417F1C55F14F
:1040B0000005B6E74FF480154FF000074FF00006FB
:1040C0004FF00008ADE7F0BC4FF0000001F1C04137
:1040D00001F00041BDE8008111EA0C1F0CEA131544
:1040E00000D00CE013EA0C1F00F025804FF0000018
:1040F000F0BC81EA030101F00041BDE80081F0BCA1
:10410000BDE8004181EA030100F0E0B9F0BCBDE880
:10411000004170B500F08CF9097EFC3E00F007B854
:1041200081EA03014FF0000001F00041704781EA8D
:10413000030100F0CBB9F0BCBDE800414FF0000036
:1041400021497047FFFDFBF9F7F5F4F2F0EEEDEBD6
:10415000E9E8E6E4E3E1E0DEDDDBDAD8D7D5D4D385
:10416000D1D0CFCDCCCBCAC8C7C6C5C4C2C1C0BFD1
:10417000BEBDBCBBBAB9B8B7B6B5B4B3B2B1B0AFD7
:10418000AEADACABAAA9A8A8A7A6A5A4A3A3A2A1BB
:10419000A09F9F9E9D9C9C9B9A9999989797969576
:1041A00095949393929191908F8F8E8E8D8C8C8B12
:1041B0008B8A89898888878786858584848383829A
:1041C000828181800000FF070000F87F4FEA4103F1
:1041D0004FEA5353A3F58063D3F11E03C8BFD3F155
:1041E000210C0CDD4FF0004242EAC12242EA50525B
:1041F00032FA03FC8CEAE17CACEBE1707047102BE7
:10420000C4BF0020704703F5787CBCF1FF3F04D0A9
:104210006FF0004282EA2100704770B500F008F9A3
:104220004992248000207047F2E700004FEA1153C2
:10423000A3F58063D3F11E03A8BFD3F1200C08DBE4
:104240004FF0004242EAC12252EA505232FA03F0E1
:10425000704709420BD4102BC4BF0020704703F5F0
:10426000787CBCF1FF3F05D04FF0FF3070474FF036
:104270000000704770B500F0DBF800BF4992248061
:1042800000207047F0E710F0004248BF4042B0FA0B
:1042900080F310FA03F10AD0C3F11D0303F5806324
:1042A0004FEA415002EB035202EBD12170474FF02D
:1042B00000007047B0FA80F310FA03F10AD0C3F19E
:1042C0001D0303F580634FEA41504FEA035202EBAE
:1042D000D12170474FF0000070470000DFF848C15F
:1042E00070B51CEA111E1EBF1CEA13159EEA0C0FC6
:1042F00095EA0C0F00F06F8081EA030423EA4C1367
:104300004EEAD47E21EA4C1141F4801143F480132B
:10431000AE44A1FB024CA0FB0365AEF17F7E3619D3
:1043200055EB0C05A1FB034C4CF10003A0FB021C58
:1043300016EB0C06654153F10003094218BF46F025
:10434000010613F4007F0BD14FEA03314FEA053029
:10435000340341EA155140EA16506FF003020AE0B7
:104360004FEAC3214FEAC520F40241EA555140EA21
:1043700056506FF0020202EB2E4201EB025585EA25
:10438000CE710AD05FEA440C18BF24F0004450F10B
:10439000000041F1000120EAD47040F2FE7C624549
:1043A00000D270BDA84214BF4FF080444FF040448B
:1043B000002E08BF0024BEF1806FA8BFA1F1C0414C
:1043C000BDE8704080F282804FF0000001F1C041F2
:1043D00001F0004170479EEA0C0F0CEA131518BF5C
:1043E00095EA0C0F06D04FF0000081EA030E0EF0A4
:1043F000004170BD00F01CF88900013E00F007B8D4
:1044000000F009B84FEA430C5FEA5C5C08D081EA2F
:10441000030100F05BB84FEA410C5FEA5C5CF6D147
:104420004FF00000014970470000FF070000F87FCF
:104430000EF1020E2EF0030E5EF8046B364205D428
:10444000012A43EB030515F5001F12D8012841EBA3
:10445000010C1CF5001F0CD80ED14FEAD17C15F5CC
:10446000001F0CEB4C0C0CF1020C08BF4CEBD37C86
:1044700004E04FF0080C01E04FEAD37C0CEB4C0554
:1044800026FA05F606F00706B6F1040C06D20EEB86
:10449000860CBDE870404CF0010C6047DFE80CF082
:1044A000090B02024FF000414FF00000A1F500217E
:1044B00070BD19461046012851EB010418BFD4F510
:1044C000001484BF002001F0004170BD0808A0F571
:1044D00000114FEA3101704791EA030F10B581F0E6
:1044E00000413FF573AC83F0004300F009B80000D1
:1044F00010B591EA030F48BF83F000433FF566AC67
:10450000841A71EB030C07D212198CF0004C43EBA8
:104510000C03001B61EB0C01DFF8A4E14FEA11541E
:10452000A4EB135C1EEA430F18BF9EEA445F00F041
:10453000B08023EA6E03524221EA0451C3EB6E03BA
:1045400038BF5B1EDCF1200E25D322FA0CFE10EBE7
:104550000E0043FA0CFE41EB0E01CCF1200E03FAE3
:104560000EFE10EB0E0051F10001CCF1200E29D40B
:1045700012FA0EF201EB0451BDE8104058BF70472B
:10458000401C1CBFB2F1004F704700280CBF491CF3
:1045900020F00100704712EB020E43EB030218BF3C
:1045A0004FF0010E4EEA4202ACF1200CDCF11E0E7F
:1045B00054D943FA0CFE10EB0E0051F1FF31CCF14F
:1045C0001E0ED5D50EF1010E12FA0EFE404141EB42
:1045D000010101EB445C5FEA5C5C10D910EBDE701A
:1045E00001EB045138BFBEF1004FBDE8104018BFC9
:1045F000704700280CBF491C20F00100704730D2E2
:104600004FEAD42C11F5001124F400641BD0B1FA48
:1046100081F20B3AA41AA41ED2F12003914030FA81
:1046200003F31943904001EBCC71002C01EB0451D2
:10463000BDE81040A8BF704701F1C0414FF0000035
:1046400001F000417047B0FA80F310FA03F100D195
:1046500010BDE41A173C4805C90AE4E701EB045110
:1046600010BD491001EB0451BDE810404FEA300085
:1046700002E04FF0000170474A0008BF0042F8D046
:10468000B2F5001F28BF704701F000414FF0000055
:1046900070479EEA445F07D011EA5E0FBDE8104004
:1046A00004BF002100207047BDE8104070B5FFF73F
:1046B000BFFE00BF40DFF63E83F00041104670476A
:1046C0000000E0FF43004FEAD30C4FEA3C0C4340AC
:1046D0001FBF40070CF1605113F0FE4F70471CF0F4
:1046E000006F03D100200CF0004170470CF0004334
:1046F00043EA507010B540EACC0000F0E0F900BF8A
:10470000000000924FEA0001FFF7E0BE4FF00041C9
:104710004FF00000A1F500217047000090EA010F62
:1047200048BF81F0004100F11C82421A3CBF801A50
:1047300089184FEAD0524FF07F4C1CEA410FA2EB90
:10474000D15318BF9CEA026F00F03B804FF0004C41
:104750004CEA00204CEA012121FA03FC10EB0C0C7E
:104760001ED202F1FF325FEA1C2040EBC25038BF7C
:1047700070471CF07F0F4FEA400C18BFBCF17F4F11
:1047800038BF7047C3F12003994008BF20F00100F3
:10479000BCF17F4F38BF7047A0F1C04000F0D5B9E1
:1047A0004FEA3C00000A40EBC25028BF1CF0FF0F4C
:1047B0004FEA400CE6D018BFBCF17F4F38BF7047BE
:1047C000EAE79CEA026F05D010EA5C0F08BF00F030
:1047D0000040704710B500F072F900BF64FBBE3EA8
:1047E0004FF47F0C1CEAD0121EBF1CEAD11392EAD0
:1047F0000C0F93EA0C0F00F0858090EA010F48BF80
:1048000042F4807240F4000C41F400002CF07F412F
:1048100020F07F4000B58142A2EB03020FF2081C9A
:10482000ACEB504EC0F100009EF800E04FEA4E0E97
:1048300000FB0EFC38BF49004FEA2C1C02F5FA02BF
:104840000CFB0EF34FEACE1E4FEA112C4FEAC121AA
:104850000EEB635E42EB22420EFB0CFC4FEA1C5354
:1048600000FB03114FEA112C4FEA01310EFB0CFC47
:104870004FEADC4C00FB0C11C14228BF09184CEB7D
:1048800003335DF804EB10EB410143EBC250B2F58A
:104890007C0F38BF704729D512F0F00F1CBF00F114
:1048A000C04000F000407047008182838485868785
:1048B00088898B8C8D8E8F919293959697999A9CDF
:1048C0009D9FA0A2A3A5A7A8AAACAEB0B2B3B5B74E
:1048D000B9BCBEC0C2C5C7C9CCCED1D4D7D9DCDF24
:1048E000E2E6E9ECF0F3F7FAFE0000004FEA400CD4
:1048F0000CF1807CBCF17E4F28BF7047B0F1C04006
:1049000000F023B990EA010F0CEAD11348BF42F43A
:104910008072624538BF634507D213F47F0F16D00B
:1049200080EA010000F00040704710B500F0C7F8C1
:10493000097EFC3E00F005B880EA010000F000406E
:10494000704780EA010000F0004000F0FEB812F469
:104950007F0F04BF0248704780EA010000F0F5B8FD
:104960000000C07F10F0004148BF4042B0FA80F321
:1049700010FA03F2C3F19D030BD051EAC35101EBCE
:104980001220530638BF704700F1010008BF20F025
:1049900001007047B0FA80F310FA03F2C3F19D03EF
:1049A0000AD0D90501EB1220530638BF704700F139
:1049B000010008BF20F00100704700004FF47F0C99
:1049C0001CEAD0121EBF1CEAD11392EA0C0F93EA24
:1049D0000C0F00F0478090EA010F48BF42F480724C
:1049E0004FF0004C4CEA00204CEA012102EB03029C
:1049F000A0FB0113A2F50002002918BF43F0010338
:104A00005B0028BF4FEA330342EB22425FEA132CDC
:104A10004CEBC2502EBFBCEB436FB2F57C0F70471E
:104A20004FEA036CBCF1004F08BF20F00100B2F563
:104A30007C0F38BF70470BD582F0FF0212F5803F24
:104A4000C8BF704700F1C040D8BF00F000407047B9
:104A500000F5000C5FEA4C0C48BF7047B0F1C04055
:104A600000F073B890EA010F0CEAD11348BF42F48A
:104A70008072624538BF634504D280EA010000F0CD
:104A80000040704710B500F01AF800BF8900013EE1
:104A900000F007B800F009B85FEA410C5FEA1C6C4F
:104AA00008D080EA010000F050B85FEA400C5FEAED
:104AB0001C6CF6D14FF00040A0F5800070470EF15D
:104AC000020E2EF0030E5EF8044B244204D44FEA8B
:104AD0004102B2F17F4F11D84FEA4003B3F17F4F4B
:104AE0000CD80ED14FEAD07CB2F17F4F0CEB4C0CBE
:104AF0000CF1020C08BF4CEBD17C04E04FF0080C29
:104B000001E04FEAD17C0CEB4C0324FA03F404F0EF
:104B10000704B4F1040C06D20EEB840CBDE810407F
:104B20004CF0010C6047DFE80CF0070802024FF080
:104B30000040A0F5800010BD0846420018BFD2F129
:104B4000807288BF00F0004010BDFF2141EAD050C4
:104B5000C005704790EA010F48BF81F000413FF562
:104B6000E4AD421A04D882F00042A0EB02001144E6
:104B70004FEAD0524FF07F4C1CEA410FA2EBD153C9
:104B800018BF9CEA026F4AD04FF0004C4CEA00205C
:104B90004CEA012121FA03FCB0EB0C0C0FD412F00B
:104BA000FE0F36D05FEA4C001DD5001240EBC2501C
:104BB00038BF70471CF03F0F18BF70470BE0A2F1E1
:104BC00001025FEA1C2040EBC25038BF70471CF066
:104BD0007F0F18BF7047C3F12003994014BF401ED8
:104BE00020F00100704780084FEA122308BF704789
:104BF000B0FA80FCA2EB0C02CCF1280C60FA0CF0AD
:104C000093EA122F04BF00EBC25070474FEAC37003
:104C10007047130A5FEADC1008BF7047F6E79CEAAA
:104C2000026F04D010EA5C0F08BF0020704710B577
:104C3000FFF745FF40DFF63E81F0004070470CF083
:104C40000F03092B08BF082000F059800A2B0BD056
:104C5000082B18BF704708BF1CF0400F0AD04FF058
:104C600000004FF0000170471CF0400F18BF4FF0DC
:104C7000004070471CF0100F08D020F0704300F087
:104C80007F4242EAD3014FEA4370704700F0604030
:104C900021F07F4242EA000201F07F4040EA727058
:104CA00070474FF0FF0C4CF4E06C1CEA11531CBF32
:104CB0009CEA030C9445C2BFDA4201EB02517047F3
:104CC000002B0DD0BCF1000F0FD0002A01F00041E5
:104CD000A4BF41F0E04141F07F614FF00000704718
:104CE00001F000414FF00000704750EA01334FF0EF
:104CF0009B0C18BF4CF0806C7FF408A970471CF423
:104D0000801F11D01CF4E02F03D06FEACC31490092
:104D100070474FF04050EFF3008222F0704242EAB9
:104D2000000282F3008870474FF0000070470000D7
:104D30000000000000000000000000000000000073
:104D400000101010101010101010000010100000B3
:104D500000006C6C24240000000001000000000032
:104D60000024242424FE48484848FC909090900059
:104D700000103C5492905038141212925478100043
:104D80000000225C94A8481010242A525488000085
:104D9000000030484850206E54948C888A7400007B
:104DA0000000303010100000000000000000000083
:104DB00000040810102020202020201010080400DB
:104DC0000080402020101010101010202040800083
:104DD000000000001054381038541000000000008B
:104DE00000000010101010FE101010100000000045
:104DF0000000000000000000000000001010200073
:104E000000000000000000FE0000000000000000A4
:104E10000000000000000000000000001010000072
:104E2000000004040808101020204040808000008A
:104E3000000038448282828282828282443800006A
:104E4000000010701010101010101010107C0000D6
:104E500000003844828204081020408284FC000054
:104E60000000384482020438040202824438000000
:104E70000000040C141424244444FE04040E000016
:104E80000000FC808080B8C4820202828478000026
:104E900000003C428280B8C4828282824438000092
:104EA00000007E4282040408080810101010000060
:104EB00000003844828244384482828244380000B0
:104EC0000000384482828282463A028244380000DE
:104ED0000000000010100000000010100000000092
:104EE0000000000010100000000000101020000062
:104EF0000000000006186080601806000000000036
:104F0000000000000000FE0000FE000000000000A5
:104F100000000000C0300C020C30C0000000000097
:104F200000384482820204081010100010100000A3
:104F300000003844829AAAAAAAAAAA9680423C00F3
:104F4000000010101028282844447C4444EE00003F
:104F50000000FC424242427C4242424242FC00008B
:104F600000003C448280808080808282443800003F
:104F70000000F844424242424242424244F80000A9
:104F80000000FC444240447C4440404244FC000059
:104F90000000FC444240447C4440404040F000005B
:104FA0000000344C828080808E8484844C340000E5
:104FB0000000EE444444447C4444444444EE000035
:104FC00000007C101010101010101010107C000049
:104FD00000003E08080808080808088888700000D3
:104FE0000000EE44484850605048484444EE0000F9
:104FF0000000E040404040404040404244FC00004F
:105000000000C6446C6C6C545454444444EE00009C
:105010000000CE4464646454544C4C4C44E400009E
:105020000000384482828282828282824438000078
:105030000000F844424242447840404040E00000D2
:105040000000384482828282828282BA443C02001A
:105050000000F048444444487048444444E600009A
:1050600000003C44828040300C0202824478000000
:1050700000007C5492101010101010101038000016
:105080000000EE4444444444444444444438000052
:105090000000EE4444444428282828101010000042
:1050A0000000EE4454545454545428282828000036
:1050B0000000EE44442828101028284444EE000044
:1050C0000000EE444428282810101010103800006A
:1050D00000007E44840808102020408284FC0000E8
:1050E000001C1010101010101010101010101C00C8
:1050F0000000EE445454FE5454542828282800003C
:1051000000701010101010101010101010107000FF
:105110000030488400000000000000000000000093
:105120000000000000000000000000000000FE0081
:10513000004020000000000000000000000000000F
:105140000000000000007884047C84848C760000D9
:105150000000C0404040586442424242645800004F
:105160000000000000003844808080804438000047
:1051700000000C040404344C848484844C36000005
:10518000000000000000788484FC808084780000A7
:10519000000018242020F82020202020207000006B
:1051A0000000000000003A444478807C82827C0049
:1051B0000000C040404058644444444444EE000071
:1051C00000001010000030101010101010380000F7
:1051D000000010100000301010101010109060002F
:1051E0000000C04040405C485060504844EE000021
:1051F00000003010101010111010101010390000A5
:10520000000000000000ACD29292929292D6000070
:1052100000000000000058E44444444444EE000010
:10522000000000000000384482828282443800007E
:10523000000000000000D864424242645840E00090
:10524000000000000000364C8484844C34040E00BE
:105250000000000000006C302020202020700000A2
:105260000000000000007888846018844478000002
:10527000000000202020F8202020202024180000FA
:10528000000000000000C64242424242463A00008E
:10529000000000000000EE44442828281010000000
:1052A000000000000000EE44445454282828000068
:1052B000000000000000EE442810102844EE00001A
:1052C000000000000000EE444428281010A0C00098
:1052D0000000000000007E448810204284FC000092
:1052E000000C1010101010601010101010100C0096
:1052F00000101010101010101010101010101000CE
:1053000000C0202020202018202020202020C000A5
:1053100000000000000000728C000000000000008F
:105320000000000000001FE000003FF000003FF020
:1053300000001FE0000180060003C00F0003C00F43
:105340000003C00F0003C00F0003C00F0003C00F15
:105350000003C00F0003C00F0003000300000000A3
:105360000000000000000000000300030003C00F65
:105370000003C00F0003C00F0003C00F0003C00FE5
:105380000003C00F0003C00F0003C00F0001800620
:1053900000001FE000003FF000003FF000001FE0B1
:1053A00000000000000000000000008000000180FC
:1053B00000000380000007800000078000000780D5
:1053C00000000780000007800000078000000780C1
:1053D000000007800000078000000180000000003E
:1053E00000000000000000000000018000000780B5
:1053F0000000078000000780000007800000078091
:105400000000078000000780000007800000078080
:105410000000038000000180000000800000000008
:105420000000000000001FE000003FF00000FFF05F
:105430000001FFE0000000060000000F0000000F68
:105440000000000F0000000F0000000F0000000F20
:105450000000000F0000000F00001FE300007FF8B5
:1054600000007FF800001FE0000300000003C00000
:105470000003C0000003C0000003C0000003C00020
:105480000003C0000003C0000003C0000001800052
:1054900000001FF000003FF800003FFC00001FFE6E
:1054A000000000000003FF800001FFC00000FFC0FB
:1054B00000007F80000000180000003C0000003C5D
:1054C0000000003C0000003C0000003C0000003CEC
:1054D0000000003C0000003C00007F8C0001FFE069
:1054E0000001FFF000007F800000000C0000003C85
:1054F0000000003C0000003C0000003C0000003CBC
:105500000000003C0000003C0000003C00000018CF
:1055100000007F800000FFC00001FFC00003FF808B
:105520000000000000000000000200010003000372
:10553000000380070003C00F0003C00F0003C00F6B
:105540000003C00F0003C00F0003C00F0003C00F13
:105550000003C00F0003C00F00031FE300007FF82B
:1055600000007FFC00001FE0000000030000000FAF
:105570000000000F0000000F0000000F0000000FEF
:105580000000000F0000000F0000000F0000000FDF
:105590000000000700000003000000010000000000
:1055A0000000000000001FFC00003FF800003FF07A
:1055B00000001FE0000180000003C0000003C000E5
:1055C0000003C0000003C0000003C0000003C000CF
:1055D0000003C0000003C00000031FE000007FF8CC
:1055E00000007FF800001FE0000000030000000F33
:1055F0000000000F0000000F0000000F0000000F6F
:105600000000000F0000000F0000000F0000000667
:1056100000003FE000007FF00000FFF00001FFE02D
:105620000000000000001FFC00003FF800003FF0F9
:1056300000001FE0000180000003C0000003C00064
:105640000003C0000003C0000003C0000003C0004E
:105650000003C0000003C00000031FE000007FF84B
:1056600000007FFC00001FE0000300030003C00FE8
:105670000003C00F0003C00F0003C00F0003C00FE2
:105680000003C00F0003C00F0003C00F000180061D
:1056900000001FE000003FF000003FF000001FE0AE
:1056A000000000000007FFE00003FFC00001FF88CA
:1056B0000000FF18000000380000007800000078AB
:1056C00000000078000000780000007800000078FA
:1056D00000000078000000780000001800000000C2
:1056E000000000000000000000000018000000782A
:1056F00000000078000000780000007800000078CA
:1057000000000078000000780000007800000078B9
:105710000000003800000018000000080000000031
:105720000000000000001FE000003FF000003FF01C
:1057300000001FE0000180060003C00F0003C00F3F
:105740000003C00F0003C00F0003C00F0003C00F11
:105750000003C00F0003C00F00031FE300007FF829
:1057600000007FFC00001FE0000300030003C00FE7
:105770000003C00F0003C00F0003C00F0003C00FE1
:105780000003C00F0003C00F0003C00F000180061C
:1057900000001FE000003FF000003FF000001FE0AD
:1057A0000000000000001FE000003FF000003FF09C
:1057B00000001FE0000180060003C00F0003C00FBF
:1057C0000003C00F0003C00F0003C00F0003C00F91
:1057D0000003C00F0003C00F00031FE300007FF8A9
:1057E00000007FFC00001FE0000000030000000F2D
:1057F0000000000F0000000F0000000F0000000F6D
:105800000000000F0000000F0000000F0000000665
:1058100000001FE000003FF000007FF00000FFE00C
:105820000000000000000000000000000000000078
:105830000000000000000000000000000000000068
:105840000000000000000000000000000000000058
:105850000000000000000000000000000000000048
:105860000000000000000000000000000000000038
:1058700000000000000078000000780000007800C0
:1058800000007800000078000000780000000000B0
:105890000000000000000000000000000000000008
:1058A00000000000000000000000000000000000F8
:1058B00000000000000000000000000000000000E8
:1058C0000000070000000F8000000F8000000F8024
:1058D00000000700000000000000000000000000C1
:1058E00000000000000000000000000000000700B1
:1058F00000000F8000000F8000000F8000000700F4
:105900000000000000000000000000000000000097
:105910000000000000000000000000000000000087
:105920000000000000000000000000000000000077
:105930000007C006000FE0060000000C0030181839
:10594000003018180030183000301830003018605F
:10595000003008C00007C0C0000FE0800000000059
:105960000000000FE0000607C000063018000C30F1
:1059700018000C3018001830180030301800303083
:10598000180060000000C00FE000C007C000000069
:105990000000000000000000000000000000000007
:1059A00000000000000000000000000000000000F7
:1059B0000000000000000000000700E0000887FC75
:1059C00000088E030008980180071800800030004E
:1059D0000000300000007000000060000000600067
:1059E0000000600000006000000060000000700027
:1059F00000003000000030000000380000001801F6
:105A000000000C03000007FC000001F00000000093
:105A10000000000000000000000000000000000086
:105A20000000000000000000000000000000000076
:105A30000000000000000000000000000000000066
:105A40000000000000000000000000000000000056
:105A500000000000000000000000000000003FF017
:105A600000007FF000007FE00000FFC000000000A9
:105A70000000000000000000000000000000000026
:105A80000000000000000000000000000000000016
:105A90000000000000000000000000000000000006
:105AA0000000B5E70200020002007FF04210421041
:105AB0007FF0421042107FF042000208020801F815
:105AC00000000000D7D37FF00020004000800100DC
:105AD0000200FFF8020002000200020002000200C1
