:020000040800F2
:1000000060070020DD01000895110008090B0008B9
:1000100091110008AD060008F7200008000000005C
:10002000000000000000000000000000351500087E
:10003000FD060008000000003D1300085D170008E1
:10004000F7010008F7010008F7010008F7010008B0
:10005000F7010008F7010008F7010008F7010008A0
:10006000F7010008F7010008F7010008F701000890
:10007000F7010008F7010008F7010008F701000880
:10008000F7010008F7010008F7010008F701000870
:10009000F7010008F7010008F7010008F701000860
:1000A000F7010008011A0008F7010008F70100082D
:1000B000F7010008711A0008F7010008F7010008AD
:1000C000F7010008F7010008F7010008F701000830
:1000D000F7010008191E0008A11E0008F70100081A
:1000E000F7010008F7010008F7010008F701000810
:1000F000F7010008F7010008F7010008F701000800
:10010000F7010008F7010008F7010008F7010008EF
:10011000F7010008F7010008F7010008F7010008DF
:10012000F7010008F7010008F7010008F7010008CF
:1001300000F002F800F042F80AA090E8000C8244B7
:100140008344AAF10107DA4501D100F037F8AFF294
:10015000090EBAE80F0013F0010F18BFFB1A43F0A5
:1001600001031847C43F0000E43F0000103A24BFD9
:1001700078C878C1FAD8520724BF30C830C144BF0C
:1001800004680C607047000000230024002500264E
:10019000103A28BF78C1FBD8520728BF30C148BFEA
:1001A0000B607047642900F07B80782900F0B480F0
:1001B000002070471FB51FBD10B510BD00F064F9D9
:1001C0001146FFF7F7FF02F017F800F082F903B4C9
:1001D000FFF7F2FF03BC01F090FF000009488047E1
:1001E00009480047FEE7FEE7FEE7FEE7FEE7FEE719
:1001F000FEE7FEE7FEE7FEE704480549054A064B31
:1002000070470000611700083101000860010020FC
:10021000600700206003002060030020704700009A
:100220000FB4044910B503AA029800F0FFF810BCFF
:100230005DF814FB180000202DE9F0410E4604463D
:10024000002020622046E168884730B3252805D089
:10025000D4E901219047206A401CF2E7E16820467A
:1002600000278847050018D0A5F14100192802D8B9
:1002700020354FF400673246294620462760FFF7B5
:1002800091FF40B1012804D0F61D26F0070608367C
:10029000D8E7361DD6E72846DAE7206ABDE8F081C0
:1002A0002DE9F0410646002410687529314616A54F
:1002B00010D0AFF30080002802DA404213A507E017
:1002C00031688A0701D512A502E0490704D511A5B6
:1002D000012401E0AFF3008000210A2206F1240787
:1002E00009E0B0FBF2FCB0FBF2F302FB1C00303083
:1002F00078541846491C0028F3D123462A46304634
:10030000BDE8F04100F038B8000000002D0000000A
:100310002B0000002000000070B504460D46214669
:100320001068AFF300802188090502D50F4A7A448E
:1003300002E00E4A7A440E32002104F1240305E063
:1003400000F00F060009965D5E54491C0028F7D1A5
:1003500020780023000704D5702D02D009B10223B4
:1003600011322046BDE8704000F006B8CE3D0000D6
:1003700070477047704770472DE9F0470D46994622
:100380009246044600F124080168880604D5E06915
:1003900021F01001216000E00120A84201DD471B8F
:1003A00000E00027A1697A1902EB0900081AA06190
:1003B0002078C00602D42046AFF30080002608E073
:1003C000D4E901211AF806009047206A401C761CE7
:1003D00020624E45F4DB2078C0060AD52046AFF3F4
:1003E000008006E0D4E9012130209047206A401CBB
:1003F0002062381EA7F10107F4DC07E0D4E90121EF
:1004000018F805009047206A401C2062281EA5F1BC
:100410000105F3DC2046AFF300802078000602D50A
:100420000220BDE8F0870120FBE70000074B70B514
:100430000D467B4400F011F80446284600F020F8F1
:1004400010B14FF0FF3070BD204670BDA71D0000F9
:1004500001694A1C02610878704700B58FB0CDE988
:1004600001310021059105497944CDE90310114678
:100470006846FFF7E1FE0FB000BD0000E5FFFFFF9B
:10048000007B00F080007047754600F02BF8AE4608
:1004900005006946534620F00700854618B020B590
:1004A000FFF7AAFEBDE820404FF000064FF000071E
:1004B0004FF000084FF0000B21F00701AC46ACE80C
:1004C000C009ACE8C009ACE8C009ACE8C0098D4679
:1004D000704710B50446AFF300802046BDE81040D9
:1004E000FFF775BE004870470001002021B1826807
:1004F00042F00102826003E0826822F00102826021
:100500007047014600208A6802F004020AB1012007
:1005100000E0002070470146C86C80B27047024678
:10052000002013680B400BB1012000E00020704751
:10053000014600208A6802F008020AB1012000E0AA
:100540000020704730B502460020002350680F4C51
:1005500020400D790C6844EA0524204350609068DF
:100560000B4C2040D1E902542C434D7944EA450418
:1005700020439060D06A20F470000C7C641EE4B2CA
:10058000234340EA0350D06230BD0000FFFEF0FF7D
:10059000FDF7F1FFF0B504460D4600200021092DBE
:1005A00011DDE068A5F10A0606EB4607072606FA04
:1005B00007F18843A5F10A0606EB460603FA06F1A1
:1005C0000843E0600CE0206905EB4507072606FAC2
:1005D00007F1884305EB450603FA06F1084320615D
:1005E000072A0FDA606B561E06EB86071F2606FAEF
:1005F00007F18843561E06EB860605FA06F1084306
:10060000606322E00D2A0FDA206BD61F06EB860707
:100610001F2606FA07F18843D61F06EB860605FA61
:1006200006F10843206310E0E06AA2F10D0606EB34
:1006300086071F2606FA07F18843A2F10D0606EB8E
:10064000860605FA06F10843E062F0BD816841F0D4
:1006500008018160704721B1826842F4A002826083
:1006600003E0826822F4A00282607047816841F052
:10067000040181607047000008B50121202000F0CE
:100680008BFE10208DF8030003208DF8020004205B
:10069000ADF800006946044800F09EF804210248C5
:1006A00000F025F908BD00000014014000BFFEE77E
:1006B00000B587B00121042000F06EFE0121480240
:1006C00000F06AFE00208DF81B0003208DF81A0050
:1006D0007020ADF8180006A9064800F07DF801A9C1
:1006E0000548FFF72FFF01210348FFF7FFFE07B082
:1006F00000BD0000000801400024014070470000D8
:1007000000B587B001211C2000F046FE0121052024
:1007100000F022FE48208DF81B0003208DF81A00FF
:10072000ADF8180006A9284800F056F8E020ADF80A
:10073000180006A9254800F04FF80820ADF8180069
:1007400006A9234800F048F80020ADF81200ADF8E3
:100750000E004FF6FF70ADF810000020ADF80C0051
:100760008DF8140003A94FF0804001F0DFFA03A9CF
:10077000184801F0DBFA02231A460121880701F02C
:10078000C0F902231A460121880701F0BAF9694627
:100790004FF0804001F0E8F969460E4801F0E4F9B5
:1007A00001221146900701F035FA0122114609484D
:1007B00001F030FA0121880701F088F9012105488C
:1007C00001F084F907B000BD00080140000C0140B1
:1007D00000100140000800402DE9F04102460025CC
:1007E0000026002000230024002791F803C00CF00D
:1007F0000F0591F803C00CF0100CBCF1000F03D0F2
:1008000091F802C04CEA050591F800C0BCF1000F58
:1008100031D0146800202BE04FF0010C0CFA00F3EB
:10082000B1F800C00CEA03069E4220D183004FF0CD
:100830000F0C0CFA03F7BC4305FA03FC4CEA040462
:1008400091F803C0BCF1280F06D14FF0010C0CFA4F
:1008500000FCC2F814C00AE091F803C0BCF1480FD4
:1008600005D14FF0010C0CFA00FCC2F810C0401C7E
:100870000828D1D31460B1F800C0BCF1FF0F34DDFB
:10088000546800202EE000F1080C4FF0010808FA2F
:100890000CF3B1F800C00CEA03069E4221D183009C
:1008A0004FF00F0C0CFA03F7BC4305FA03FC4CEABB
:1008B000040491F803C0BCF1280F05D100F1080C25
:1008C00008FA0CF8C2F8148091F803C0BCF1480F84
:1008D00007D100F1080C4FF0010808FA0CF8C2F833
:1008E0001080401C0828CED35460BDE8F0814161DF
:1008F000704701617047000010B5044607230122CC
:1009000021460948FFF746FE01210748FFF7A3FEED
:1009100000BF02210448FFF702FE0028F9D0024878
:10092000FFF7F9FD10BD0000002801402DE9F0415E
:1009300007460C460025002608E03846FFF7DCFF96
:100940000544052001F0FEFB701CC6B2A642F4DB94
:10095000B5FBF4F080B2BDE8F08100002DE9F84F5E
:100960000746884693469A46DDF828900097B3E0FC
:1009700099F8000080283DDA99F800600D2E05D125
:10098000009F08F110001FFA80F830E0202E03DDF0
:10099000A6F1200086B200E00026002422E0002517
:1009A0001CE004EB06105049085C802129410840F6
:1009B00040B108EB040291B27A1990B25A4600F0A5
:1009C00097F809E0D34507D008EB040291B27A19F1
:1009D00090B2524600F08CF8681CC5B2082DE0DBDE
:1009E000601CC4B2102CDADB07F1080087B209F1F1
:1009F000010971E0002668E006EB06103B4911F89A
:100A0000100099F8001088425DD106EB06103749B6
:100A100001EB4000407899F80110884253D100243E
:100A20004FE0002520E006EB0610304901EB4000C6
:100A3000801C10F8141080202841014041B108EBBF
:100A4000040291B27A1990B25A4600F051F809E0C6
:100A5000D34507D008EB040291B27A1990B25246FE
:100A600000F046F8681CC5B2082DDCDB002524E048
:100A700006EB06101D4901EB4000801C012101EB33
:100A80004401405C80212941084048B108EB040240
:100A900091B27A19083290B25A4600F029F80AE069
:100AA000D34508D008EB040291B27A19083290B20B
:100AB000524600F01DF8681CC5B2082DD8DB601C3A
:100AC000C4B2102CADDB701C86B2322E94DB09F15F
:100AD000020907F1100087B299F8000000287FF49E
:100AE00047AFBDE8F88F0000282700089A340008B7
:100AF00070B505460E4614463146284600F003FB05
:100B0000204600F027FB70BD00BFFEE710B50020B7
:100B10000F4908600F48006820F470200D490860F4
:100B20000846006840F44030086000200A49C1F8D7
:100B3000B001022001F02CFB0120054908600220D1
:100B400001F026FB00200449C1F8AC0110BD0000F3
:100B5000AC012142040801400000214210B50020F0
:100B60000F4908600F48006820F470200D490860A4
:100B70000846006840F44030086001200A49C1F886
:100B8000B001022001F004FB0120054908600220A9
:100B900001F0FEFA00200449C1F8AC0110BD0000CC
:100BA000AC012142040801400000214270B5054615
:100BB00000241748006820F4702015490860084692
:100BC000006840F400200860002616E0002011496B
:100BD0000860022001F0DCFA01200F49C1F8AC01E5
:100BE0006006040E0B487C38006808B1601CC4B273
:100BF000012001F0CDFA701CC6B2082EE6DB15B953
:100C0000FFF7ACFF01E0FFF781FF204670BD000059
:100C100004080140AC0121420000214270B50446A5
:100C20001548006820F470201349086008460068E1
:100C300040F440300860002010490860002517E0AB
:100C4000E0090E49091D08606006040E022001F04B
:100C50009FFA01200A49C1F8AC01022001F098FA7C
:100C6000002006490860022001F092FA681CC5B213
:100C7000082DE5DB70BD000004080140AC012142F5
:100C80000000214210B50F48006820F470200D4983
:100C900008600846006840F44030086001200A49B6
:100CA00008600A49C1F8AC01042001F071FA002083
:100CB00005490860042001F06BFA00200349C1F8DF
:100CC000AC0110BD04080140B001214200002142E6
:100CD00010B50F48006820F470200D4908600846E0
:100CE000006840F44030086000200A4908600A4962
:100CF000C1F8B001042001F04BFA01200549086059
:100D00000549C1F8B001042001F042FA10BD00000D
:100D100004080140AC0121420000214210B500242A
:100D20001448006820F470201249086008460068E2
:100D300040F40020086001200F49086001F028FA03
:100D400001200E49C1F8AC0101F022FA07E0601C55
:100D5000C4B2FA2C03DDFFF7BBFF012010BD06482B
:100D6000803800680028F2D10349091F086000BFDD
:100D7000F4E7000004080140B001214200002142D4
:100D800008B50121102000F007FB48208DF8030072
:100D900003208DF802004FF47050ADF80000694652
:100DA0000148FFF719FD08BD0010014008B50121F9
:100DB000082000F0F1FA4FF47E40ADF80000032067
:100DC0008DF8020010208DF8030069460148FFF7F6
:100DD00003FD08BD000C014008B501211C2000F0F6
:100DE000DBFA10208DF8030003208DF802004FF489
:100DF0008070ADF8000069461048FFF7EDFC4FF435
:100E00008070ADF8000069460D48FFF7E5FC40F240
:100E10001720ADF8000069460A48FFF7DDFC4FF4E3
:100E200080710648FFF765FD40F216210548FFF77F
:100E300060FD01210348FFF75AFD08BD000801408D
:100E4000000C01400010014010B500F025F810BD65
:100E500030B50446EF2340F23F120021084600F06F
:100E600037F94FF400600B4908604010091F086013
:100E7000002506E0201200F03DFBE0B200F03AFB56
:100E80006D1CB5F5963FF5D34FF400600149091F7D
:100E9000086030BD140C014010B5FFF787FF00F06B
:100EA00003F9112000F060F9002000F03FF9CF2095
:100EB00000F05AF9002000F039F9C12000F036F9AD
:100EC000302000F033F9ED2000F04EF9642000F0FE
:100ED0002DF9032000F02AF9122000F027F98120D3
:100EE00000F024F9E82000F03FF9852000F01EF919
:100EF000112000F01BF9782000F018F9F62000F01E
:100F000033F9012000F012F9302000F00FF9002031
:100F100000F00CF9CB2000F027F9392000F006F999
:100F20002C2000F003F9002000F000F9342000F03C
:100F3000FDF8052000F0FAF8F72000F015F9202060
:100F400000F0F4F8EA2000F00FF9002000F0EEF8CD
:100F5000002000F0EBF8C02000F006F9202000F09F
:100F6000E5F8C12000F000F9112000F0DFF8C520FD
:100F700000F0FAF8312000F0D9F83C2000F0D6F863
:100F8000C72000F0F1F8A92000F0D0F83A2000F0D6
:100F9000EBF8552000F0CAF8362000F0E5F8E8201C
:100FA00000F0C4F8B12000F0DFF8002000F0BEF837
:100FB000182000F0BBF8B42000F0D6F8002000F0B4
:100FC000B5F8002000F0B2F8F22000F0CDF80020D3
:100FD00000F0ACF8262000F0C7F8012000F0A6F8D9
:100FE000E02000F0C1F80F2000F0A0F8172000F07A
:100FF0009DF8142000F09AF8092000F097F80C20D2
:1010000000F094F8062000F091F8432000F08EF8EC
:10101000752000F08BF8362000F088F8082000F0EA
:1010200085F8132000F082F8052000F07FF81020EA
:1010300000F07CF80B2000F079F8082000F076F83A
:10104000E12000F091F8002000F070F81F2000F07F
:101050006DF8232000F06AF8032000F067F80E20F6
:1010600000F064F8042000F061F8392000F05EF828
:10107000252000F05BF84D2000F058F8062000F025
:1010800055F80D2000F052F80B2000F04FF83320F7
:1010900000F04CF8372000F049F80F2000F046F837
:1010A000292000F061F810BD10B54FF480500749B9
:1010B0000860642001F046F84FF480500349091F8E
:1010C0000860322001F03EF810BD0000140C014011
:1010D000F0B507460C4615461E462A2000F044F897
:1010E000384600F037F8284600F034F82B2000F09E
:1010F0003BF8204600F02EF8304600F02BF82C206C
:1011000000F032F8F0BD30B505460C462A2000F05C
:101110002BF8284600F01EF82B2000F025F820467A
:1011200000F018F82C2000F01FF830BD10B5044670
:101130004FF40060064908604010091F086020460F
:1011400000F0D8F94FF400600149091F086010BD94
:10115000140C014010B504462012FFF7E7FFE0B27F
:10116000FFF7E4FF10BD000010B504464FF4006027
:101170000649086040100860204600F0BBF94FF4B3
:1011800000600249091F086010BD0000140C0140F6
:1011900000BFFEE7704710B54FF4A06000F03AF8CA
:1011A00010BD000070B5002100230F22C47804B3E5
:1011B000154C246804F4E064C4F5E064210AC1F12C
:1011C0000403CA40447804FA03F1847814402143AC
:1011D00009010E4C0678A155047804F01F0501247E
:1011E000AC4005786D11AD0005F1E025C5F8004172
:1011F00009E0047804F01F050124AC40044D067892
:10120000761145F8264070BD0CED00E000E400E0EA
:1012100080E100E002490143024A1160704700008A
:101220000000FA050CED00E000B58DB00121C80208
:1012300000F0B2F80121480300F0AEF801211C20B3
:1012400000F0AAF818208DF8330003208DF8320042
:101250008020ADF830000CA93448FFF7BDFA032018
:10126000ADF830000CA93248FFF7B6FA4FF4E07041
:10127000ADF830000CA92F48FFF7AEFA0020ADF80A
:101280002A00ADF8260040F2E730ADF828004720EC
:10129000ADF8240000208DF82C0009A9264800F0A4
:1012A00045FD6020ADF804000120ADF806000420E3
:1012B000ADF808000020ADF80C000820ADF80E00D5
:1012C0000020ADF81000ADF81200C720ADF80A00FC
:1012D00001A9194800F0A8FC0821174800F0F0FC0B
:1012E0000020ADF81400ADF81600ADF81800ADF808
:1012F0001A004FF48040ADF820000020ADF81C002B
:101300004FF40050ADF81E0005A90B4800F0C8FBD3
:101310000121094800F0B8FB0121074800F0E2FB79
:101320000121054800F0D2FB0DB000BD00080140CE
:10133000000C0140001001400034014070470000E3
:1013400001460020034A506820F4404008435060A2
:10135000704700000010024029B1064AD2690243DA
:10136000044BDA6104E0034AD2698243014BDA613B
:10137000704700000010024029B1064A126902437A
:10138000044B1A6104E0034A12698243014B1A615B
:10139000704700000010024029B1064A92690243DA
:1013A000044B9A6104E0034A92698243014B9A61BB
:1013B000704700000010024029B1064AD26802437B
:1013C000044BDA6004E0034AD2688243014BDA60DE
:1013D000704700000010024030B5002100220024B8
:1013E00000232D4D6D6805F00C0121B1042905D0B5
:1013F000082923D105E0294D056022E0274D05602D
:101400001FE0254D6D6805F47012234D6D6805F4DD
:101410008034022505EB92421CB9214D55430560ED
:101420000BE01D4D6D6805F400351DB11C4D554395
:10143000056002E0194D5543056002E0174D056057
:1014400000BF00BF144D6D6805F0F0010909154D8E
:101450006B5C0568DD4045600F4D6D6805F4E0612B
:10146000090A104D6B5C4568DD4085600A4D6D686A
:1014700005F46051C90A0B4D6B5C4568DD40C560E1
:10148000054D6D6805F44041890B074D6B5CC568DF
:10149000B5FBF3F5056130BD0010024000127A0083
:1014A00000093D0000000020100000202DE9F04759
:1014B0000A210F20FFF73AFA054640F6E44005FB03
:1014C00000F4E11704EB1151081301F0CFF8824644
:1014D000504601F09FF88046044A054B00F09CFFFF
:1014E000064600F06BFF80B2BDE8F08785EB51B88F
:1014F0001E8518400021082117E000F0800222B16B
:101500004FF400420A4B1A6004E04FF40042084BCB
:101510001B1D1A604FF40052054B1B1D1A601B1F48
:101520001A604206100E4A1ED1B20029E5DC70474F
:10153000100C0140704710B500F002F810BD00001B
:101540000CB50020019000903348006840F48030D2
:101550003149086000BF3048006800F40030009056
:101560000198401C0190009818B90198B0F5A06F3F
:10157000F1D12948006800F4003010B1012000903A
:1015800001E0002000900098012843D12348006822
:1015900040F01000214908600846006820F0030070
:1015A00008600846006840F0020008601A48406879
:1015B000194948600846406848600846406840F459
:1015C000806048600846406820F47C104860084607
:1015D000406840F4E81048600846006840F08070B9
:1015E000086000BF0C48006800F000700028F9D0C7
:1015F0000948406820F003000749486008464068F1
:1016000040F00200486000BF0348406800F00C0052
:101610000828F9D10CBD0000001002400020024053
:1016200008B501210420FFF7B7FE4FF4C050ADF814
:10163000000010208DF8030003208DF80200694699
:101640000148FFF7C9F808BD0008014070B504461D
:101650000026FFF717FBA020FFF7E0FAFFF75EFB7D
:101660002012FFF7DBFAFFF759FB2546E11704EBE1
:1016700011610912A4EB0121C8B2FFF7CFFAFFF7FD
:101680004DFBFFF7FFFAA120FFF7C8FAFFF746FB73
:101690000020FFF78BFA0646FFF71AFB304670BDB5
:1016A00000B587B001211020FFF776FE01218802E6
:1016B000FFF772FE4FF40040FFF742FE00208DF866
:1016C0001B0003208DF81A002020ADF8180006A991
:1016D0001648FFF781F800208DF8090004904FF4B8
:1016E000602003900020019001208DF8140000205C
:1016F0008DF8080001A90E48FEF724FF01210C48CF
:10170000FEF7F4FE0A48FEF7A1FF00BF0848FEF707
:101710000FFF0028FAD10648FEF7A8FF00BF0448D3
:10172000FEF7EFFE0028FAD107B000BD001001401F
:1017300000280140042808D14FF0E021096941F058
:1017400004014FF0E022116107E04FF0E021096948
:1017500021F004014FF0E022116170477047000052
:1017600010B51348006840F00100114908600846B0
:101770004068104908400E494860084600680E4914
:1017800008400B4908600846006820F48020086083
:101790000846406820F4FE0048604FF41F0088604F
:1017A000FFF7C9FE4FF000600449086010BD00005B
:1017B000001002400000FFF8FFFFF6FE08ED00E019
:1017C000F0B50C46154600220021068C4FF6FE7738
:1017D0003E400684028B018C4FF60C7632407E1C14
:1017E00006EA03162E433243104EB0420ED0104E7E
:1017F000B0420BD0B0F1804F08D00E4EB04205D0B1
:101800000D4EB04202D00D4EB04206D14FF6FD76DD
:10181000314044F00106314305E04FF6F5763140A2
:1018200044F00106314302830184F0BD002C0140E5
:10183000003401400004004000080040000C00405B
:10184000F0B50C461546002200210026078C4FF605
:10185000EF7C07EA0C070784028B018C4FF6FF77B9
:1018600007EA041640F6FF473A404FF6FF7707EACB
:1018700003373A434FF6FF7707EA05273A43114FFC
:10188000B8420ED0104FB8420BD0B0F1804F08D004
:101890000E4FB84205D00E4FB84202D00D4FB8429D
:1018A00006D14FF6DF77394046F01007394305E09F
:1018B0004FF65F77394044F01007394302830184C3
:1018C000F0BD0000002C0140003401400004004045
:1018D00000080040000C0040F0B50C461546002200
:1018E00000210026078C4FF6FF6C07EA0C070784DF
:1018F000828B018C4FF6FF7707EA04264FF60C77B0
:101900003A404FF6FF7707EA03172F433A43114F48
:10191000B8420ED0104FB8420BD0B0F1804F08D073
:101920000E4FB84205D00E4FB84202D00D4FB8420C
:1019300006D14FF6FF57394046F48077394305E02A
:101940004FF2FF57394044F4807739438283018452
:10195000F0BD0000002C01400034014000040040B4
:1019600000080040000C0040F0B50C46154600226F
:1019700000210026078C4EF6FF7C07EA0C0707843F
:10198000828B018C4FF6FF7707EA043640F6FF475B
:101990003A404FF6FF7707EA05273A434FF6FF77BD
:1019A00007EA03373A43114FB8420ED0104FB842FE
:1019B0000BD0B0F1804F08D00E4FB84205D00E4F7B
:1019C000B84202D00D4FB84206D14DF6FF773940EC
:1019D00046F48057394305E047F6FF57394044F451
:1019E0008057394382830184F0BD0000002C014000
:1019F000003401400004004000080040000C00409A
:101A000010B50121144800F09DF800B301201349DE
:101A1000087013480078401C114908700846007887
:101A20000A2805DB01200F49087000200C490870C6
:101A30000D480078401C0C4908700846007864285E
:101A400005DB0120094908700020074908700121C1
:101A5000014800F038F810BD002C014020000020A3
:101A6000210000201E000020220000201F00002076
:101A700010B50121034800F065F80121014800F08C
:101A800022F810BD0004004021B1028842F080021B
:101A9000028004E002884FF67F731A40028070478C
:101AA0000A884B881A438B881A43CB881A430B89C0
:101AB0001A434B891A438B891A43A0F84420704774
:101AC000CA4302827047CA430282704721B102882A
:101AD00042F00102028004E002884FF6FE731A40D1
:101AE0000280704731B1B0F8442042F40042A0F8BF
:101AF000442005E0B0F84420C2F30E02A0F84420D0
:101B00007047F0B50C4615461E4600210022002302
:101B10000189028B038C4FF6F877394021434FF649
:101B2000FC473A4040F201173A434FF6DD773B401D
:101B30004FF6FF7707EA06172F433B4301810283E5
:101B40000384F0BD30B50246002000230024158A2E
:101B500005EA0103958905EA010413B10CB10120DE
:101B600000E0002030BD000070B505460C4624485A
:101B700085420ED0234885420BD0B5F1804F08D066
:101B80002148854205D02148854202D0204885421F
:101B900000D100E000BF208850B92389A288618865
:101BA0002846FFF70DFEE188284600F092F825E070
:101BB000208804280AD12389A28861882846FFF753
:101BC0003FFEE188284600F08DF817E020880828BD
:101BD0000AD12389A28861882846FFF77DFEE18823
:101BE000284600F08CF809E02389A28861882846FD
:101BF000FFF7BAFEE188284600F08AF870BD0000C1
:101C0000002C014000340140000400400008004066
:101C1000000C00401AB183890B43838102E0838961
:101C20008B4383817047000070B50024002200239D
:101C3000058C4FF6FE7635400584028C8388048B34
:101C40004FF68F752C40B51E2C400D882C43751E09
:101C50002A400D892A434D882A43144DA8420BD0AF
:101C6000134DA84208D0134DA84205D0124DA842EA
:101C700002D0124DA84213D14FF6F7752A404D8974
:101C80002A434FF6FB752A408D882A434FF6FF659D
:101C90002B404FF6FF552B408D892B43CD892B438D
:101CA00083800483CD888586028470BD002C01402A
:101CB0000034014000400140004401400048014020
:101CC0000A460021018B4FF6F77319401143018337
:101CD0007047028B4FF6F3731A400283028B0A435C
:101CE00002837047028B4FF2FF331A400283028B4C
:101CF0004FF6FF7303EA01231A4302837047828B76
:101D00004FF6F3731A408283828B0A4382837047B3
:101D1000828B4FF2FF331A408283828B4FF6FF7320
:101D200003EA01231A4382837047000000220288DD
:101D30001D4B98420ED01D4B98420BD0B0F1804FF6
:101D400008D01B4B984205D01A4B984202D01A4B30
:101D5000984204D14FF68F731A404B881A43174BA1
:101D6000984207D0164B984204D04FF6FF431A40D2
:101D7000CB881A4302808B8883850B8803850A4BA6
:101D800098420BD0094B984208D00E4B984205D090
:101D90000D4B984202D00D4B984201D10B7A03862D
:101DA0000123838270470000002C01400034014071
:101DB0000004004000080040000C004000100040FB
:101DC0000014004000400140004401400048014030
:101DD0000EB50121C802FFF7DFFA3120ADF804008B
:101DE00041F61F40ADF800000020ADF80200694642
:101DF0000848FFF79BFF01210648FFF761FE01221B
:101E000011460448FFF706FF01210248FFF75EFE76
:101E10000EBD0000002C014010B540F225511D48B8
:101E200000F0A8F810B31B4800F060F9C4B21A48DB
:101E3000008800F40040C8B91748008800F48040CA
:101E400060B10A2C03D000201349088020E012481A
:101E5000008840F400401049088019E00D2C06D19C
:101E60000D48008840F480400B49088010E00A4883
:101E70000088C0F30D0009490C5407480088401C35
:101E80000549088008460088C72801DD0020088031
:101E900010BD0000003801401C0000203800002068
:101EA00010B540F22551054800F064F820B1034810
:101EB00000F01CF9C4B200BF10BD00000044004097
:101EC00021B1828942F40052828104E082894DF678
:101ED000FF731A408281704710B50446204884423F
:101EE00009D101218803FFF767FA00214FF48040F0
:101EF000FFF762FA32E01B48844209D1012148040D
:101F0000FFF73AFA00214FF40030FFF735FA25E0E9
:101F10001548844209D101218804FFF72DFA0021D8
:101F20004FF48020FFF728FA18E01048844209D1C6
:101F30000121C804FFF720FA00214FF40020FFF729
:101F40001BFA0BE00A48844208D101210805FFF77B
:101F500013FA00214FF48010FFF70EFA10BD0000B5
:101F6000003801400044004000480040004C004060
:101F70000050004070B502460024002300250020D8
:101F800040F66A16B14200D100BFC1F3421501F01C
:101F90001F03012606FA03F3012D02D1968933406F
:101FA00006E0022D02D1168A334001E0968A3340C2
:101FB0000C12012606FA04F41688344013B10CB151
:101FC000012000E0002070BDF0B50346002400268B
:101FD0000025002040F66A17B94200D100BF18461C
:101FE000C1F3421401F01F06012707FA06F5012C80
:101FF00001D10C3004E0022C01D1103000E014308B
:102000001AB107682F43076002E00768AF43076013
:10201000F0BD00002DE9F04786B005460E460024CD
:10202000A24600BFA1460027B08900B100BF2F46DD
:102030002C8A4CF6FF700440F08804432C82AC8953
:102040004EF6F3100440B088318908437189084383
:102050000443AC81AC8A4FF6FF400440B08904438E
:10206000AC8201A8FFF7B8F91F48874202D1DDF81A
:1020700010A001E0DDF80CA0A88900F4004040B1F8
:102080000AEBCA0000EB0A1031684900B0FBF1F816
:1020900007E00AEBCA0000EB0A1031688900B0FBC8
:1020A000F1F86420B8FBF0F004012009642101FB81
:1020B0001089A88900F4004040B1322000EBC9002B
:1020C000B0FBF1F000F00700044308E0322000EB21
:1020D00009106421B0FBF1F000F00F0004432C81E3
:1020E00006B0BDE8F087000000380140014688884E
:1020F000C0F30800704700BFFEE700BF7047000054
:1021000010B56FF00400FFF715FB0A4800680A4994
:10211000B0FBF1F0094908700846007800EB400177
:10212000C1EBC0104FF6FF7101EAC00004490880FE
:1021300010BD00002400002000127A0014000020CE
:10214000160000200146114A12884A434FF0E0234E
:102150005A6100229A611A46126942F001021A611C
:1021600000BF4FF0E022106900F001021AB100F444
:102170008032002AF5D04FF0E022126922F00102ED
:102180004FF0E0231A6100229A6170471600002088
:102190000146114A12784A434FF0E0235A61002267
:1021A0009A611A46126942F001021A6100BF4FF0AB
:1021B000E022106900F001021AB100F48032002A16
:1021C000F5D04FF0E022126922F001024FF0E02337
:1021D0001A6100229A6170471400002000BF054A6E
:1021E000128802F04002002AF9D0C2B2014B1B1D36
:1021F0001A8070470038014008B5FEF7CCFFFFF7A2
:10220000AFFAFFF77DFF4FF4165000F083F8FFF7A9
:102210000BF8FEF775FAFFF7DBFDFEF715FEFEF78C
:1022200047FAFFF73DFAFEF7ABFDFEF7D5FDFEF7E7
:1022300023FAFFF7F5F91EA0FDF7F2FF0120204970
:1022400008604FF47840FEF703FE1EA04FF4784379
:102250001F22462100902020FEF780FB4FF4905073
:10226000FFF7F4F9054629461AA0FDF7D9FF1EE04D
:102270001348006808B9012000E0002010490860F8
:10228000FFF714F90446214618A0FDF7C9FF4FF4E3
:102290007A70FFF757FF1D48007810B100201B49E6
:1022A00008701B48007810B1002019490870DFE75A
:1022B000434F4D20546578740D0A0D0A000000004C
:1022C000A0812142C8ABB3CCBCBCCAF5D6A7B3D65B
:1022D00000000000726561642074686520646174A8
:1022E00061206973202578200D0A0000506F776502
:1022F0007220566F6C746167652069733A2025649B
:1023000020206D560D0A0D0A000000001F0000205D
:102310001E00002010B586B00446012144F20400DE
:10232000FFF73AF82348FFF7D7FD4FF40070ADF8F8
:10233000140003208DF8160018208DF8170005A949
:102340001D48FEF749FA4FF48060ADF814000420F0
:102350008DF8170005A91848FEF73EFA25208DF8DC
:10236000000003208DF801008DF8020001208DF897
:1023700003006846FEF716FF01940020ADF8080040
:10238000ADF80A00ADF80C00ADF810000C20ADF867
:102390000E0001A90748FFF73DFE012240F225513A
:1023A0000448FFF711FE01210248FFF789FD06B03E
:1023B00010BD000000380140000801404FEA1153F1
:1023C000A3F58063D3F11E03A8BFD3F1200C08DB73
:1023D0004FF0004242EAC12252EA505232FA03F070
:1023E000704709420BD4102BC4BF0020704703F57F
:1023F000787CBCF1FF3F05D04FF0FF3070474FF0C5
:102400000000704770B500F0B1F800BF4992248019
:1024100000207047F0E70000DFF848C170B51CEA03
:10242000111E1EBF1CEA13159EEA0C0F95EA0C0F35
:1024300000F06F8081EA030423EA4C134EEAD47E55
:1024400021EA4C1141F4801143F48013AE44A1FB06
:10245000024CA0FB0365AEF17F7E361955EB0C05EF
:10246000A1FB034C4CF10003A0FB021C16EB0C0675
:10247000654153F10003094218BF46F0010613F409
:10248000007F0BD14FEA03314FEA0530340341EAB4
:10249000155140EA16506FF003020AE04FEAC321DB
:1024A0004FEAC520F40241EA555140EA56506FF018
:1024B000020202EB2E4201EB025585EACE710AD0F0
:1024C0005FEA440C18BF24F0004450F1000041F1D1
:1024D000000120EAD47040F2FE7C624500D270BD5B
:1024E000A84214BF4FF080444FF04044002E08BF74
:1024F0000024BEF1806FA8BFA1F1C041BDE87040CB
:1025000080F282804FF0000001F1C04101F00041F3
:1025100070479EEA0C0F0CEA131518BF95EA0C0FD2
:1025200006D04FF0000081EA030E0EF0004170BDAE
:1025300000F01CF88900013E00F007B800F009B86F
:102540004FEA430C5FEA5C5C08D081EA030100F0CB
:102550005BB84FEA410C5FEA5C5CF6D14FF00000DB
:10256000014970470000FF070000F87F0EF1020EDE
:102570002EF0030E5EF8046B364205D4012A43EBBD
:10258000030515F5001F12D8012841EB010C1CF5BD
:10259000001F0CD80ED14FEAD17C15F5001F0CEBB3
:1025A0004C0C0CF1020C08BF4CEBD37C04E04FF058
:1025B000080C01E04FEAD37C0CEB4C0526FA05F63B
:1025C00006F00706B6F1040C06D20EEB860CBDE849
:1025D00070404CF0010C6047DFE80CF0090B020280
:1025E0004FF000414FF00000A1F5002170BD1946E9
:1025F0001046012851EB010418BFD4F5001484BF24
:10260000002001F0004170BD0808A0F500114FEA5C
:102610003101704743004FEAD30C4FEA3C0C434072
:102620001FBF40070CF1605113F0FE4F70471CF0C4
:10263000006F03D100200CF0004170470CF0004304
:1026400043EA507010B540EACC0000F027F800BF14
:10265000000000924FEA0001FFF7D6BF4FF00041A3
:102660004FF00000A1F500217047000010F000417C
:1026700048BF4042B0FA80F310FA03F2C3F19D0361
:102680000BD051EAC35101EB1220530638BF7047FB
:1026900000F1010008BF20F0010070470EF1020EAA
:1026A0002EF0030E5EF8044B244204D44FEA41029C
:1026B000B2F17F4F11D84FEA4003B3F17F4F0CD8EE
:1026C0000ED14FEAD07CB2F17F4F0CEB4C0C0CF1E9
:1026D000020C08BF4CEBD17C04E04FF0080C01E089
:1026E0004FEAD17C0CEB4C0324FA03F404F007040A
:1026F000B4F1040C06D20EEB840CBDE810404CF093
:10270000010C6047DFE80CF0070802024FF00040C0
:10271000A0F5800010BD0846420018BFD2F18072BB
:1027200088BF00F0004010BD000000000000000065
:102730000000000000000000001010101010101029
:10274000101000001010000000006C6C2424000029
:1027500000000100000000000024242424FE48485A
:102760004848FC909090900000103C549290503853
:1027700014121292547810000000225C94A84810A1
:1027800010242A5254880000000030484850206E1F
:1027900054948C888A7400000000303010100000BF
:1027A000000000000000000000040810102020209D
:1027B000202020101008040000804020201010105D
:1027C000101010202040800000000000105438102D
:1027D000385410000000000000000010101010FE1F
:1027E00010101010000000000000000000000000A9
:1027F000000000001010200000000000000000FE9B
:1028000000000000000000000000000000000000C8
:102810000000000010100000000004040808101060
:102820002020404080800000000038448282828264
:102830008282828244380000000010701010101054
:1028400010101010107C0000000038448282040830
:102850001020408284FC00000000384482020438CA
:1028600004020282443800000000040C14142424E2
:102870004444FE04040E00000000FC808080B8C4C4
:10288000820202828478000000003C428280B8C448
:10289000828282824438000000007E428204040862
:1028A00008081010101000000000384482824438DC
:1028B000448282824438000000003844828282824E
:1028C000463A028244380000000000001010000068
:1028D00000001010000000000000000010100000B8
:1028E00000000010102000000000000006186080AA
:1028F0006018060000000000000000000000FE005C
:1029000000FE00000000000000000000C0300C02CB
:102910000C30C0000000000000384482820204082D
:10292000101010001010000000003844829AAAAA6B
:10293000AAAAAA9680423C0000001010102828285D
:1029400044447C4444EE00000000FC424242427C8D
:102950004242424242FC000000003C4482808080AF
:1029600080808282443800000000F84442424242A3
:102970004242424244F800000000FC444240447C91
:102980004440404244FC00000000FC444240447C7F
:102990004440404040F000000000344C8280808081
:1029A0008E8484844C3400000000EE444444447C13
:1029B0004444444444EE000000007C101010101009
:1029C00010101010107C000000003E0808080808D5
:1029D00008080888887000000000EE4448485060ED
:1029E0005048484444EE00000000E0404040404071
:1029F0004040404244FC00000000C6446C6C6C54F3
:102A00005454444444EE00000000CE4464646454D2
:102A1000544C4C4C44E400000000384482828282D2
:102A200082828282443800000000F84442424244DC
:102A30007840404040E000000000384482828282BA
:102A4000828282BA443C02000000F0484444444878
:102A50007048444444E6000000003C44828040301A
:102A60000C0202824478000000007C549210101086
:102A700010101010103800000000EE44444444448C
:102A800044444444443800000000EE444444442894
:102A900028282810101000000000EE44545454540C
:102AA00054542828282800000000EE444428281008
:102AB0001028284444EE00000000EE444428282852
:102AC000101010101038000000007E448408081018
:102AD0002020408284FC0000001C101010101010F8
:102AE0001010101010101C000000EE445454FE543E
:102AF00054542828282800000070101010101010BE
:102B000010101010101070000030488400000000F9
:102B100000000000000000000000000000000000B5
:102B2000000000000000FE00004020000000000047
:102B30000000000000000000000000000000788499
:102B4000047C84848C7600000000C04040405864BF
:102B50004242424264580000000000000000384435
:102B6000808080804438000000000C040404344C51
:102B7000848484844C3600000000000000007884C7
:102B800084FC808084780000000018242020F82035
:102B900020202020207000000000000000003A44A7
:102BA0004478807C82827C000000C04040405864B1
:102BB0004444444444EE0000000010100000301073
:102BC000101010101038000000001010000030101D
:102BD00010101010109060000000C04040405C4891
:102BE0005060504844EE00000000301010101011EA
:102BF0001010101010390000000000000000ACD2CE
:102C00009292929292D6000000000000000058E4D8
:102C10004444444444EE00000000000000003844F6
:102C20008282828244380000000000000000D864E4
:102C3000424242645840E000000000000000364C70
:102C40008484844C34040E000000000000006C30CA
:102C50002020202020700000000000000000788864
:102C60008460188444780000000000202020F820B0
:102C70002020202024180000000000000000C64290
:102C800042424242463A0000000000000000EE448A
:102C90004428282810100000000000000000EE4426
:102CA0004454542828280000000000000000EE448E
:102CB0002810102844EE0000000000000000EE4440
:102CC0004428281010A0C0000000000000007E442E
:102CD0008810204284FC0000000C101010101060BE
:102CE0001010101010100C00001010101010101008
:102CF000101010101010100000C0202020202018EC
:102D0000202020202020C0000000000000000072D1
:102D10008C000000000000000000000000001FE028
:102D200000003FF000003FF000001FE000018006BF
:102D30000003C00F0003C00F0003C00F0003C00F4B
:102D40000003C00F0003C00F0003C00F0003C00F3B
:102D5000000300030000000000000000000000006D
:102D6000000300030003C00F0003C00F0003C00FE7
:102D70000003C00F0003C00F0003C00F0003C00F0B
:102D80000003C00F0001800600001FE000003FF0BC
:102D900000003FF000001FE0000000000000000005
:102DA0000000008000000180000003800000078018
:102DB00000000780000007800000078000000780F7
:102DC00000000780000007800000078000000780E7
:102DD0000000018000000000000000000000000072
:102DE00000000180000007800000078000000780CD
:102DF00000000780000007800000078000000780B7
:102E000000000780000007800000038000000180B0
:102E100000000080000000000000000000001FE033
:102E200000003FF00000FFF00001FFE0000000069E
:102E30000000000F0000000F0000000F0000000F56
:102E40000000000F0000000F0000000F0000000F46
:102E500000001FE300007FF800007FF800001FE083
:102E6000000300000003C0000003C0000003C00016
:102E70000003C0000003C0000003C0000003C00046
:102E80000003C0000001800000001FF000003FF8B8
:102E900000003FFC00001FFE000000000003FF8058
:102EA0000001FFC00000FFC000007F80000000188C
:102EB0000000003C0000003C0000003C0000003C22
:102EC0000000003C0000003C0000003C0000003C12
:102ED00000007F8C0001FFE00001FFF000007F8018
:102EE0000000000C0000003C0000003C0000003C22
:102EF0000000003C0000003C0000003C0000003CE2
:102F00000000003C0000001800007F800000FFC0AF
:102F10000001FFC00003FF8000000000000000006F
:102F20000002000100030003000380070003C00F3C
:102F30000003C00F0003C00F0003C00F0003C00F49
:102F40000003C00F0003C00F0003C00F0003C00F39
:102F500000031FE300007FF800007FFC00001FE07B
:102F6000000000030000000F0000000F0000000F31
:102F70000000000F0000000F0000000F0000000F15
:102F80000000000F0000000F000000070000000319
:102F900000000001000000000000000000001FFC15
:102FA00000003FF800003FF000001FE0000180003B
:102FB0000003C0000003C0000003C0000003C00005
:102FC0000003C0000003C0000003C0000003C000F5
:102FD00000031FE000007FF800007FF800001FE002
:102FE000000000030000000F0000000F0000000FB1
:102FF0000000000F0000000F0000000F0000000F95
:103000000000000F0000000600003FE000007FF01D
:103010000000FFF00001FFE00000000000001FFCC6
:1030200000003FF800003FF000001FE000018000BA
:103030000003C0000003C0000003C0000003C00084
:103040000003C0000003C0000003C0000003C00074
:1030500000031FE000007FF800007FFC00001FE07D
:10306000000300030003C00F0003C00F0003C00FE4
:103070000003C00F0003C00F0003C00F0003C00F08
:103080000003C00F0001800600001FE000003FF0B9
:1030900000003FF000001FE0000000000007FFE01C
:1030A0000003FFC00001FF880000FF180000003887
:1030B0000000007800000078000000780000007830
:1030C0000000007800000078000000780000007820
:1030D00000000018000000000000000000000000D8
:1030E0000000001800000078000000780000007860
:1030F00000000078000000780000007800000078F0
:10310000000000780000007800000038000000187F
:1031100000000008000000000000000000001FE0A8
:1031200000003FF000003FF000001FE000018006BB
:103130000003C00F0003C00F0003C00F0003C00F47
:103140000003C00F0003C00F0003C00F0003C00F37
:1031500000031FE300007FF800007FFC00001FE079
:10316000000300030003C00F0003C00F0003C00FE3
:103170000003C00F0003C00F0003C00F0003C00F07
:103180000003C00F0001800600001FE000003FF0B8
:1031900000003FF000001FE00000000000001FE002
:1031A00000003FF000003FF000001FE0000180063B
:1031B0000003C00F0003C00F0003C00F0003C00FC7
:1031C0000003C00F0003C00F0003C00F0003C00FB7
:1031D00000031FE300007FF800007FFC00001FE0F9
:1031E000000000030000000F0000000F0000000FAF
:1031F0000000000F0000000F0000000F0000000F93
:103200000000000F0000000600001FE000003FF07B
:1032100000007FF00000FFE0000000000000000060
:10322000000000000000000000000000000000009E
:10323000000000000000000000000000000000008E
:10324000000000000000000000000000000000007E
:10325000000000000000000000000000000000006E
:1032600000000000000000000000000000007800E6
:10327000000078000000780000007800000078006E
:1032800000007800000000000000000000000000C6
:10329000000000000000000000000000000000002E
:1032A000000000000000000000000000000000001E
:1032B00000000000000000000000070000000F8078
:1032C00000000F8000000F800000070000000000D9
:1032D00000000000000000000000000000000000EE
:1032E000000000000000070000000F8000000F80B9
:1032F00000000F8000000700000000000000000038
:1033000000000000000000000000000000000000BD
:1033100000000000000000000000000000000000AD
:1033200000000000000000000007C006000FE006DB
:103330000000000C00301818003018180030183049
:103340000030183000301860003008C00007C0C0DE
:10335000000FE080000000000000000FE000060702
:10336000C000063018000C3018000C30180018305F
:103370001800303018003030180060000000C00F16
:10338000E000C007C00000000000000000000000D6
:10339000000000000000000000000000000000002D
:1033A000000000000000000000000000000000001D
:1033B000000700E0000887FC00088E030008980161
:1033C000800718008000300000003000000070000E
:1033D000000060000000600000006000000060006D
:1033E00000006000000070000000300000003000AD
:1033F000000038000000180100000C03000007FC6A
:10340000000001F0000000000000000000000000CB
:1034100000000000000000000000000000000000AC
:10342000000000000000000000000000000000009C
:10343000000000000000000000000000000000008C
:10344000000000000000000000000000000000007C
:103450000000000000003FF000007FF000007FE06F
:103460000000FFC00000000000000000000000009D
:10347000000000000000000000000000000000004C
:10348000000000000000000000000000000000003C
:1034900000000000000000000000B5E7020002008C
:1034A00002007FF0421042107FF0421042107FF085
:1034B00042000208020801F800000000D7D37FF0A4
:1034C00000200040008001000200FFF8020002001E
:1034D00002000200020002000E0000000000C8AB63
:1034E0000100010002800440082010102FE8C106EE
:1034F000010001001FF00100010001007FFC00003D
:10350000B6AF004000407C40004001FC0044FE4457
:1035100020442044208448844484FD044504022837
:103520000410BCBC10201020102013FEFC20102022
:10353000102015FC18843088D048105010201050EE
:1035400051882606CAF501000120011001107FFCF8
:1035500003800540054009201110210841040102A3
:10356000010001000100D2BA0080404027F811405C
:1035700001408278424816A81AD0235022204220C7
:103580004250028800000000BEA73FE020203FE03C
:1035900020203FE00000FDF885088508FDF885083B
:1035A0008508FDF8850800000000B2E200084F8899
:1035B00028880AA88AA84AA80AA82AA82AA84228C5
:1035C000450884888888103800000000CAD440501C
:1035D000204820400FF80040E04027402240224091
:1035E00022202A2833A82E18000800000000B3CC9F
:1035F00000001BF0E210221023F0F800200033F04E
:1036000068806080A3F02080208027F80000000000
:10361000D0F2020001003FF820002FF020202240CD
:1036200021803FF8208820904080408083800000E7
:103630000000D1D5200010F87E20444028F87E8874
:1036400048A850A864A848A872A88450188861089F
:1036500000000000C9AB100010003FE04040808037
:103660007FF04210421042107FF0400040084008B6
:103670003FF800000000CCEE20802FF8208027F0DB
:10368000F41027F0241027F0241027F03410CFF87E
:103690000220041000000000B3E404000200FFF860
:1036A0000800104020207FF00890088008800880E3
:1036B00010882088C07800000000CEC404000200FA
:1036C0000200FFF81040104008800880050002004A
:1036D000050008803060C01800000000D7D6040044
:1036E0000200FFF8800880083FC00080010002004F
:1036F000FFF80200020002000E0000000000CFD41C
:103700003FE0202020203FE0202020203FE00880D4
:103710004890289028A008800880FFF8000000004A
:10372000CABE00003FE0000000000000FFF80200F9
:103730001240122022104208820802000E000000EF
:103740000000CDBC7FF84008440847C8484854886A
:1037500043084CC8733840884C08430840887FF8B9
:1037600000000000C6AC00802080208020803FF058
:103770002000200020003FC020402040204040404A
:10378000804000000000B4A520403840484091F03F
:103790007D50555055507D5055F054407C4054500C
:1037A00057F88C0800000000C3FE2220222027F8D2
:1037B000FA2027F0241027F03410E7F020802FF8AB
:1037C00021402220EC1800000000CAE44080414063
:1037D000F22044108BE8A000F78824A827A834A87A
:1037E000E7A824A8248825B800000000C8EB08003A
:1037F00004000400020002000500050008800880A3
:103800001040104020204010800800000000C8AB8D
:10381000020002000500088010402020DFD80200CE
:1038200002001FC0020002000200FFF800000000BA
:10383000B3CC00001BF0E210221023F0F8002000AF
:1038400033F068806080A3F02080208027F800009B
:103850000000BCBC208020802080F7F020802080E9
:1038600027E03220E2202140208021402220EC1855
:1038700000000000CAF50200024002200200FFF82A
:1038800007000A800A8012402220421082080200AB
:10389000020000000000D6A702000200FFF80200AC
:1038A00002007FE0102010400880050002000500A3
:1038B00018C0E03800000000B3D62080208023F03C
:1038C000F880208027F828203020E7F820202220C8
:1038D00021202020E0E000000000D7A80200020024
:1038E0007FF004000400FFF8080010003FE0002013
:1038F00000401C800300008000000000D7A20100EF
:103900004080200017F0008080804080008017F009
:1039100010802080208040804FF800000000C5FA11
:10392000204024402440F448245027602440344060
:10393000E4402440244025482648E43800000000A4
:10394000B7A202002220221044007FF804000800E1
:103950000FE0142024404280810006C03838000067
:103960000000B3C900A0009000807FF84080409024
:103970007C90449044A044A0444858A84118820830
:1039800000000000B9A601000100F90023F0211099
:1039900021102110211021103910C2100210041022
:1039A000086000000000D2C60000002000780CE48F
:1039B0007904516810307E6019981A3C2FE448E46D
:1039C0000838003000600000D1A100000120012073
:1039D00003FC62203420042003FC240021B02120B9
:1039E0002220323E18000FE00000D4F10000000059
:1039F00010FC1304110C3DF8703E10D015907CF0B3
:103A0000503E18101BFE023000200000CFEE0000D8
:103A1000000003FE00607C4012FC11041106113608
:103A200011241F44794400C0009C01860000C4BFDB
:103A3000000000000FE03C18200820043E04600451
:103A400060047E046004200C20081FF00180000048
:103A5000B6CC0000080011FC103E3EF82D8C290465
:103A6000490409043E8C50FC10881EC811FC100E3D
:103A70000000B0B400000040006012FE13023A42A1
:103A80007F4410C41BFE3C987190113011A0007847
:103A9000004C0000C8B70000004000F878C41F8C3C
:103AA000313821EC2126413A7DE2272225FA3D26B4
:103AB000012401040000B6A80000010001705FFCB1
:103AC000700420042FF801001100113821C43100C6
:103AD0003F0063E040380000B3A400000000081875
:103AE000086008C00B001E00181C7FF01000118039
:103AF00010E01838098E0F000000B0B4000000403C
:103B0000006012FE13023A427F4410C41BFE3C9830
:103B10007190113011A00078004C0000B7B5000082
:103B2000000007F80600240014F8078C0404240899
:103B3000261825F0647C64C220801FC00000BBD81A
:103B4000000000001FF030182008278C2C44284467
:103B500028442CC427842004300C1FF80380000064
:103B60000000000000000000000000000000000055
:103B70000000000000000000000000000000000045
:103B80000000B4BF000000000000020100063FC0BA
:103B90000C3FE01803001002003336603726203E49
:103BA00066301C643018642031FEE03F1FC01C0CDE
:103BB00000000C000704003E07F00001C0000000F8
:103BC000000000000000000000000000C9AB000081
:103BD0000000000001FE0003E3000703000C0300E7
:103BE0001C3F003BFFC03F30600C30200C30200CED
:103BF00010200C10600FFFC0083F000800000800F4
:103C0000600E3FE007FC0000000000000000000024
:103C1000000000000000CCEE0000000000000003E7
:103C20000000FFE00C07F00C06000CFF803FF0E006
:103C30001FC0600CFE300CCC3004F83004FF2004B0
:103C4000C0201FFE603EC06001FFF001FFF0006079
:103C500060004000000000000000000000000000C4
:103C6000B3E400000000000000200000300007FF67
:103C7000F03FFFE00300000601800C01800801C056
:103C80001807E00FFE7007E00002060006040004BB
:103C900004000404000C06700C07E00000000000A3
:103CA00000000000000000000000B2E20000000080
:103CB000000000003039FC301FCC300706B00F0682
:103CC000F01907B03137B03136F01F27F00167F037
:103CD00001E5F001E1F00041F00CF8B03CD8300013
:103CE0008C30008030000000000000000000000068
:103CF00000000000CAD40000000000000803600CAF
:103D000003700C0330003FE0003F800801003C01DD
:103D100080047F80047D800C00800C10C00C10C0DB
:103D20000C18400C1C600F7E6006703000003000E4
:103D30000000000000000000000000000000CEC4F1
:103D400000000000C00000E00000700001FFE01F64
:103D5000FFC0180100000300000600000E00001C58
:103D6000000E180007300001E00000F00000FC0029
:103D7000018F000303C00201E0000000000000000A
:103D80000000000000000000D7D600000000000086
:103D9000002000003F0031FFE03FC02038003030FD
:103DA000FE2033C660100200000C0000180000184E
:103DB00000000C0007FFE03FFFE0000400000C00E3
:103DC000000C0000000000000000000000000000E7
:103DD0000000CFD400000000000007FF000F03C068
:103DE0000C00401FF8601800600800400E01C0077A
:103DF000FF000000000184000184001987800F8CFF
:103E0000E0078C2000CC0003FFE01FFFC000000093
:103E1000000000000000000000000000CABE00001A
:103E2000000000000E00001FFFC0007FE000000047
:103E3000000000000000000000003FC03FFFE00065
:103E400030000030000030000613000C13C00C18C6
:103E5000F018180018180000000000000000000012
:103E6000000000000000CDBC00000000000007FFC3
:103E7000000F03801CC0C019FC6011C6603306200F
:103E800033E63036FF30301FF030703030FC3033E6
:103E90009F3036002010E060187C400E01C003FF08
:103EA00000003800000000000000000000000000DA
:103EB000C6AC000000000000081800180800180830
:103EC00000180800180C201FFFF01FF80018000051
:103ED00010000010F8001FFE001E03001003001069
:103EE000030010030010030018020000000000008F
:103EF00000000000000000000000CFD4000000001F
:103F0000000007FF000F03C00C00401FF8601800FE
:103F1000600800400E01C007FF000000000184009F
:103F20000184001987800F8CE0078C2000CC0003EF
:103F3000FFE01FFFC00000000000000000000000C4
:103F400000000000CABE0000000000000E00001FBC
:103F5000FFC0007FE0000000000000000000000043
:103F600000003FC03FFFE0003000003000003000A4
:103F70000613000C13C00C18F018180018180000D5
:103F80000000000000000000000000000000B4A5D8
:103F90000000000000000601800FC1801E6180301B
:103FA0004FC020CFE0078D303FC9303379303379AF
:103FB000303FFB3037FF203267E03FE3803FE3C014
:103FC0003263603267F0304FB00000000000000044
:103FD0000000000000000000C3FE00000000000020
:103FE0000030C000FFF00C79C00C1F800C7FE03F58
:103FF000E0600CC0300CFC3004C03007C0301E60E4
:10400000603C3FC0041C00047FE000FFE00030C0C3
:1040100000606000000000000000000000000000E0
:104020000000CAE40000000000000C03800C0FC078
:10403000081C703F70001F9FC0101FC0100000368A
:104040007C3017E6301FE3B0067FB00277F007E35D
:10405000F03F7FF01336F0032630032630000000D7
:10406000000000000000000000000000C8EB00009D
:104070000000000006000003800001C00000E00016
:1040800000700000780000CC0000C600018300032F
:1040900001800700C00600E00C0070180030180016
:1040A00000300000000000000000000000000000E0
:1040B0000000000000000000000000000000000000
:1040C00000000000000000000000000000000000F0
:1040D00000000000000000000000000000000000E0
:1040E00000000000000000000000000000000000D0
:1040F00000000000000000000000000000000000C0
:10410000303132333435363738394142434445460D
:104110004030580030313233343536373839616207
:104120006364656640307800484100080000002064
:10413000380000006C0100088041000838000020B1
:1041400028070000880100080000000001020304A5
:104150000102030406070809020406080000000023
:1041600000000000000000000000000000A24A045F
:104170000000000000000000010203040607080917
:0400000508000131BD
:00000001FF
