:020000040800F2
:10000000A8090020CD0100087D170008350E000862
:1000100079170008F9040008352A000800000000DC
:10002000000000000000000000000000991A000815
:100030009D05000800000000051800080D1D0008BF
:10004000E7010008E7010008E7010008E7010008F0
:10005000E7010008E7010008E7010008E7010008E0
:10006000E701000839080008E7010008E701000877
:10007000E7010008E7010008E7010008E7010008C0
:10008000E7010008E7010008E7010008E7010008B0
:10009000E7010008E7010008E7010008A9080008D7
:1000A000E7010008711D0008E7010008E7010008EA
:1000B000E7010008E7010008E7010008E701000880
:1000C000E7010008E7010008E7010008E701000870
:1000D000E701000869260008F1260008E70100088A
:1000E000C9060008E7010008E7010008E701000869
:1000F000E7010008E7010008E7010008E701000840
:10010000E7010008E7010008E7010008E70100082F
:10011000E7010008E7010008051E0008E7010008E4
:10012000E7010008E7010008E7010008E70100080F
:1001300000F002F800F03AF80AA090E8000C8244BF
:100140008344AAF10107DA4501D100F02FF8AFF29C
:10015000090EBAE80F0013F0010F18BFFB1A43F0A5
:1001600001031847345E0000545E0000103A24BFBB
:1001700078C878C1FAD8520724BF30C830C144BF0C
:1001800004680C607047000000230024002500264E
:10019000103A28BF78C1FBD8520728BF30C148BFEA
:1001A0000B6070471FB51FBD10B510BD00F082F881
:1001B0001146FFF7F7FF02F0F1FF00F0B4F803B4C7
:1001C000FFF7F2FF03BC02F06BFF00000948804715
:1001D00009480047FEE7FEE7FEE7FEE7FEE7FEE729
:1001E000FEE7FEE7FEE7FEE704480549054A064B41
:1001F00070470000111D000831010008A80300200D
:10020000A8090020A8050020A805002070470000CC
:100210000FB4044910B503AA029800F015F810BCF9
:100220005DF814FB38000020704770477047704736
:1002300010B500F01BF8006810BD10B5044600F0C2
:1002400015F8046010BD0000074B70B50D467B44E7
:1002500000F015F80446284600F024F810B14FF0DD
:10026000FF3070BD204670BD2F2F00000048704742
:100270004803002001694A1C02610878704700B5F4
:100280008FB0CDE901310021059105497944CDE9CF
:1002900003101146684600F032F80FB000BD0000B0
:1002A000E5FFFFFF007B00F08000704700487047CB
:1002B000480300207546FFF7F9FFAE460500694682
:1002C000534620F00700854618B020B5FFF78CFF95
:1002D000BDE820404FF000064FF000074FF0000847
:1002E0004FF0000B21F00701AC46ACE8C009ACE8C8
:1002F000C009ACE8C009ACE8C0098D4670472DE9DB
:10030000F04106460024D6E90170F5688046304683
:1003100003E04146B847641C3046A8470028F8D19E
:100320002046BDE8F08110B50446AFF300802046BA
:10033000BDE81040FFF743BF21B1826842F00102DF
:10034000826003E0826822F0010282607047014609
:1003500000208A6802F004020AB1012000E00020B7
:1003600070470146C86C80B270470246002013688F
:100370000B400BB1012000E0002070470146002037
:100380008A6802F008020AB1012000E000207047EC
:1003900030B502460020002350680F4C20400D79F4
:1003A0000C6844EA05242043506090680B4C2040C0
:1003B000D1E902542C434D7944EA4504204390602E
:1003C000D06A20F470000C7C641EE4B2234340EA3F
:1003D0000350D06230BD0000FFFEF0FFFDF7F1FFDB
:1003E000F0B504460D4600200021092D11DDE0681E
:1003F000A5F10A0606EB4607072606FA07F1884329
:10040000A5F10A0606EB460603FA06F10843E0608A
:100410000CE0206905EB4507072606FA07F188433B
:1004200005EB450603FA06F108432061072A0FDAB7
:10043000606B561E06EB86071F2606FA07F18843F7
:10044000561E06EB860605FA06F10843606322E0B5
:100450000D2A0FDA206BD61F06EB86071F2606FA39
:1004600007F18843D61F06EB860605FA06F1084316
:10047000206310E0E06AA2F10D0606EB86071F2656
:1004800006FA07F18843A2F10D0606EB860605FA87
:1004900006F10843E062F0BD816841F00801816027
:1004A000704721B1826842F4A002826003E0826852
:1004B00022F4A00282607047816841F004018160EB
:1004C0007047000008B50121202001F0C9F9102073
:1004D0008DF8030003208DF802000420ADF8000021
:1004E0006946044800F0A4FA0421024800F02BFBFE
:1004F00008BD00000014014000BFFEE700B587B052
:100500000121042001F0ACF90121480201F0A8F911
:100510004FF4004001F078F900208DF81B00032013
:100520008DF81A007020ADF8180006A9184800F0E0
:100530007FFA00208DF8090004904FF460200390AA
:100540000020019001208DF8140000208DF8080093
:1005500001A91048FFF71CFF01210F48FFF7ECFE2F
:100560000D48FFF799FF00BF0B48FFF707FF002872
:10057000FAD10948FFF7A0FF00BF0748FFF7E7FEE1
:100580000028FAD101A90448FFF702FF07B000BD17
:10059000000801400028014000240140704700008D
:1005A00000B587B001211C2001F05AF90121052076
:1005B00001F036F90121084601F052F948208DF882
:1005C0001B0003208DF81A00ADF8180006A93A4860
:1005D00000F02EFAE020ADF8180006A9374800F028
:1005E00027FA0820ADF8180006A9354800F020FACF
:1005F0000521012000F0FCF92020049001208DF855
:10060000160000208DF814000C208DF8150004A8A9
:1006100000F088F90321022000F0EAF90820049094
:1006200004A800F07FF917208DF80C0001208DF848
:100630000F0002208DF80D008DF80E0003A801F0C8
:100640009FF809208DF80C0001208DF80F00022082
:100650008DF80D008DF80E0003A801F091F8002030
:10066000ADF80600ADF802004FF6FF70ADF80400DB
:100670000020ADF800008DF8080069464FF080407A
:1006800001F0B6FC69460F4801F0B2FC02231A469D
:100690000121880701F06AFC02231A46012109485A
:1006A00001F064FC0121880701F054FC0121054898
:1006B00001F050FC07B000BD00080140000C0140F3
:1006C000001001400008004010B5022002F00CFDAF
:1006D0004F48006800BB4F48006808B9012000E09F
:1006E00000204C4908604C48D0F8A001012803D1F3
:1006F00000204A49087002E00120484908700120A2
:100700004749087000BF424800680028FBD04FF4FA
:10071000806000F001F910BD3D48001D006818BB65
:100720003B487C30006808B9012000E000203849CF
:100730007C3108603B48D0F8A401012803D1002097
:100740003949087002E00120374908700120344916
:10075000087000BF2E48001D00680028FAD04FF432
:10076000006000F0D9F8D6E729480830006818BBC7
:1007700027486830006808B9012000E000202449BB
:10078000683108602748D0F89001012803D1002083
:100790002649087002E00120244908700120204900
:1007A000087000BF1A48083000680028FAD04FF4DB
:1007B000805000F0B1F8AEE715480C30006800BB7F
:1007C0001B480078401C1A4908700846007803212D
:1007D00090FBF1F201FB1200401C1649087008461C
:1007E000007801F0DFFE01200D49087000BF0848C5
:1007F0000C3000680028FAD04FF4005000F08CF85C
:1008000089E74FF4705000F087F800BF83E70000DD
:1008100028012242A0012142000021424B00002079
:1008200042000020000022424C0000204D00002029
:10083000200000202100002010B5022002F054FC0E
:100840001548006800BB15480078401C1349087023
:1008500008460078032190FBF1F201FB1200401CD6
:10086000012804D0022806D003280CD107E001207B
:100870000B49088007E005200949088003E00A20A9
:100880000749088000BF00BF012006490870082002
:1008900000F042F810BD00000C0122423700002099
:1008A000240000204200002010B5022002F01CFCB1
:1008B0001548006800BB15480078401C13490870B3
:1008C00008460078032190FBF1F201FB1200401C66
:1008D000012804D0022806D003280CD107E001200B
:1008E0000B49088007E00A200949088003E032200C
:1008F0000749088000BF00BF01200649087020207A
:1009000000F00AF810BD00001481214236000020DA
:1009100022000020420000200149086070470000CA
:1009200014040140002123498279002A3AD00A4662
:10093000126803689A430B461A600A1D126803681E
:100940009A430B1D1A60027911440A6803681A431E
:100950000A60184A0832126803689A43154B083334
:100960001A601A1D126803689A43124B0C331A60FE
:100970004279102A0ED11A1F126803681A430D4BD0
:1009800008331A601A1D126803681A43094B0C33A6
:100990001A600DE00749427911440A6803681A4356
:1009A0000A6005E0027911440A6803689A430A6004
:1009B000704700000004014008B50121082000F044
:1009C0004FFF10208DF8030003208DF802004FF434
:1009D0000070ADF800006946044800F029F84FF4B3
:1009E0000071024800F0AFF808BD0000000C0140A3
:1009F00030B500228B071C0F0F2303FA04F20B4BB8
:100A00008C1053F824309343084C8D1044F8253053
:100A100023468C1053F824308C07240F00FA04F47A
:100A20002343024C8D1044F8253030BD08000140AE
:100A30002DE9F04102460025002600200023002475
:100A4000002791F803C00CF00F0591F803C00CF0DB
:100A5000100CBCF1000F03D091F802C04CEA050560
:100A600091F800C0BCF1000F31D0146800202BE0D9
:100A70004FF0010C0CFA00F3B1F800C00CEA0306C9
:100A80009E4220D183004FF00F0C0CFA03F7BC43B9
:100A900005FA03FC4CEA040491F803C0BCF1280FEA
:100AA00006D14FF0010C0CFA00FCC2F814C00AE0A9
:100AB00091F803C0BCF1480F05D14FF0010C0CFABE
:100AC00000FCC2F810C0401C0828D1D31460B1F853
:100AD00000C0BCF1FF0F34DD546800202EE000F1AF
:100AE000080C4FF0010808FA0CF3B1F800C00CEA4A
:100AF00003069E4221D183004FF00F0C0CFA03F73E
:100B0000BC4305FA03FC4CEA040491F803C0BCF1B1
:100B1000280F05D100F1080C08FA0CF8C2F814806F
:100B200091F803C0BCF1480F07D100F1080C4FF059
:100B3000010808FA0CF8C2F81080401C0828CED32F
:100B40005460BDE8F0814161704701617047000069
:100B500010B504460723012221460948FFF740FC4F
:100B600001210748FFF79DFC00BF02210448FFF761
:100B7000FCFB0028F9D00248FFF7F3FB10BD000092
:100B8000002401402DE9F04107460C4600250026CF
:100B900008E03846FFF7DCFF0544052002F0A4FA20
:100BA000701CC6B2A642F4DBB5FBF4F080B2BDE81F
:100BB000F081000010B504460723012221460948B0
:100BC000FFF70EFC01210748FFF76BFC00BF022175
:100BD0000448FFF7CAFB0028F9D00248FFF7C1FB21
:100BE00010BD0000002801402DE9F04107460C46E9
:100BF0000025002608E03846FFF7DCFF0544052005
:100C000002F072FA701CC6B2A642F4DBB5FBF4F037
:100C100080B2BDE8F08100002DE9F84F0746884614
:100C200093469A46DDF828900097C8F1F0001FFA25
:100C300080F8B3E099F8000080283DDA99F8006068
:100C40000D2E05D1009F08F110001FFA80F830E04A
:100C5000202E03DDA6F1200086B200E0002600244D
:100C600022E000251CE004EB06105049095C8020BE
:100C70002841014041B108EB040291B27A1990B2C7
:100C80005A4600F0CBF809E0D34507D008EB040240
:100C900091B27A1990B2524600F0C0F8681CC5B201
:100CA000082DE0DB601CC4B2102CDADB07F1080071
:100CB00087B209F1010971E0002668E006EB061031
:100CC0003B4911F8100099F8001088425DD106EBFD
:100CD0000610374901EB4000407899F8011088422E
:100CE00053D100244FE0002520E006EB06103049E8
:100CF00001EB4000801C10F81400802129410840BD
:100D000040B108EB040291B27A1990B25A4600F051
:100D100085F809E0D34507D008EB040291B27A19AF
:100D200090B2524600F07AF8681CC5B2082DDCDBA0
:100D3000002524E006EB06101D4901EB4000801C55
:100D4000012101EB4401405C80212941084048B168
:100D500008EB040291B27A19083290B25A4600F0B8
:100D60005DF80AE0D34508D008EB040291B27A1985
:100D7000083290B2524600F051F8681CC5B2082DF6
:100D8000D8DB601CC4B2102CADDB701C86B2322ED6
:100D900094DB09F1020907F1100087B299F800000D
:100DA00000287FF447AFBDE8F88F00009A440008A0
:100DB0000C5200082DE9FE4306460F469046994620
:100DC0000A9C14A103C9CDE9010100208DF8090096
:100DD000002511E00A2094FBF0F100FB11403030B7
:100DE000C5F1040101AA50540A2094FBF0F084B22A
:100DF00004B903E0681CC5B2052DEBDB00BF01A8F8
:100E00004B464246394600903046FFF705FFBDE8A5
:100E1000FE830000202020202020000070B5054621
:100E20000E4614463146284600F05DFC204600F090
:100E300085FC70BD00BFFEE770B541F2342000F0C4
:100E4000B7FE552800D070BD002406E0204600F013
:100E5000AFFE1E490855601CC4B2032CF6DB00240B
:100E60002FE004F5805000F0A3FE254604EBD57179
:100E70004910174A22F81100601CC4B2204604EB46
:100E8000D071491032F811104FF6FF7202EA0121B9
:100E900004EBD07252100E4B23F8121004F5805060
:100EA00000F086FE254604EBD5714910084A32F859
:100EB0001110084404EBD571491022F81100601C90
:100EC000C4B2062CCDDB00BFBDE700002600002029
:100ED0002A00002010B500200F4908600F48006864
:100EE00020F470200D4908600846006840F4403046
:100EF000086000200A49C1F8B001022002F01AF986
:100F0000012005490860022002F014F9002004497C
:100F1000C1F8AC0110BD0000AC0121420408014041
:100F20000000214210B500200F4908600F480068FA
:100F300020F470200D4908600846006840F44030F5
:100F4000086001200A49C1F8B001022002F0F2F85D
:100F5000012005490860022002F0ECF80020044955
:100F6000C1F8AC0110BD0000AC01214204080140F1
:100F70000000214270B5054600241748006820F49F
:100F80007020154908600846006840F40020086099
:100F9000002616E0002011490860022002F0CAF87D
:100FA00001200F49C1F8AC016006040E0B487C38E3
:100FB000006808B1601CC4B2012002F0BBF8701CCC
:100FC000C6B2082EE6DB15B9FFF7ACFF01E0FFF76C
:100FD00081FF204670BD000004080140AC012142A1
:100FE0000000214270B504461548006820F47020C6
:100FF000134908600846006840F44030086000204B
:1010000010490860002517E0E0090E49091D086035
:101010006006040E022002F08DF801200A49C1F892
:10102000AC01022002F086F8002006490860022088
:1010300002F080F8681CC5B2082DE5DB70BD000029
:1010400004080140AC0121420000214210B50F48C4
:10105000006820F470200D4908600846006840F4DC
:101060004030086001200A4908600A49C1F8AC0113
:10107000042002F05FF8002005490860042002F017
:1010800059F800200349C1F8AC0110BD0408014023
:10109000B00121420000214210B50F48006820F441
:1010A00070200D4908600846006840F44030086030
:1010B00000200A4908600A49C1F8B001042002F082
:1010C00039F80120054908600549C1F8B00104203C
:1010D00002F030F810BD000004080140AC012142CC
:1010E0000000214210B500241448006820F470204C
:1010F000124908600846006840F40020086001209A
:101100000F49086002F016F801200E49C1F8AC0141
:1011100002F010F807E0601CC4B2FA2C03DDFFF700
:10112000BBFF012010BD0648803800680028F2D1BE
:101130000349091F086000BFF4E7000004080140EC
:10114000B0012142000021421FB50121102000F012
:1011500087FB0121084600F083FB48208DF80F0033
:1011600003208DF80E004FF47050ADF80C0003A969
:101170002148FFF75DFC0A210220FFF739FC4FF4FC
:101180008060019001208DF80A0000208DF8080091
:101190000C208DF8090001A8FFF7C4FB0B210220E9
:1011A000FFF726FC4FF40060019001A8FFF7BAFB9F
:1011B0000C210220FFF71CFC4FF48050019001A885
:1011C000FFF7B0FB0D210220FFF712FC4FF4005097
:1011D000019001A8FFF7A6FB28208DF80000012050
:1011E0008DF803008DF8010002208DF8020068469A
:1011F00000F0C6FA1FBD00000010014008B5012133
:10120000082000F02DFB4FF47E40ADF800000320D5
:101210008DF8020010208DF8030069460148FFF7A1
:1012200007FC08BD000C014008B501211C2000F09E
:1012300017FB10208DF8030003208DF802004FF4F7
:101240008070ADF8000069461048FFF7F1FB4FF4DD
:101250008070ADF8000069460D48FFF7E9FB40F2E9
:101260001720ADF8000069460A48FFF7E1FB4FF48C
:1012700080710648FFF769FC40F217210548FFF727
:1012800064FC00200449086008BD0000000801401B
:10129000000C0140001001408801224208B500F016
:1012A000EBF8002000F0C4F840A04FF6FF731F22B7
:1012B000EB2100903220FFF7AFFC44A04FF47843BD
:1012C0000022C82100906420FFF7A6FC41A04FF641
:1012D000FF731F22C8210090A020FFF79DFC3EA0B5
:1012E0004FF6FF731F22C8210090DC20FFF794FC0B
:1012F0003AA04EF67D731F22C82100904FF48C70E7
:10130000FFF78AFC37A04EF67D731F22B4210090B0
:101310000020FFF781FC36A04EF67D731F22A0212E
:1013200000900020FFF778FC34A04EF67D731F225A
:101330008C2100900020FFF76FFC33A04EF67D73E8
:101340001F22B42100904FF48C70FFF765FC2EA093
:101350004EF67D731F22A02100904FF48C70FFF792
:101360005BFC2BA04EF67D731F226E210090642043
:10137000FFF752FC26A04EF67D731F226E210090CF
:10138000A020FFF749FC22A04EF67D731F226E219C
:101390000090DC20FFF740FC1FA04EF67D731F225B
:1013A0001E2100906420FFF737FC08BD4D61676E79
:1013B00065746963206669656C642067656E657233
:1013C00061746F722056312E30000000204F43317F
:1013D000200000004F4332004F4333002053746518
:1013E00070000000204672657128487A293A000092
:1013F00020416D706C28782529203A0020437572B1
:1014000072286D4129203A00202020202000000071
:10141000636C6F7365200000506F776572566F6C58
:10142000746167653A202020202020206D5600003E
:1014300030B50446EF2340F23F120021084600F089
:1014400037F94FF400600B4908604010091F08602D
:10145000002506E0201200F0FFFAE0B200F0FCFAEE
:101460006D1CB5F5963FF5D34FF400600149091F97
:10147000086030BD140C014010B5FFF7BFFE00F04E
:1014800003F9112000F064F9002000F043F9CF20A7
:1014900000F05EF9002000F03DF9C12000F03AF9BB
:1014A000302000F037F9ED2000F052F9642000F010
:1014B00031F9032000F02EF9122000F02BF98120E1
:1014C00000F028F9E82000F043F9852000F022F927
:1014D000112000F01FF9782000F01CF9F62000F030
:1014E00037F9012000F016F9302000F013F9002040
:1014F00000F010F9CB2000F02BF9392000F00AF9A8
:101500002C2000F007F9002000F004F9342000F04E
:1015100001F9052000F0FEF8F72000F019F920206D
:1015200000F0F8F8EA2000F013F9002000F0F2F8DB
:10153000002000F0EFF8C02000F00AF9202000F0B1
:10154000E9F8C12000F004F9112000F0E3F8C5200B
:1015500000F0FEF8312000F0DDF83C2000F0DAF871
:10156000C72000F0F5F8A92000F0D4F83A2000F0E8
:10157000EFF8552000F0CEF8362000F0E9F8E8202A
:1015800000F0C8F8B12000F0E3F8002000F0C2F845
:10159000182000F0BFF8B42000F0DAF8002000F0C6
:1015A000B9F8002000F0B6F8F22000F0D1F80020E1
:1015B00000F0B0F8262000F0CBF8012000F0AAF8E7
:1015C000E02000F0C5F80F2000F0A4F8172000F08C
:1015D000A1F8142000F09EF8092000F09BF80C20E0
:1015E00000F098F8062000F095F8432000F092F8FB
:1015F000752000F08FF8362000F08CF8082000F0FD
:1016000089F8132000F086F8052000F083F81020F8
:1016100000F080F80B2000F07DF8082000F07AF848
:10162000E12000F095F8002000F074F81F2000F091
:1016300071F8232000F06EF8032000F06BF80E2004
:1016400000F068F8042000F065F8392000F062F836
:10165000252000F05FF84D2000F05CF8062000F037
:1016600059F80D2000F056F80B2000F053F8332005
:1016700000F050F8372000F04DF80F2000F04AF845
:10168000292000F065F810BD10B54FF480500749CF
:101690000860642001F028FD4FF480500349091FC1
:1016A0000860322001F020FD10BD0000140C014044
:1016B000F0B507460C4615461E462A2000F048F8AD
:1016C000384600F03BF8284600F038F82B2000F0B0
:1016D0003FF8204600F032F8304600F02FF82C207A
:1016E00000F036F8F0BD30B504460D462A2000F073
:1016F0002FF8C4F5A07188B200F020F82B2000F07C
:1017000027F8C5F1F00188B200F018F82C2000F09D
:101710001FF830BD10B504464FF40060064908605C
:101720004010091F0860204600F096F94FF4006051
:101730000149091F086010BD140C014010B5044692
:101740002012FFF7E7FFE0B2FFF7E4FF10BD000053
:1017500010B504464FF40060064908604010086068
:10176000204600F079F94FF400600249091F086033
:1017700010BD0000140C014000BFFEE770470000E0
:1017800070B5002100230F22C47804B3154C2468DF
:1017900004F4E064C4F5E064210AC1F10403CA4022
:1017A000447804FA03F184781440214309010E4C73
:1017B0000678A155047804F01F050124AC40057893
:1017C0006D11AD0005F1E025C5F8004109E0047890
:1017D00004F01F050124AC40044D0678761145F84D
:1017E000264070BD0CED00E000E400E080E100E088
:1017F00002490143024A1160704700000000FA05E7
:101800000CED00E07047000001460020034A5068DC
:1018100020F4404008435060704700000010024030
:1018200029B1064AD2690243044BDA6104E0034A53
:10183000D2698243014BDA61704700000010024018
:1018400029B1064A12690243044B1A6104E0034AB3
:1018500012698243014B1A61704700000010024078
:1018600029B1064A92690243044B9A6104E0034A93
:1018700092698243014B9A61704700000010024058
:1018800029B1064AD2680243044BDA6004E0034AF5
:10189000D2688243014BDA607047000000100240BA
:1018A00030B500210022002400232D4D6D6805F085
:1018B0000C0121B1042905D0082923D105E0294DC7
:1018C000056022E0274D05601FE0254D6D6805F499
:1018D0007012234D6D6805F48034022505EB9242A9
:1018E0001CB9214D554305600BE01D4D6D6805F495
:1018F00000351DB11C4D5543056002E0194D55439F
:10190000056002E0174D056000BF00BF144D6D6813
:1019100005F0F0010909154D6B5C0568DD40456077
:101920000F4D6D6805F4E061090A104D6B5C456868
:10193000DD4085600A4D6D6805F46051C90A0B4DA4
:101940006B5C4568DD40C560054D6D6805F4404140
:10195000890B074D6B5CC568B5FBF3F5056130BDC0
:101960000010024000127A0000093D000000002033
:10197000100000202DE9FC5F82460AF10301C8B285
:101980000521FFF7FFF80090009802F05DF880460F
:101990004FF06632174B02F06BF806460022164BEA
:1019A00001F086FE044601F0A1FD8346584602F090
:1019B00053FA0646114A124B01F0CAFD044601F0E3
:1019C00095FD83460F49584602F0AEFB04460E498A
:1019D00002F076FC01900D49019802F0A5FB064645
:1019E00002F03AFA21F00041044601F0E9FF80B22A
:1019F000BDE8FC9F66660A400000B0401F85EB51C1
:101A0000B81EE13F000020410000C84100007A44B8
:101A10002DE9F0470A210F20FFF7E6F8054640F6CA
:101A2000E44005FB00F4E11704EB1151081302F048
:101A300063FB8246504602F00FFA8046044A054B8B
:101A400002F016F8064601F0BBFF80B2BDE8F08751
:101A500085EB51B81E8518400021082117E000F0E1
:101A6000800222B14FF400420A4B1A6004E04FF4A6
:101A70000042084B1B1D1A604FF40052054B1B1D02
:101A80001A601B1F1A604206100E4A1ED1B20029AE
:101A9000E5DC7047100C0140704710B500F002F80B
:101AA00010BD00000CB50020019000903348006884
:101AB00040F480303149086000BF3048006800F4CD
:101AC000003000900198401C0190009818B90198CE
:101AD000B0F5A06FF1D12948006800F4003010B1D2
:101AE0000120009001E0002000900098012843D1DF
:101AF0002348006840F0100021490860084600684B
:101B000020F0030008600846006840F0020008600A
:101B10001A484068194948600846406848600846C5
:101B2000406840F4806048600846406820F47C10BB
:101B300048600846406840F4E8104860084600687D
:101B400040F08070086000BF0C48006800F0007032
:101B50000028F9D00948406820F003000749486090
:101B60000846406840F00200486000BF03484068F3
:101B700000F00C000828F9D10CBD00000010024054
:101B80000020024008B501210420FFF769FE4FF450
:101B9000C050ADF8000010208DF8030003208DF830
:101BA000020069460148FEF743FF08BD00080140F6
:101BB00070B504460026FFF749FAA020FFF712FA95
:101BC000FFF790FA2012FFF70DFAFFF78BFA254680
:101BD000E11704EB11610912A4EB0121C8B2FFF770
:101BE00001FAFFF77FFAFFF731FAA120FFF7FAF9C0
:101BF000FFF778FA0020FFF7BDF90646FFF74CFA29
:101C0000304670BD70B504460E46FFF71FFAA0209F
:101C1000FFF7E8F9FFF766FA2012FFF7E3F9FFF79D
:101C200061FA2546E11704EB11610912A4EB0121C9
:101C3000C8B2FFF7D7F9FFF755FA3046FFF7D2F9E8
:101C4000FFF750FAFFF728FA0A2001F04DFA70BDAD
:101C500000B587B001211020FFF702FE01218802A4
:101C6000FFF7FEFD4FF40040FFF7CEFD00208DF89A
:101C70001B0003208DF81A002020ADF8180006A9DB
:101C80001648FEF7D5FE00208DF8090004904FF4A9
:101C9000602003900020019001208DF814000020A6
:101CA0008DF8080001A90E48FEF772FB01210C48CF
:101CB000FEF742FB0A48FEF7EFFB00BF0848FEF7BD
:101CC0005DFB0028FAD10648FEF7F6FB00BF04488A
:101CD000FEF73DFB0028FAD107B000BD001001401F
:101CE00000280140042808D14FF0E021096941F0A3
:101CF00004014FF0E022116107E04FF0E021096993
:101D000021F004014FF0E02211617047704700009C
:101D100010B51348006840F00100114908600846FA
:101D20004068104908400E494860084600680E495E
:101D300008400B4908600846006820F480200860CD
:101D40000846406820F4FE0048604FF41F00886099
:101D5000FFF7A3FE4FF000600449086010BD0000CB
:101D6000001002400000FFF8FFFFF6FE08ED00E063
:101D700010B501211B4800F01DF968B301201A4974
:101D800008701A4908701A480078401C18490870F1
:101D9000084600780A2805DB012016490870002053
:101DA0001349087014480078401C1349087008460D
:101DB0000078C82805DB01201049087000200E4972
:101DC00008700F480078401C0D4908700A480078D8
:101DD000282801DB002008700121024800F0B7F834
:101DE00010BD0000002C01404000002041000020F8
:101DF000440000203E000020450000203F0000205D
:101E00004600002010B547480078401C454908703E
:101E10000121454800F0CEF800287DD043480078E5
:101E200001281DD142483F4A1278815C414800F0A8
:101E3000DBF84148007830B10021404800F0D6F886
:101E400000203D490870374800783D4909788842AC
:101E500062DD0020334908700220344908705BE0DD
:101E600032480078022819D1354800782D4A127876
:101E7000801A2F4A115C2F4800F0B6F829480078E4
:101E80002F490978884247DD002026490870032041
:101E90002649087001202B4908703DE0234800784E
:101EA00003281DD122481F4A1278815C234800F084
:101EB0009DF82448007830B100211E4800F094F8C5
:101EC000002020490870174800781D490978884289
:101ED00022DD0020134908700420144908701BE01B
:101EE00012480078042817D1154800780D4A127856
:101EF000801A0F4A115C114800F078F80948007800
:101F00000F490978884207DD002006490870012042
:101F100006490870084908700121034800F017F8C5
:101F200010BD00004E0000200010004047000020BF
:101F30002C01002000340140490000200004004032
:101F4000480000204A000020CA4302827047CA436A
:101F50000282704721B1028842F00102028004E04F
:101F600002884FF6FE731A4002807047F0B50C46A7
:101F700015461E460021002200230189028B038C96
:101F80004FF6F877394021434FF6FC473A4040F28C
:101F900001173A434FF6DD773B404FF6FF7707EAEC
:101FA00006172F433B43018102830384F0BD0146A2
:101FB000888C704730B50246002000230024158A23
:101FC00005EA0103958905EA010413B10CB101206A
:101FD00000E0002030BD1AB183890B43838102E009
:101FE00083898B438381704781867047018770475F
:101FF000002202881D4B98420ED01D4B98420BD0F8
:10200000B0F1804F08D01B4B984205D01A4B984234
:1020100002D01A4B984204D14FF68F731A404B8866
:102020001A43174B984207D0164B984204D04FF6EC
:10203000FF431A40CB881A4302808B8883850B8824
:1020400003850A4B98420BD0094B984208D00E4B9F
:10205000984205D00D4B984202D00D4B984201D1C9
:102060000B7A03860123838270470000002C014015
:10207000003401400004004000080040000C004013
:1020800000100040001400400040014000440140A6
:102090000048014070B5002400BF334A1178204643
:1020A000FFF7B0FD641C304A51782046FFF7AAFDC7
:1020B000641C2D4A91782046FFF7A4FD641C00247F
:1020C0002A4A1588EA1705EB1262C2F3072104F5C4
:1020D0008050FFF797FD641C244A1588EA1705EB2A
:1020E00012621212A5EB0222D1B204F58050FFF762
:1020F00089FD641C1D4A5588EA1705EB1262C2F37C
:10210000072104F58050FFF77DFD641C174A5588B0
:10211000EA1705EB12621212A5EB0222D1B204F506
:102120008050FFF76FFD641C104A9588EA1705EB95
:102130001262C2F3072104F58050FFF763FD641CAF
:102140000A4A9588EA1705EB12621212A5EB0222E1
:10215000D1B204F58050FFF755FD641C552141F2C2
:102160003420FFF74FFD70BD260000202A0000201C
:1021700008B56CA04FF6FF731F22C82100906420A1
:10218000FEF74AFD69A04FF6FF731F22C821009099
:10219000A020FEF741FD67A04FF6FF731F22C82164
:1021A0000090DC20FEF738FD64480078012809D152
:1021B0005CA04FF478430022C82100906420FEF711
:1021C0002BFD19E05D480078022809D157A04FF493
:1021D000FC630022C8210090A020FEF71DFD0BE04B
:1021E00056480078032807D152A01F230022C82197
:1021F0000090DC20FEF710FD5148007848B951A04E
:102200004EF67D731F226E2100906420FEF704FDC0
:1022100008E04EA04FF6E0731F226E21009064206C
:10222000FEF7FAFC4B48007848B946A04EF67D739D
:102230001F226E210090A020FEF7EEFC08E043A0D4
:102240004FF6E0731F226E210090A020FEF7E4FC01
:102250004148007848B93BA04EF67D731F226E219D
:102260000090DC20FEF7D8FC08E038A04FF6E073C1
:102270001F226E210090DC20FEF7CEFC374800883C
:102280004EF67D731F22B42100906420FEF792FD6C
:10229000334800784EF67D731F22A0210090642001
:1022A000FEF788FD2D4840884EF67D731F22B4212D
:1022B0000090A020FEF77EFD294840784EF67D7301
:1022C0001F22A02100900846FEF774FD2348808855
:1022D0004EF67D731F22B4210090DC20FEF76AFDCC
:1022E0001F4880784EF67D731F22A0210090DC20CD
:1022F000FEF760FD1B4800884EF67D731F22B42157
:1023000000904FF48C70FEF755FD174800884EF68C
:102310007D731F22A02100904FF48C70FEF74AFDC0
:1023200008BD0000204F433120000000204F433201
:1023300020000000204F4333200000002100002037
:102340004B000020636C6F7365200000204F7065A8
:102350006E2000004C0000204D0000202A000020CC
:1023600026000020220000202400002070B5044632
:102370003B480088844235DA39490988081B00EB5C
:10238000D071C1F34F0536480480142D00DD70BDB7
:1023900034480078401E3449085C3449098805FBFC
:1023A0001100C1B22F480078401E2F4A11542D4809
:1023B0000078401E1146085C0B2805DA0B212948DD
:1023C0000078401E115434E026480078401E26490B
:1023D000085C63282DDD0B2122480078401E224A2C
:1023E000115426E01E490988601A00EBD071C1F330
:1023F0004F051B480480142D00DDC8E719480078FC
:10240000401E1949085C1949098805FB0100C1B241
:1024100014480078401E144A115412480078401E97
:102420001146085C632804DD63210E480078401ED5
:10243000115401200E4908700E49087009480078AF
:10244000401E094B1A5C07480078401E0A4B33F8BF
:1024500010100448007800F077FA00BF97E70000FA
:102460001E00002021000020260000202400002063
:1024700042000020430000202A00002070B50446DE
:102480004148008884423DDA3F490988081B00EB37
:10249000D071C1F34F053C480480142D00DD70BDA0
:1024A0003A480078401E3A4931F810003949098805
:1024B00005FB110081B235480078401E344A22F8ED
:1024C000101032480078401E114631F81000642880
:1024D00006DA64212D480078401E22F810103DE0F5
:1024E0002A480078401E2A4931F8100040F2DC5199
:1024F000884233DD642125480078401E244A22F8B2
:1025000010102BE020490988601A00EBD071C1F34C
:102510004F051D480480142D00DDC0E71B480078DE
:10252000401E1B4931F810001A49098805FB0100BB
:1025300081B216480078401E154A22F81010134840
:102540000078401E114631F8100040F2DC518842FC
:1025500004DD0E480078401E22F8101001200E49BC
:1025600008700E49087009480078401E0C4B1A5C30
:1025700006480078401E064B33F8101003480078D8
:1025800000F0E2F900BF8AE71A00002021000020D5
:102590002A000020220000204200002043000020EA
:1025A0002600002001280AD10021124A11600121D1
:1025B000114AC2F884110F4A083A116019E0022842
:1025C0000BD101210B4A116000210B4AC2F8841182
:1025D0000121084A083A11600BE0032809D10121C2
:1025E000044A1160044AC2F884110021014A083AE1
:1025F0001160704788012242000022421FB501216C
:10260000C802FFF72DF93120ADF8080041F61F4050
:10261000ADF804000020ADF80A00ADF806008DF812
:102620000C0001A90F48FFF7E3FC19208DF800000A
:1026300001208DF8030000208DF801008DF80200C4
:102640006846FFF79DF801210648FFF77DFC01224F
:1026500011460448FFF7BFFC01210248FFF77AFC4E
:102660001FBD0000002C014010B540F225511D484F
:1026700000F0A8F810B31B4800F060F9C4B21A4883
:10268000008800F40040C8B91748008800F4804072
:1026900060B10A2C03D000201349088020E01248C2
:1026A000008840F400401049088019E00D2C06D144
:1026B0000D48008840F480400B49088010E00A482B
:1026C0000088C0F30D0009490C5407480088401CDD
:1026D0000549088008460088C72801DD00200880D9
:1026E00010BD0000003801403C00002064000020C4
:1026F00010B540F22551054800F064F820B10348B8
:1027000000F01CF9C4B200BF10BD0000004400403E
:1027100021B1828942F40052828104E082894DF61F
:10272000FF731A408281704710B5044620488442E6
:1027300009D101218803FFF7A3F800214FF480405D
:10274000FFF79EF832E01B48844209D1012148047A
:10275000FFF776F800214FF40030FFF771F825E01D
:102760001548844209D101218804FFF769F8002146
:102770004FF48020FFF764F818E01048844209D134
:102780000121C804FFF75CF800214FF40020FFF797
:1027900057F80BE00A48844208D101210805FFF7E9
:1027A0004FF800214FF48010FFF74AF810BD0000E9
:1027B000003801400044004000480040004C004008
:1027C0000050004070B50246002400230025002080
:1027D00040F66A16B14200D100BFC1F3421501F0C4
:1027E0001F03012606FA03F3012D02D19689334017
:1027F00006E0022D02D1168A334001E0968A33406A
:102800000C12012606FA04F41688344013B10CB1F8
:10281000012000E0002070BDF0B503460024002632
:102820000025002040F66A17B94200D100BF1846C3
:10283000C1F3421401F01F06012707FA06F5012C27
:1028400001D10C3004E0022C01D1103000E0143032
:102850001AB107682F43076002E00768AF430760BB
:10286000F0BD00002DE9F04786B005460E46002475
:10287000A24600BFA1460027B08900B100BF2F4685
:102880002C8A4CF6FF700440F08804432C82AC89FB
:102890004EF6F3100440B08831890843718908432B
:1028A0000443AC81AC8A4FF6FF400440B089044336
:1028B000AC8201A8FEF7F4FF1F48874202D1DDF881
:1028C00010A001E0DDF80CA0A88900F4004040B1A0
:1028D0000AEBCA0000EB0A1031684900B0FBF1F8BE
:1028E00007E00AEBCA0000EB0A1031688900B0FB70
:1028F000F1F86420B8FBF0F004012009642101FB29
:102900001089A88900F4004040B1322000EBC900D2
:10291000B0FBF1F000F00700044308E0322000EBC8
:1029200009106421B0FBF1F000F00F0004432C818A
:1029300006B0BDE8F08700000038014001468888F5
:10294000C0F30800704700002DE9F04F8FB08146BA
:102950000D469246642D03DB40F2DC50854202DDD9
:102960000FB0BDE8F08FBAF1630F00DDF8E74EF667
:10297000602191FBF5F0C11700EB9171C1F38F0657
:10298000CAEB0A11C80001F0B7FB0746244901F061
:10299000F1FA8346B9F1010F01D122490E700024EA
:1029A00039E0304601F050F8CDE90401204601F04D
:1029B0004BF807461C4A1D4B01F05AF800224FF015
:1029C0008043CDE9000100F073FECDE90201DDE9AD
:1029D000042300F06DFECDE9060100F0E3FCCDE933
:1029E0000A01584601F038FACDE90801DDE90A2369
:1029F00001F03EF8CDE90C0100F0E2FFC1B2A9F10F
:102A00000100C0EB001000EB4000094A02EB80001F
:102A10000155601CC4B2B442C3DB00BFA0E7000094
:102A20000000C842480000202BE74130FD2109404A
:102A30002C01002000BFFEE7490050EAC12018BF6A
:102A400004204A0D18BF40F0010040F2FF72B2EBC3
:102A5000515F08BF40F00200012808BF0520704701
:102A60002DE9F74F144694B00021C4E902111599DD
:102A7000079121F00045C9498D4206DC1599C4E94A
:102A8000000117B00020BDE8F08FC549DFF814A39E
:102A9000A9423CDD0799C44E0029C44FC44A159988
:102AA000534619DD01F0EEF8554506D0C14AC24B38
:102AB00001F0E8F8C4E900010AE04FF0D352BE4B40
:102AC00001F0E0F832463B4601F0DCF8C4E90001D1
:102AD00017B00120BDE8F08F00F03AFD554506D053
:102AE000B44AB54B00F034FDC4E900010AE04FF0F0
:102AF000D352B14B00F02CFD32463B4600F028FD8E
:102B0000C4E9000117B04FF0FF30BDE8F08FAB49CA
:102B1000A942159978DB21F0004183468846A84AEE
:102B2000A84B00F0A5FF0022A74B00F011FD00F01C
:102B300017FF099000F071FF06460F469C4A534666
:102B400000F096FF43465A4601F090F880468A46C8
:102B5000984A994B3046394600F08AFF2A0D0125E4
:102B60000B924246534601F081F8032DC4E900015F
:102B700039D00B98C1F30A51401A05EB45111139B0
:102B8000814230DA9148C346784400EB0510CDF815
:102B90000CA00C90D0E900233046394600F068FFC5
:102BA00002460B46049106905846039901F06AF8D4
:102BB00080468A4602460B465846039901F062F861
:102BC000049B069A01F05EF883460C9803913946FF
:102BD000D0E90223304600F04BFF5A46039B01F038
:102BE00051F86D1CBDE707980028A2BF099817B0DF
:102BF000BDE8F08F616881F000416160099817B00D
:102C00004042BDE8F08FFFE784461598C1F31301F9
:102C1000C0F30A50A0F2F5304FEA601800F01F062A
:102C2000C6F12000139000200690079041F4801E0A
:102C300005206D4676B1664A08EB00017A4452F8E9
:102C4000213002EB8101B3404A68139922FA01F165
:102C5000194305E05F4908EB0002794451F822105E
:102C6000A1FB0E27A1FB0C131A449A4234BF012387
:102C7000002303EB070A05EB8003D3E901B70F44F8
:102C80008F4234BF0121002193448B4411B19345FD
:102C900002D903E0934501D2012100E00021C3E9FC
:102CA00001B7514445F82010011EA0F10100C1DC1C
:102CB0000298059F00F10050800F12900298DDE904
:102CC0000356800000F0A9FE834628460D9100F0CF
:102CD000BBFE6FF01D0201F09AFBCDE90E013046FC
:102CE00000F0B2FE6FF03D0201F091FB80468A4693
:102CF000384600F0A9FE6FF05D0201F088FB074640
:102D000042465346119100F023FCDDE90E2300F00A
:102D10001FFC5A460D9B00F01BFC00250E465A4630
:102D200028460D9B00F0AEFFDDE90E2300F0AAFF60
:102D30004246534600F0A6FF3A46119B00F096FF2C
:102D4000DFF898A0244A534600F092FE07468846D2
:102D5000234A244B3146284600F08AFE3A46434631
:102D600000F0F6FB074688464FF0A842534631462E
:102D7000284600F07DFE3A46434600F0E9FB159AEE
:102D800012F0004F04D0129A81F000415242129288
:102D9000C4E90001129817B0BDE8F08FFB21E93FAC
:102DA0007CD90240FB21F93F7370032E8A19A33BA3
:102DB000000040543163621A61B4D03DFB213941B7
:102DC00083C8C96D305FE43F0000E03F1C33000062
:102DD000983200007A320000182D4454FB21F93D4E
:102DE0003326A611460B113C2DE9FF4D21F000487A
:102DF00007460C46B8F1795F08DA00F0B1FD00280B
:102E000001BF0020324904B0BDE8F08D3A462346A8
:102E10001046194600F02CFE054602462D480E4687
:102E20000B460621784400F05DF82A46334600F050
:102E30001FFEDDE9022382468B463846214600F01C
:102E400017FE04460F4652465B462846314600F0C0
:102E50000FFE22463B4600F015FF07468A464FF01C
:102E6000FF322846314601F0D2FA1B4A90450ADA71
:102E70003A46534600F006FF04B00022BDE8F04D8C
:102E8000134B00F0F3BE154A4245A8BFA8F5001544
:102E90004FF00004B8BF124D22462B4600F0F2FE60
:102EA0000646884622462B460020094900F0EAFEE5
:102EB00004460D463A4653463046414600F0E2FE8F
:102EC00004B022462B46BDE8F04D00F0CFBE000016
:102ED0000000F03F503000003333D33F0000E93FA3
:102EE0000000D23F2DE9F0414F1E00EBC701044620
:102EF000D1E9000115461E4637F006020DD02A46DC
:102F0000334600F0B5FD7F1E04EBC703D3E9002371
:102F100000F01EFB37F00602F1D1022F25D0042F5E
:102F200013D0062F18BFBDE8F0812A46334600F0C3
:102F30009FFDD4E90A2300F00BFB2A46334600F03C
:102F400097FDD4E9082300F003FB2A46334600F03E
:102F50008FFDD4E9062300F0FBFA2A46334600F041
:102F600087FDD4E9042300F0F3FA2A46334600F043
:102F70007FFDD4E9022300F0EBFA2A46334600F045
:102F800077FDD4E90023BDE8F04100F0E1BA00008C
:102F90002DE9FF4D054621F0004084B00C46B0F10C
:102FA000795F0BDA2846FFF747FD042808BF00F0D9
:102FB0006FF8284608B02146BDE8F08D2A460B463A
:102FC000104600F055FD06460F462A46234600F0FF
:102FD0004FFD804626488A4632463B4605217844C6
:102FE000FFF780FF83461098029160B3214A224B7D
:102FF0004046514600F03CFDCDE900015A464046AE
:103000005146029B00F034FD82468846DDE9060108
:103010004FF0FF3201F0FBF95246434600F032FE1A
:1030200032463B4600F024FDDDE9062300F02AFE8F
:10303000DDE9002300F026FE08B02A462346BDE85D
:10304000F04D00F013BE0B465A463046394600F0AC
:103050000FFD084A084B00F07BFA4246534600F049
:1030600007FD08B02A462346BDE8F04D00F070BACF
:103070008E2F0000495555555555C5BF012201F009
:10308000C6B9002213461046114600F011BB0000DD
:10309000024A0020110701F0BAB9000001FDFFFF4C
:1030A00000BF704710B56FF00400FEF71BFE0A4822
:1030B00000680A49B0FBF1F0094908700846007839
:1030C00000EB4001C1EBC0104FF6FF7101EAC000F8
:1030D0000449088010BD00005000002000127A0052
:1030E00014000020160000200146114A12884A43AD
:1030F0004FF0E0235A6100229A611A46126942F0A9
:1031000001021A6100BF4FF0E022106900F00102D5
:103110001AB100F48032002AF5D04FF0E022126993
:1031200022F001024FF0E0231A6100229A617047F9
:10313000160000200146114A12784A434FF0E0235E
:103140005A6100229A611A46126942F001021A611C
:1031500000BF4FF0E022106900F001021AB100F444
:103160008032002AF5D04FF0E022126922F00102ED
:103170004FF0E0231A6100229A617047140000208A
:1031800000BF054A128802F04002002AF9D0C2B2FC
:10319000014B1B1D1A8070470038014008B5FFF72E
:1031A00081FF4FF4E060FEF723FB4FF4165000F070
:1031B00049F9FDF7F5F9FFF721FAFEF76FF8FDF78A
:1031C0009DF9FEF745FDFDF7BFFFFEF72DF8FDF772
:1031D00079F9FDF7F1FBFEF7D5FCFDF72DFEFEF7C3
:1031E000C7FF52480078401E514B1A5C4F48007888
:1031F000401E504B33F810104C480078FFF7A4FBEA
:1032000093E04D48006808B9012000E000204A49D9
:1032100008604FF4FA70FFF767FF4848007878B30A
:103220000020464908700120FEF7A4FB44490880AD
:103230000220FEF79FFB424948800320FEF79AFBDD
:103240003F498880084600884EF67D731F228C21F6
:1032500000906420FDF7AEFD394840884EF67D733E
:103260001F228C210090A020FDF7A4FD3448808807
:103270004EF67D731F228C210090DC20FDF79AFD15
:103280003048007890B100202E490870FEF7C0FB4E
:1032900004464FF6E0731F221E21D2200094FDF752
:1032A00089FD072C02DA28A0FCF7B2FF3448007829
:1032B00030B100203249087001201F49091D086003
:1032C0003048007820B100202E490870FEF7E2FE59
:1032D0002D48007808B300202B4908702B48FEF7D2
:1032E00066FE2B490880084600882A4909888842DA
:1032F00003D027480088FFF7C1F84FF08040FEF761
:1033000056FE2549088008460088244909888842D5
:1033100003D021480088FFF729F82148007820B120
:1033200000201F490870FEF723FF6AE721000020F4
:10333000260000202A000020A08121424000002019
:10334000300000203F000020092A2A2A2A2A2A2A9F
:103350002A2A2A2A2A2A2A2A2A2A09204572726F08
:1033600072203A506F776572204661756C7421093E
:103370002A2A2A2A2A2A2A2A2A2A2A2A2A0D0A0014
:103380003E000020430000204100002000080040D3
:10339000180000201A0000201C0000201E00002041
:1033A0004200002000B5254B21F0004287B09A4230
:1033B00003DC0022134600922BE0214B9A4208D1F5
:1033C00040B94FF00100FCF738FFFFF75AFE07B095
:1033D00000BD03DBFFF752FE07B000BD02AAFFF7F6
:1033E0003FFB10F003014FF001000DD0012914D074
:1033F00002291AD00DF1080C9CE80F00FFF7F4FC2D
:1034000007B081F0004100BD0DF1080C00909CE870
:103410000F00FFF7BDFD07B000BD0DF1080C9CE8E3
:103420000F00FFF7E1FC07B000BD0DF1080C0090A4
:103430009CE80F00FFF7ACFDE2E70000FB21E93F4D
:103440000000F07F10B586B00446012144F204006C
:10345000FEF706FA2348FFF767F94FF40070ADF85E
:10346000140003208DF8160018208DF8170005A908
:103470001D48FDF7DDFA4FF48060ADF8140004201C
:103480008DF8170005A91848FDF7D2FA25208DF808
:10349000000003208DF801008DF8020001208DF856
:1034A00003006846FEF76CF901940020ADF80800AF
:1034B000ADF80A00ADF80C00ADF810000C20ADF826
:1034C0000E0001A90748FFF7CDF9012240F225516E
:1034D0000448FFF7A1F901210248FFF719F906B0E6
:1034E00010BD0000003801400008014021F00042FA
:1034F000A2F16052B2F5801F01F0004328BFD2F163
:103500007F6C0BD95FEA001C43EAC20242EB5070A9
:1035100018BF704728BF20F001007047B2F5801F28
:10352000BCBF184670474FEA410C1CF5001F02D281
:10353000084600F0C0BE70B500F044FB00000089F2
:10354000FFF7F6BF4FF00040A0F580007047000085
:1035500010B591EA030F48BF83F0004300F19A834E
:10356000841A71EB030C05D2121943EB0C03001BF8
:1035700061EB0C01DFF824E14FEA1154A4EB135C7A
:103580001EEA430F18BF9EEA445F73D023EA0E037E
:10359000DCF1200E21EA045143F4801332D322FAE5
:1035A0000CFE10EB0E0023FA0CFE41EB0E01CCF1E9
:1035B000200E03FA0EFE10EB0E0051F10001B1F5E2
:1035C000801FCCF1200E32D201EB045112FA0EF220
:1035D000BDE8104058BF7047401C38BF5FEA420248
:1035E00018BF7047002814BF20F0010041F100010E
:1035F0004FEA410313F5001F38BF7047A1F1C041E6
:1036000000F02EBB012A43EB0302ACF1200CDCF1ED
:103610001F0E32BF4FF0000E23FA0CF310EB030025
:1036200041EB0451B4EB115FD0D0A1EB045101F593
:10363000801149085FEA300001EB04510ED350F1CC
:10364000000038BF12FA0EFE08D1BDE81040C9E7ED
:10365000401C38BF5FEA4202CAD1C3E7BDE8104050
:103660004FEA410313F5001F38BF7047A1F1C04175
:1036700000F0F6BA9EEA445F08D011EA5E0FBDE89A
:10368000104004BF01F0004100207047BDE8104029
:1036900070B500F097FA00BF64FBBE3E0000E0FF8B
:1036A00002494FF0000000F080BE00BF0000F87F2C
:1036B0002DE9C04130B4DFF8A0C23CEA111418BFB4
:1036C0003CEA131400F0EC8081EA03051CEA1114B3
:1036D00044EAD57418BF1CEA131500F0C780A4EBA8
:1036E00005044FF0004545EAC12145EAC32341EAFC
:1036F000505143EA525304F17F74994204F5003467
:103700004FEAC0204FEAC22208BF904200F09C80DE
:103710004FEA13650FF24016765D4FEA134506FB3C
:1037200005F7C7F1807706FB07F74FEAD737A7FB06
:1037300003687642C8F58038A7FB06CE38BFA8F1EB
:10374000010807FB08E64FF0000EA6FB028CE6FB23
:1037500003CEDCF1000CCEF1004E38BFAEF1010E0D
:10376000A6FB0C584FF000074FF00005E6FB0E8754
:10377000A1FB08C6A0FB07CE16EB0E0645F100051F
:10378000E1FB076515F1E04E7EBFA4F580345FEAEA
:1037900046066D4116F1800745F100054FEA1727EF
:1037A0004FEA066647EA0567A6F1DE46B6F1805F96
:1037B0004FEA15251FD9384624F0010C05EBC471DA
:1037C000BCF1FE6F01EB0C1102D8F0BCBDE800812A
:1037D00024425CBF01F5801E9EEAC47F02D4F0BC87
:1037E000BDE80081244238D4F0BCA1F1C041BDE85D
:1037F000004100F035BA4FEAD22242EA43524FEA82
:10380000D323A7FB02864FEAD02040EA415007FBB2
:1038100003661EEA0E0F4FEAD12105FB026658BF70
:10382000A6EB0056B6EB00564FEA520E4EEAC37EA8
:1038300018EB0E0E56EB530EBDD518EB02085E4189
:103840007F1C55F10005B6E74FF480154FF00007D7
:103850004FF000064FF00008ADE7F0BC4FF000005D
:1038600001F1C04101F00041BDE8008111EA0C1FE7
:103870000CEA131500D00CE013EA0C1F00F02580B1
:103880004FF00000F0BC81EA030101F00041BDE807
:103890000081F0BCBDE8004181EA030100F0E0B91D
:1038A000F0BCBDE8004170B500F08CF9097EFC3E2B
:1038B00000F007B881EA03014FF0000001F0004179
:1038C000704781EA030100F0CBB9F0BCBDE80041CC
:1038D0004FF0000021497047FFFDFBF9F7F5F4F2C6
:1038E000F0EEEDEBE9E8E6E4E3E1E0DEDDDBDAD89B
:1038F000D7D5D4D3D1D0CFCDCCCBCAC8C7C6C5C4F9
:10390000C2C1C0BFBEBDBCBBBAB9B8B7B6B5B4B30F
:10391000B2B1B0AFAEADACABAAA9A8A8A7A6A5A4FA
:10392000A3A3A2A1A09F9F9E9D9C9C9B9A999998BE
:103930009797969595949393929191908F8F8E8E61
:103940008D8C8C8B8B8A89898888878786858584EE
:1039500084838382828181800000FF070000F87FDA
:103960004FEA41034FEA5353A3F58063D3F11E039B
:10397000C8BFD3F1210C0CDD4FF0004242EAC12256
:1039800042EA505232FA03FC8CEAE17CACEBE17083
:103990007047102BC4BF0020704703F5787CBCF142
:1039A000FF3F04D06FF0004282EA2100704770B5FB
:1039B00000F008F94992248000207047F2E70000E7
:1039C0004FEA1153A3F58063D3F11E03A8BFD3F1CF
:1039D000200C08DB4FF0004242EAC12252EA50526A
:1039E00032FA03F0704709420BD4102BC4BF0020F9
:1039F000704703F5787CBCF1FF3F05D04FF0FF30F6
:103A000070474FF00000704770B500F0DBF800BF62
:103A10004992248000207047F0E710F0004248BF30
:103A20004042B0FA80F310FA03F10AD0C3F11D034B
:103A300003F580634FEA415002EB035202EBD121C0
:103A400070474FF000007047B0FA80F310FA03F1AE
:103A50000AD0C3F11D0303F580634FEA41504FEADA
:103A6000035202EBD12170474FF000007047000075
:103A7000DFF848C170B51CEA111E1EBF1CEA131501
:103A80009EEA0C0F95EA0C0F00F06F8081EA0304A8
:103A900023EA4C134EEAD47E21EA4C1141F4801102
:103AA00043F48013AE44A1FB024CA0FB0365AEF1CE
:103AB0007F7E361955EB0C05A1FB034C4CF100033E
:103AC000A0FB021C16EB0C06654153F100030942F2
:103AD00018BF46F0010613F4007F0BD14FEA033103
:103AE0004FEA0530340341EA155140EA16506FF0B1
:103AF00003020AE04FEAC3214FEAC520F40241EA7B
:103B0000555140EA56506FF0020202EB2E4201EB93
:103B1000025585EACE710AD05FEA440C18BF24F042
:103B2000004450F1000041F1000120EAD47040F25D
:103B3000FE7C624500D270BDA84214BF4FF08044A5
:103B40004FF04044002E08BF0024BEF1806FA8BF94
:103B5000A1F1C041BDE8704080F282804FF00000CA
:103B600001F1C04101F0004170479EEA0C0F0CEAE0
:103B7000131518BF95EA0C0F06D04FF0000081EA2C
:103B8000030E0EF0004170BD00F01CF88900013EEC
:103B900000F007B800F009B84FEA430C5FEA5C5C3C
:103BA00008D081EA030100F05BB84FEA410C5FEAFC
:103BB0005C5CF6D14FF00000014970470000FF0740
:103BC0000000F87F0EF1020E2EF0030E5EF8046B7B
:103BD000364205D4012A43EB030515F5001F12D820
:103BE000012841EB010C1CF5001F0CD80ED14FEA47
:103BF000D17C15F5001F0CEB4C0C0CF1020C08BF2E
:103C00004CEBD37C04E04FF0080C01E04FEAD37C8E
:103C10000CEB4C0526FA05F606F00706B6F1040C87
:103C200006D20EEB860CBDE870404CF0010C6047EC
:103C3000DFE80CF0090B02024FF000414FF00000EA
:103C4000A1F5002170BD19461046012851EB010471
:103C500018BFD4F5001484BF002001F0004170BDEE
:103C60000808A0F500114FEA3101704791EA030FEF
:103C700010B581F000413FF573AC83F0004300F0D4
:103C800009B8000010B591EA030F48BF83F0004364
:103C90003FF566AC841A71EB030C07D212198CF055
:103CA000004C43EB0C03001B61EB0C01DFF8A4E1BB
:103CB0004FEA1154A4EB135C1EEA430F18BF9EEAAF
:103CC000445F00F0B08023EA6E03524221EA0451BF
:103CD000C3EB6E0338BF5B1EDCF1200E25D322FA46
:103CE0000CFE10EB0E0043FA0CFE41EB0E01CCF182
:103CF000200E03FA0EFE10EB0E0051F10001CCF184
:103D0000200E29D412FA0EF201EB0451BDE8104046
:103D100058BF7047401C1CBFB2F1004F70470028CD
:103D20000CBF491C20F00100704712EB020E43EB60
:103D3000030218BF4FF0010E4EEA4202ACF1200C14
:103D4000DCF11E0E54D943FA0CFE10EB0E0051F1BB
:103D5000FF31CCF11E0ED5D50EF1010E12FA0EFE7A
:103D6000404141EB010101EB445C5FEA5C5C10D92E
:103D700010EBDE7001EB045138BFBEF1004FBDE81F
:103D8000104018BF704700280CBF491C20F00100EC
:103D9000704730D24FEAD42C11F5001124F400649E
:103DA0001BD0B1FA81F20B3AA41AA41ED2F120035F
:103DB000914030FA03F31943904001EBCC71002C91
:103DC00001EB0451BDE81040A8BF704701F1C041AC
:103DD0004FF0000001F000417047B0FA80F310FA94
:103DE00003F100D110BDE41A173C4805C90AE4E705
:103DF00001EB045110BD491001EB0451BDE8104026
:103E00004FEA300002E04FF0000170474A0008BF5F
:103E10000042F8D0B2F5001F28BF704701F0004102
:103E20004FF0000070479EEA445F07D011EA5E0F32
:103E3000BDE8104004BF002100207047BDE81040DD
:103E400070B5FFF7BFFE00BF40DFF63E83F00041D4
:103E5000104670470000E0FF43004FEAD30C4FEAE2
:103E60003C0C43401FBF40070CF1605113F0FE4F64
:103E700070471CF0006F03D100200CF00041704728
:103E80000CF0004343EA507010B540EACC0000F05B
:103E9000CCF900BF000000924FEA0001FFF7E0BE3E
:103EA0004FF000414FF00000A1F5002170470000E5
:103EB00090EA010F48BF81F0004100F10882421AE8
:103EC0003CBF801A89184FEAD0524FF07F4C1CEA51
:103ED000410FA2EBD15318BF9CEA026F00F03B8068
:103EE0004FF0004C4CEA00204CEA012121FA03FC7F
:103EF00010EB0C0C1ED202F1FF325FEA1C2040EBEB
:103F0000C25038BF70471CF07F0F4FEA400C18BFFB
:103F1000BCF17F4F38BF7047C3F12003994008BF01
:103F200020F00100BCF17F4F38BF7047A0F1C040C6
:103F300000F0C1B94FEA3C00000A40EBC25028BF74
:103F40001CF0FF0F4FEA400CE6D018BFBCF17F4FCA
:103F500038BF7047EAE79CEA026F05D010EA5C0FB1
:103F600008BF00F00040704710B500F05EF900BFD8
:103F700064FBBE3E4FF47F0C1CEAD0121EBF1CEA4D
:103F8000D11392EA0C0F93EA0C0F00F0858090EAAF
:103F9000010F48BF42F4807240F4000C41F400006D
:103FA0002CF07F4120F07F4000B58142A2EB03025C
:103FB0000FF2081CACEB504EC0F100009EF800E080
:103FC0004FEA4E0E00FB0EFC38BF49004FEA2C1C96
:103FD00002F5FA020CFB0EF34FEACE1E4FEA112C4B
:103FE0004FEAC1210EEB635E42EB22420EFB0CFC5A
:103FF0004FEA1C5300FB03114FEA112C4FEA013129
:104000000EFB0CFC4FEADC4C00FB0C11C14228BF3C
:1040100009184CEB03335DF804EB10EB410143EB63
:10402000C250B2F57C0F38BF704729D512F0F00F9F
:104030001CBF00F1C04000F0004070470081828347
:104040008485868788898B8C8D8E8F9192939596A7
:1040500097999A9C9D9FA0A2A3A5A7A8AAACAEB031
:10406000B2B3B5B7B9BCBEC0C2C5C7C9CCCED1D436
:10407000D7D9DCDFE2E6E9ECF0F3F7FAFE00000066
:104080004FEA400C0CF1807CBCF17E4F28BF70479A
:10409000B0F1C04000F00FB990EA010F0CEAD11363
:1040A00048BF42F48072624538BF634507D213F4BB
:1040B0007F0F16D080EA010000F00040704710B575
:1040C00000F0B3F8097EFC3E00F005B880EA01007C
:1040D00000F00040704780EA010000F0004000F06E
:1040E000EAB812F47F0F04BF0248704780EA01006B
:1040F00000F0E1B80000C07F10F0004148BF40422E
:10410000B0FA80F310FA03F2C3F19D030BD051EA29
:10411000C35101EB1220530638BF704700F1010074
:1041200008BF20F0010070474FF47F0C1CEAD0124A
:104130001EBF1CEAD11392EA0C0F93EA0C0F00F099
:10414000478090EA010F48BF42F480724FF0004C64
:104150004CEA00204CEA012102EB0302A0FB011310
:10416000A2F50002002918BF43F001035B0028BF3D
:104170004FEA330342EB22425FEA132C4CEBC2506E
:104180002EBFBCEB436FB2F57C0F70474FEA036C58
:10419000BCF1004F08BF20F00100B2F57C0F38BF22
:1041A00070470BD582F0FF0212F5803FC8BF704701
:1041B00000F1C040D8BF00F00040704700F5000C8F
:1041C0005FEA4C0C48BF7047B0F1C04000F073B8D4
:1041D00090EA010F0CEAD11348BF42F480726245A5
:1041E00038BF634504D280EA010000F00040704708
:1041F00010B500F01AF800BF8900013E00F007B8C2
:1042000000F009B85FEA410C5FEA1C6C08D080EA54
:10421000010000F050B85FEA400C5FEA1C6CF6D178
:104220004FF00040A0F5800070470EF1020E2EF016
:10423000030E5EF8044B244204D44FEA4102B2F16B
:104240007F4F11D84FEA4003B3F17F4F0CD80ED106
:104250004FEAD07CB2F17F4F0CEB4C0C0CF1020C0E
:1042600008BF4CEBD17C04E04FF0080C01E04FEAB2
:10427000D17C0CEB4C0324FA03F404F00704B4F1F2
:10428000040C06D20EEB840CBDE810404CF0010C7F
:104290006047DFE80CF0070802024FF00040A0F58D
:1042A000800010BD0846420018BFD2F1807288BF5E
:1042B00000F0004010BDFF2141EAD050C00570471A
:1042C00090EA010F48BF81F000413FF5F8AD421A76
:1042D00004D882F00042A0EB020011444FEAD05211
:1042E0004FF07F4C1CEA410FA2EBD15318BF9CEA60
:1042F000026F4AD04FF0004C4CEA00204CEA0121FA
:1043000021FA03FCB0EB0C0C0FD412F0FE0F36D0E8
:104310005FEA4C001DD5001240EBC25038BF704719
:104320001CF03F0F18BF70470BE0A2F101025FEADB
:104330001C2040EBC25038BF70471CF07F0F18BFE5
:104340007047C3F12003994014BF401E20F00100C4
:10435000704780084FEA122308BF7047B0FA80FC0C
:10436000A2EB0C02CCF1280C60FA0CF093EA122FAD
:1043700004BF00EBC25070474FEAC3707047130A86
:104380005FEADC1008BF7047F6E79CEA026F04D0D2
:1043900010EA5C0F08BF0020704710B5FFF745FF1B
:1043A00040DFF63E81F0004070470CF00F03092B10
:1043B00008BF082000F059800A2B0BD0082B18BF2B
:1043C000704708BF1CF0400F0AD04FF000004FF0BC
:1043D000000170471CF0400F18BF4FF000407047BD
:1043E0001CF0100F08D020F0704300F07F4242EA2A
:1043F000D3014FEA4370704700F0604021F07F42E4
:1044000042EA000201F07F4040EA727070474FF0CC
:10441000FF0C4CF4E06C1CEA11531CBF9CEA030C2B
:104420009445C2BFDA4201EB02517047002B0DD018
:10443000BCF1000F0FD0002A01F00041A4BF41F0F1
:10444000E04141F07F614FF00000704701F0004112
:104450004FF00000704750EA01334FF09B0C18BF3B
:104460004CF0806C7FF41CA970471CF4801F11D0A5
:104470001CF4E02F03D06FEACC31490070474FF0B5
:104480004050EFF3008222F0704242EA000282F3D1
:10449000008870474FF000007047000000000000E7
:1044A00000000000000000000000001010101010BC
:1044B0001010101000001010000000006C6C24247C
:1044C000000000000100000000000024242424FE5D
:1044D00048484848FC909090900000103C549290BE
:1044E000503814121292547810000000225C94A8E4
:1044F000481010242A5254880000000030484850C8
:10450000206E54948C888A740000000030301010A3
:10451000000000000000000000000004081010204F
:1045200020202020201010080400008040202010AF
:1045300010101010102020408000000000001054C7
:104540003810385410000000000000000010101057
:1045500010FE10101010000000000000000000000D
:10456000000000000000101020000000000000000B
:1045700000FE00000000000000000000000000003D
:1045800000000000000010100000000004040808F3
:1045900010102020404080800000000038448282BB
:1045A00082828282828244380000000010701010E3
:1045B000101010101010107C00000000384482828F
:1045C00004081020408284FC00000000384482026D
:1045D000043804020282443800000000040C141461
:1045E00024244444FE04040E00000000FC8080806B
:1045F000B8C4820202828478000000003C428280BB
:10460000B8C4828282824438000000007E42820464
:1046100004080808101010100000000038448282BE
:104620004438448282824438000000003844828248
:104630008282463A028244380000000000001010D6
:10464000000000001010000000000000000010102A
:1046500000000000001010200000000000000618FC
:1046600060806018060000000000000000000000EC
:10467000FE0000FE00000000000000000000C0304E
:104680000C020C30C000000000000038448282029E
:104690000408101010001010000000003844829A26
:1046A000AAAAAAAAAA9680423C00000010101028CC
:1046B000282844447C4444EE00000000FC4242426E
:1046C000427C4242424242FC000000003C44828064
:1046D000808080808282443800000000F84442429A
:1046E00042424242424244F800000000FC44424040
:1046F000447C4440404244FC00000000FC444240F2
:10470000447C4440404040F000000000344C828033
:1047100080808E8484844C3400000000EE44444445
:10472000447C4444444444EE000000007C101010DB
:10473000101010101010107C000000003E08080837
:10474000080808080888887000000000EE444848FF
:1047500050605048484444EE00000000E0404040B3
:1047600040404040404244FC00000000C6446C6CA5
:104770006C545454444444EE00000000CE4464643D
:104780006454544C4C4C44E4000000003844828291
:10479000828282828282443800000000F8444242D1
:1047A00042447840404040E00000000038448282AB
:1047B0008282828282BA443C02000000F048444473
:1047C00044487048444444E6000000003C44828071
:1047D00040300C0202824478000000007C549210A9
:1047E000101010101010103800000000EE44444467
:1047F000444444444444443800000000EE444444EB
:10480000442828282810101000000000EE445454BA
:10481000545454542828282800000000EE4444280A
:1048200028101028284444EE00000000EE444428DC
:104830002828101010101038000000007E44840852
:1048400008102020408284FC0000001C1010101072
:1048500010101010101010101C000000EE445454E2
:10486000FE545454282828280000007010101010FE
:10487000101010101010101070000030488400004C
:104880000000000000000000000000000000000028
:104890000000000000000000FE00004020000000BA
:1048A0000000000000000000000000000000000008
:1048B0007884047C84848C7600000000C0404040F2
:1048C0005864424242426458000000000000000068
:1048D0003844808080804438000000000C040404C8
:1048E000344C848484844C360000000000000000B6
:1048F000788484FC808084780000000018242020C4
:10490000F82020202020207000000000000000007F
:104910003A444478807C82827C000000C040404061
:1049200058644444444444EE000000001010000069
:10493000301010101010103800000000101000008F
:10494000301010101010109060000000C040404067
:104950005C485060504844EE0000000030101010D9
:10496000101110101010103900000000000000009D
:10497000ACD29292929292D6000000000000000009
:1049800058E44444444444EE0000000000000000A9
:104990003844828282824438000000000000000017
:1049A000D864424242645840E00000000000000029
:1049B000364C8484844C34040E0000000000000057
:1049C0006C3020202020207000000000000000003B
:1049D000788884601884447800000000002020203B
:1049E000F8202020202024180000000000000000F3
:1049F000C64242424242463A000000000000000027
:104A0000EE44442828281010000000000000000098
:104A1000EE44445454282828000000000000000000
:104A2000EE442810102844EE0000000000000000B2
:104A3000EE444428281010A0C00000000000000030
:104A40007E448810204284FC0000000C10101010DE
:104A500010601010101010100C000010101010102A
:104A60001010101010101010100000C02020202076
:104A70002018202020202020C0000000000000007E
:104A800000728C0000000000000000000000000028
:104A90001FE000003FF000003FF000001FE00001B9
:104AA00080060003C00F0003C00F0003C00F000307
:104AB000C00F0003C00F0003C00F0003C00F0003AE
:104AC000C00F000300030000000000000000000011
:104AD0000000000300030003C00F0003C00F000329
:104AE000C00F0003C00F0003C00F0003C00F00037E
:104AF000C00F0003C00F0001800600001FE000008F
:104B00003FF000003FF000001FE000000000000048
:104B10000000000000800000018000000380000011
:104B20000780000007800000078000000780000069
:104B30000780000007800000078000000780000059
:104B4000078000000180000000000000000000005D
:104B500000000000018000000780000007800000C6
:104B60000780000007800000078000000780000029
:104B7000078000000780000007800000038000001D
:104B80000180000000800000000000000000000024
:104B90001FE000003FF00000FFF00001FFE0000018
:104BA00000060000000F0000000F0000000F0000D2
:104BB000000F0000000F0000000F0000000F0000B9
:104BC000000F00001FE300007FF800007FF80000E6
:104BD0001FE0000300000003C0000003C00000034A
:104BE000C0000003C0000003C0000003C0000003B9
:104BF000C0000003C0000001800000001FF00000A2
:104C00003FF800003FFC00001FFE00000000000312
:104C1000FF800001FFC00000FFC000007F80000097
:104C200000180000003C0000003C0000003C0000B8
:104C3000003C0000003C0000003C0000003C000084
:104C4000003C00007F8C0001FFE00001FFF000004D
:104C50007F800000000C0000003C0000003C0000D1
:104C6000003C0000003C0000003C0000003C000054
:104C7000003C0000003C0000001800007F800000A5
:104C8000FFC00001FFC00003FF8000000000000023
:104C9000000000020001000300030003800700037E
:104CA000C00F0003C00F0003C00F0003C00F0003BC
:104CB000C00F0003C00F0003C00F0003C00F0003AC
:104CC000C00F00031FE300007FF800007FFC00001E
:104CD0001FE0000000030000000F0000000F0000B4
:104CE000000F0000000F0000000F0000000F000088
:104CF000000F0000000F0000000F00000007000080
:104D0000000300000001000000000000000000009F
:104D10001FFC00003FF800003FF000001FE0000112
:104D200080000003C0000003C0000003C0000003B7
:104D3000C0000003C0000003C0000003C000000367
:104D4000C00000031FE000007FF800007FF80000B3
:104D50001FE0000000030000000F0000000F000033
:104D6000000F0000000F0000000F0000000F000007
:104D7000000F0000000F0000000600003FE00000F0
:104D80007FF00000FFF00001FFE0000000000000E5
:104D90001FFC00003FF800003FF000001FE0000192
:104DA00080000003C0000003C0000003C000000337
:104DB000C0000003C0000003C0000003C0000003E7
:104DC000C00000031FE000007FF800007FFC00002F
:104DD0001FE0000300030003C00F0003C00F000327
:104DE000C00F0003C00F0003C00F0003C00F00037B
:104DF000C00F0003C00F0001800600001FE000008C
:104E00003FF000003FF000001FE00000000000073E
:104E1000FFE00003FFC00001FF880000FF18000052
:104E200000380000007800000078000000780000E2
:104E30000078000000780000007800000078000092
:104E400000780000001800000000000000000000D2
:104E5000000000000018000000780000007800004A
:104E60000078000000780000007800000078000062
:104E70000078000000780000007800000038000092
:104E80000018000000080000000000000000000002
:104E90001FE000003FF000003FF000001FE00001B5
:104EA00080060003C00F0003C00F0003C00F000303
:104EB000C00F0003C00F0003C00F0003C00F0003AA
:104EC000C00F00031FE300007FF800007FFC00001C
:104ED0001FE0000300030003C00F0003C00F000326
:104EE000C00F0003C00F0003C00F0003C00F00037A
:104EF000C00F0003C00F0001800600001FE000008B
:104F00003FF000003FF000001FE000000000000044
:104F10001FE000003FF000003FF000001FE0000134
:104F200080060003C00F0003C00F0003C00F000382
:104F3000C00F0003C00F0003C00F0003C00F000329
:104F4000C00F00031FE300007FF800007FFC00009B
:104F50001FE0000000030000000F0000000F000031
:104F6000000F0000000F0000000F0000000F000005
:104F7000000F0000000F0000000600001FE000000E
:104F80003FF000007FF00000FFE0000000000000A4
:104F90000000000000000000000000000000000011
:104FA0000000000000000000000000000000000001
:104FB00000000000000000000000000000000000F1
:104FC00000000000000000000000000000000000E1
:104FD00000000000000000000000000000000000D1
:104FE00078000000780000007800000078000000E1
:104FF00078000000780000000000000000000000C1
:1050000000000000000000000000000000000000A0
:105010000000000000000000000000000000000090
:105020000000000000000000000000000700000079
:105030000F8000000F8000000F80000007000000BC
:105040000000000000000000000000000000000060
:105050000000000000000000070000000F800000BA
:105060000F8000000F80000007000000000000001B
:105070000000000000000000000000000000000030
:105080000000000000000000000000000000000020
:10509000000000000000000000000007C006000F34
:1050A000E0060000000C003018180030181800301E
:1050B00018300030183000301860003008C0000789
:1050C000C0C0000FE080000000000000000FE00002
:1050D0000607C000063018000C3018000C3018000D
:1050E0001830180030301800303018006000000010
:1050F000C00FE000C007C00000000000000000007A
:10510000000000000000000000000000000000009F
:10511000000000000000000000000000000000008F
:105120000000000700E0000887FC00088E0300086C
:105130009801800718008000300000003000000057
:1051400070000000600000006000000060000000CF
:1051500060000000600000007000000030000000EF
:105160003000000038000000180100000C030000AF
:1051700007FC000001F0000000000000000000003B
:10518000000000000000000000000000000000001F
:10519000000000000000000000000000000000000F
:1051A00000000000000000000000000000000000FF
:1051B00000000000000000000000000000000000EF
:1051C00000000000000000003FF000007FF0000041
:1051D0007FE00000FFC000000000000000000000B1
:1051E00000000000000000000000000000000000BF
:1051F00000000000000000000000000000000000AF
:10520000000000000000000000000000B5E7020000
:10521000020002007FF0421042107FF04210421064
:105220007FF042000208020801F800000000D7D316
:105230007FF000200040008001000200FFF8020023
:10524000020002000200020002000E000000000046
:10525000C8AB0100010002800440082010102FE8B4
:10526000C106010001001FF00100010001007FFCE8
:105270000000B6AF004000407C40004001FC00440C
:10528000FE4420442044208448844484FD04450492
:1052900002280410BCBC10201020102013FEFC209B
:1052A0001020102015FC18843088D0481050102091
:1052B000105051882606CAF5010001200110011086
:1052C0007FFC03800540054009201110210841049E
:1052D0000102010001000100D2BA0080404027F81D
:1052E000114001408278424816A81AD0235022204B
:1052F00042204250028800000000BEA73FE020206C
:105300003FE020203FE00000FDF885088508FDF81B
:1053100085088508FDF8850800000000B2E2000855
:105320004F8828880AA88AA84AA80AA82AA82AA8CA
:105330004228450884888888103800000000CAD4B4
:105340004050204820400FF80040E04027402240D5
:10535000224022202A2833A82E180008000000002E
:10536000B3CC00001BF0E210221023F0F800200064
:1053700033F068806080A3F02080208027F8000050
:105380000000D0F2020001003FF820002FF02020A2
:10539000224021803FF820882090408040808380F8
:1053A00000000000D1D5200010F87E20444028F8ED
:1053B0007E8848A850A864A848A872A88450188875
:1053C000610800000000C9AB100010003FE0404041
:1053D00080807FF04210421042107FF04000400871
:1053E00040083FF800000000CCEE20802FF820801D
:1053F00027F0F41027F0241027F0241027F03410A1
:10540000CFF80220041000000000B3E40400020002
:10541000FFF80800104020207FF0089008800880E6
:10542000088010882088C07800000000CEC40400E6
:1054300002000200FFF810401040088008800500BC
:105440000200050008803060C01800000000D7D6B8
:1054500004000200FFF8800880083FC000800100BF
:105460000200FFF80200020002000E00000000002F
:10547000CFD43FE0202020203FE0202020203FE02C
:1054800008804890289028A008800880FFF8000035
:105490000000CABE00003FE0000000000000FFF86E
:1054A00002001240122022104208820802000E0060
:1054B00000000000CDBC7FF84008440847C84848B9
:1054C000548843084CC8733840884C0843084088C7
:1054D0007FF800000000C6AC008020802080208083
:1054E0003FF02000200020003FC02040204020400E
:1054F0004040804000000000B4A5204038404840B3
:1055000091F07D50555055507D5055F054407C40A1
:10551000545057F88C0800000000C3FE22202220BF
:1055200027F8FA2027F0241027F03410E7F0208025
:105530002FF821402220EC1800000000CAE440802F
:105540004140F22044108BE8A000F78824A827A847
:1055500034A8E7A824A8248825B800000000C8EBD8
:105560000800040004000200020005000500088095
:1055700008801040104020204010800800000000EB
:10558000C8AB020002000500088010402020DFD8D0
:10559000020002001FC0020002000200FFF800002B
:1055A0000000B3CC00001BF0E210221023F0F80042
:1055B000200033F068806080A3F02080208027F8EE
:1055C00000000000BCBC208020802080F7F02080FC
:1055D000208027E03220E22021402080214022202C
:1055E000EC1800000000CAF5020002400220020090
:1055F000FFF807000A800A80124022204210820829
:105600000200020000000000D6A702000200FFF81E
:10561000020002007FE01020104008800500020018
:10562000050018C0E03800000000B3D620802080BC
:1056300023F0F880208027F828203020E7F8202069
:10564000222021202020E0E000000000D7A8020056
:1056500002007FF004000400FFF8080010003FE0A3
:10566000002000401C800300008000000000D7A242
:1056700001004080200017F0008080804080008082
:1056800017F010802080208040804FF8000000003C
:10569000C5FA204024402440F44824502760244088
:1056A0003440E4402440244025482648E4380000A3
:1056B0000000B7A202002220221044007FF804005C
:1056C00008000FE0142024404280810006C03838D2
:1056D00000000000B3C900A0009000807FF8408067
:1056E00040907C90449044A044A0444858A841185D
:1056F000820800000000B9A601000100F90023F0B3
:10570000211021102110211021103910C210021077
:105710000410086000000000D2C6000000200078DD
:105720000CE47904516810307E6019981A3C2FE41B
:1057300048E40838003000600000D1A100000120DA
:10574000012003FC62203420042003FC240021B04B
:1057500021202220323E18000FE00000D4F100008A
:10576000000010FC1304110C3DF8703E10D0159091
:105770007CF0503E18101BFE023000200000CFEEDF
:105780000000000003FE00607C4012FC11041106C2
:10579000113611241F44794400C0009C018600008A
:1057A000C4BF000000000FE03C18200820043E04A5
:1057B000600460047E046004200C20081FF0018057
:1057C0000000B6CC0000080011FC103E3EF82D8C05
:1057D0002904490409043E8C50FC10881EC811FCA1
:1057E000100E0000B0B400000040006012FE130272
:1057F0003A427F4410C41BFE3C987190113011A0B6
:105800000078004C0000C8B70000004000F878C4E1
:105810001F8C313821EC2126413A7DE2272225FADE
:105820003D26012401040000B6A80000010001701B
:105830005FFC700420042FF801001100113821C40E
:1058400031003F0063E040380000B3A400000000D6
:105850000818086008C00B001E00181C7FF010001C
:10586000118010E01838098E0F000000B0B400005D
:105870000040006012FE13023A427F4410C41BFE37
:105880003C987190113011A00078004C0000B7B521
:105890000000000007F80600240014F8078C040438
:1058A0002408261825F0647C64C220801FC00000F4
:1058B000BBD8000000001FF030182008278C2C44B3
:1058C000284428442CC427842004300C1FF803806B
:1058D00000000000000000000000000000000000C8
:1058E00000000000000000000000000000000000B8
:1058F00000000000B4BF000000000000020100062C
:105900003FC00C3FE018030010020033366037261A
:10591000203E66301C643018642031FEE03F1FC01A
:105920001C0C00000C000704003E07F00001C00042
:105930000000000000000000000000000000C9ABF3
:1059400000000000000001FE0003E3000703000C5C
:1059500003001C3F003BFFC03F30600C30200C3088
:10596000200C10200C10600FFFC0083F0008000042
:105970000800600E3FE007FC00000000000000008F
:105980000000000000000000CCEE0000000000005D
:1059900000030000FFE00C07F00C06000CFF803F46
:1059A000F0E01FC0600CFE300CCC3004F83004FF77
:1059B0002004C0201FFE603EC06001FFF001FFF028
:1059C00000606000400000000000000000000000D7
:1059D0000000B3E4000000000000002000003000E0
:1059E00007FFF03FFFE00300000601800C01800884
:1059F00001C01807E00FFE7007E000020600060471
:105A0000000404000404000C06700C07E000000011
:105A1000000000000000000000000000B2E20000F2
:105A20000000000000003039FC301FCC300706B009
:105A30000F06F01907B03137B03136F01F27F001EB
:105A400067F001E5F001E1F00041F00CF8B03CD85E
:105A500030008C30008030000000000000000000AA
:105A6000000000000000CAD400000000000008038D
:105A7000600C03700C0330003FE0003F8008010021
:105A80003C0180047F80047D800C00800C10C00CE1
:105A900010C00C18400C1C600F7E600670300000B7
:105AA00030000000000000000000000000000000C6
:105AB000CEC400000000C00000E00000700001FF44
:105AC000E01FFFC0180100000300000600000E00E8
:105AD000001C000E180007300001E00000F000007C
