:020000040800F2
:1000000060070020CD01000855070008FF05000823
:10001000A3060008B5030008BF1400080000000094
:10002000000000000000000000000000550A000869
:100030000504000800000000FD080008E10B0008AE
:10004000E7010008E7010008E7010008E7010008F0
:10005000E7010008E7010008E7010008E7010008E0
:10006000E7010008E7010008E7010008E7010008D0
:10007000E7010008E7010008E7010008E7010008C0
:10008000E7010008E7010008E7010008E7010008B0
:10009000E7010008E7010008E7010008E7010008A0
:1000A000E7010008E7010008E7010008E701000890
:1000B000E7010008E7010008E7010008E701000880
:1000C000E7010008E7010008E7010008E701000870
:1000D000E7010008E111000869120008E7010008C3
:1000E000E7010008E7010008E7010008E701000850
:1000F000E7010008E7010008E7010008E701000840
:10010000E7010008E7010008E7010008E70100082F
:10011000E7010008E7010008E7010008E70100081F
:10012000E7010008E7010008E7010008E70100080F
:1001300000F002F800F03AF80AA090E8000C8244BF
:100140008344AAF10107DA4501D100F02FF8AFF29C
:10015000090EBAE80F0013F0010F18BFFB1A43F0A5
:10016000010318473C1500005C150000103A24BF3D
:1001700078C878C1FAD8520724BF30C830C144BF0C
:1001800004680C607047000000230024002500264E
:10019000103A28BF78C1FBD8520728BF30C148BFEA
:1001A0000B6070471FB51FBD10B510BD00F06EF895
:1001B0001146FFF7F7FF01F0DDF900F0A0F803B4F6
:1001C000FFF7F2FF03BC01F07CF90000094880470B
:1001D00009480047FEE7FEE7FEE7FEE7FEE7FEE729
:1001E000FEE7FEE7FEE7FEE704480549054A064B41
:1001F00070470000E50B0008310100086001002095
:1002000060070020600300206003002070470000AA
:100210000FB4044910B503AA029800F009F810BC05
:100220005DF814FB18000020704770477047704756
:10023000074B70B50D467B4400F011F80446284684
:1002400000F020F810B14FF0FF3070BD204670BDB7
:100250001F13000001694A1C02610878704700B54D
:100260008FB0CDE901310021059105497944CDE9EF
:1002700003101146684600F02EF80FB000BD0000D4
:10028000E5FFFFFF007B00F080007047754600F03F
:100290003FF8AE4605006946534620F00700854604
:1002A00018B020B5FFF7A0FFBDE820404FF00006D2
:1002B0004FF000074FF000084FF0000B21F007014E
:1002C000AC46ACE8C009ACE8C009ACE8C009ACE891
:1002D000C0098D4670472DE9F04106460024D6E955
:1002E0000170F5688046304603E04146B847641C1B
:1002F0003046A8470028F8D12046BDE8F08110B567
:100300000446AFF300802046BDE81040FFF757BF1A
:1003100000487047FC00002021B1826842F00102D1
:10032000826003E0826822F0010282607047000070
:1003300030B502460020002350680F4C20400D7954
:100340000C6844EA05242043506090680B4C204020
:10035000D1E902542C434D7944EA4504204390608E
:10036000D06A20F470000C7C641EE4B2234340EA9F
:100370000350D06230BD0000FFFEF0FFFDF7F1FF3B
:1003800008B50121202000F0DBFA10208DF80300D1
:1003900003208DF802000420ADF8000069460448EF
:1003A00000F09EF80421024800F025F908BD000085
:1003B0000014014000BFFEE700B587B00121042012
:1003C00000F0BEFA0121480200F0BAFA00208DF8D0
:1003D0001B0003208DF81A007020ADF8180006A944
:1003E000064800F07DF801A90548FFF7A1FF0121AB
:1003F0000348FFF791FF07B000BD0000000801406F
:10040000002401407047000000B587B001211C2086
:1004100000F096FA0121052000F072FA48208DF8CC
:100420001B0003208DF81A00ADF8180006A9284813
:1004300000F056F8E020ADF8180006A9254800F0B5
:100440004FF80820ADF8180006A9234800F048F836
:100450000020ADF81200ADF80E004FF6FF70ADF8B9
:1004600010000020ADF80C008DF8140003A94FF027
:10047000804000F041FE03A9184800F03DFE022331
:100480001A460121880700F034FD02231A46012193
:10049000880700F02EFD69464FF0804000F04AFDCD
:1004A00069460E4800F046FD01221146900700F013
:1004B00097FD01221146094800F092FD01218807AD
:1004C00000F0FCFC0121054800F0F8FC07B000BD7D
:1004D00000080140000C01400010014000080040ED
:1004E0002DE9F041024600250026002000230024CB
:1004F000002791F803C00CF00F0591F803C00CF031
:10050000100CBCF1000F03D091F802C04CEA0505B5
:1005100091F800C0BCF1000F31D0146800202BE02E
:100520004FF0010C0CFA00F3B1F800C00CEA03061E
:100530009E4220D183004FF00F0C0CFA03F7BC430E
:1005400005FA03FC4CEA040491F803C0BCF1280F3F
:1005500006D14FF0010C0CFA00FCC2F814C00AE0FE
:1005600091F803C0BCF1480F05D14FF0010C0CFA13
:1005700000FCC2F810C0401C0828D1D31460B1F8A8
:1005800000C0BCF1FF0F34DD546800202EE000F104
:10059000080C4FF0010808FA0CF3B1F800C00CEA9F
:1005A00003069E4221D183004FF00F0C0CFA03F793
:1005B000BC4305FA03FC4CEA040491F803C0BCF107
:1005C000280F05D100F1080C08FA0CF8C2F81480C5
:1005D00091F803C0BCF1480F07D100F1080C4FF0AF
:1005E000010808FA0CF8C2F81080401C0828CED385
:1005F0005460BDE8F081416170470161704700BF00
:10060000FEE7000008B50121102000F099F948200C
:100610008DF8030003208DF802004FF47050ADF800
:10062000000069460148FFF75BFF08BD001001406C
:1006300008B501211C2000F083F910208DF803007B
:1006400003208DF802004FF48070ADF80000694679
:100650001048FFF745FF4FF48070ADF80000694681
:100660000D48FFF73DFF40F21720ADF80000694646
:100670000A48FFF735FF4FF480710648FFF7BDFFCA
:1006800040F216210548FFF7B8FF01210348FFF7A4
:10069000B2FF08BD00080140000C014000100140FD
:1006A000704700BFFEE7000010B586B00446012188
:1006B000480400F025F90121042000F041F9234805
:1006C00000F0EEFD0420ADF8140003208DF81600B4
:1006D00018208DF8170005A91D48FFF701FF082015
:1006E000ADF8140004208DF8170005A91848FFF78D
:1006F000F7FE26208DF8000003208DF8010004206D
:100700008DF8020001208DF80300684600F02AF8F9
:1007100001940020ADF80800ADF80A00ADF80C0017
:10072000ADF810000C20ADF80E0001A9074800F04C
:1007300055FE012240F22551044800F029FE012116
:10074000024800F0A1FD06B010BD000000440040CA
:1007500000080140704710B54FF4A06000F03AF86F
:1007600010BD000070B5002100230F22C47804B32F
:10077000154C246804F4E064C4F5E064210AC1F176
:100780000403CA40447804FA03F1847814402143F6
:1007900009010E4C0678A155047804F01F050124C8
:1007A000AC4005786D11AD0005F1E025C5F80041BC
:1007B00009E0047804F01F050124AC40044D0678DC
:1007C000761145F8264070BD0CED00E000E400E035
:1007D00080E100E002490143024A116070470000D5
:1007E0000000FA050CED00E000B58DB00121C80253
:1007F00000F0A6F80121480300F0A2F801211C2016
:1008000000F09EF818208DF8330003208DF8320098
:100810008020ADF830000CA93448FFF761FE0320BA
:10082000ADF830000CA93248FFF75AFE4FF4E070E3
:10083000ADF830000CA92F48FFF752FE0020ADF8AC
:100840002A00ADF8260040F2E730ADF82800472036
:10085000ADF8240000208DF82C0009A9264800F0EE
:100860004BFC6020ADF804000120ADF80600042028
:10087000ADF808000020ADF80C000820ADF80E001F
:100880000020ADF81000ADF81200C720ADF80A0046
:1008900001A9194800F0AEFB0821174800F0F6FB4B
:1008A0000020ADF81400ADF81600ADF81800ADF852
:1008B0001A004FF48040ADF820000020ADF81C0075
:1008C0004FF40050ADF81E0005A90B4800F0E6FA01
:1008D0000121094800F0D6FA0121074800F0FAFA90
:1008E0000121054800F0EAFA0DB000BD0008014002
:1008F000000C01400010014000340140704700002E
:1009000029B1064AD2690243044BDA6104E0034A82
:10091000D2698243014BDA61704700000010024047
:1009200029B1064A12690243044B1A6104E0034AE2
:1009300012698243014B1A617047000000100240A7
:1009400029B1064A92690243044B9A6104E0034AC2
:1009500092698243014B9A61704700000010024087
:1009600029B1064AD2680243044BDA6004E0034A24
:10097000D2688243014BDA607047000000100240E9
:1009800030B500210022002400232D4D6D6805F0B4
:100990000C0121B1042905D0082923D105E0294DF6
:1009A000056022E0274D05601FE0254D6D6805F4C8
:1009B0007012234D6D6805F48034022505EB9242D8
:1009C0001CB9214D554305600BE01D4D6D6805F4C4
:1009D00000351DB11C4D5543056002E0194D5543CE
:1009E000056002E0174D056000BF00BF144D6D6843
:1009F00005F0F0010909154D6B5C0568DD404560A7
:100A00000F4D6D6805F4E061090A104D6B5C456897
:100A1000DD4085600A4D6D6805F46051C90A0B4DD3
:100A20006B5C4568DD40C560054D6D6805F440416F
:100A3000890B074D6B5CC568B5FBF3F5056130BDEF
:100A40000010024000127A0000093D000000002062
:100A500010000020704710B500F002F810BD000033
:100A60000CB50020019000903348006840F48030BD
:100A70003149086000BF3048006800F40030009041
:100A80000198401C0190009818B90198B0F5A06F2A
:100A9000F1D12948006800F4003010B10120009025
:100AA00001E0002000900098012843D1234800680D
:100AB00040F01000214908600846006820F003005B
:100AC00008600846006840F0020008601A48406864
:100AD000194948600846406848600846406840F444
:100AE000806048600846406820F47C1048600846F2
:100AF000406840F4E81048600846006840F08070A4
:100B0000086000BF0C48006800F000700028F9D0B1
:100B10000948406820F003000749486008464068DB
:100B200040F00200486000BF0348406800F00C003D
:100B30000828F9D10CBD000000100240002002403E
:100B400008B501210420FFF7FBFE4FF4C050ADF8BB
:100B5000000010208DF8030003208DF80200694684
:100B60000148FFF7BDFC08BD0008014000B587B093
:100B700001211020FFF7E4FE01214802FFF7E0FE0B
:100B800000208DF81B0003208DF81A002020ADF8FE
:100B9000180006A90648FFF7A3FC01A90548FFF7BE
:100BA000C7FB01210348FFF7B7FB07B000BD0000FA
:100BB0000010014000240140042808D14FF0E0213A
:100BC000096941F004014FF0E022116107E04FF0A4
:100BD000E021096921F004014FF0E0221161704722
:100BE0007047000010B51348006840F0010011493B
:100BF000086008464068104908400E4948600846A9
:100C000000680E4908400B4908600846006820F457
:100C1000802008600846406820F4FE0048604FF4D9
:100C20001F008860FFF717FF4FF00060044908605D
:100C300010BD0000001002400000FFF8FFFFF6FEAC
:100C400008ED00E0F0B50C46154600220021068CA8
:100C50004FF6FE773E400684028B018C4FF60C76F1
:100C600032407E1C06EA03162E433243104EB04239
:100C70000ED0104EB0420BD0B0F1804F08D00E4EC7
:100C8000B04205D00D4EB04202D00D4EB04206D15A
:100C90004FF6FD76314044F00106314305E04FF652
:100CA000F576314044F00106314302830184F0BD02
:100CB000002C0140003401400004004000080040C6
:100CC000000C0040F0B50C4615460022002100261D
:100CD000078C4FF6EF7C07EA0C070784028B018C28
:100CE0004FF6FF7707EA041640F6FF473A404FF603
:100CF000FF7707EA03373A434FF6FF7707EA0527FE
:100D00003A43114FB8420ED0104FB8420BD0B0F159
:100D1000804F08D00E4FB84205D00E4FB84202D0D7
:100D20000D4FB84206D14FF6DF77394046F0100735
:100D3000394305E04FF65F77394044F010073943F7
:100D400002830184F0BD0000002C0140003401400A
:100D50000004004000080040000C0040F0B50C46C4
:100D60001546002200210026078C4FF6FF6C07EA8B
:100D70000C070784828B018C4FF6FF7707EA042665
:100D80004FF60C773A404FF6FF7707EA03172F43E9
:100D90003A43114FB8420ED0104FB8420BD0B0F1C9
:100DA000804F08D00E4FB84205D00E4FB84202D047
:100DB0000D4FB84206D14FF6FF57394046F48077C1
:100DC000394305E04FF2FF57394044F48077394307
:100DD00082830184F0BD0000002C014000340140FA
:100DE0000004004000080040000C0040F0B50C4634
:100DF0001546002200210026078C4EF6FF7C07EAEC
:100E00000C070784828B018C4FF6FF7707EA0436C4
:100E100040F6FF473A404FF6FF7707EA05273A4387
:100E20004FF6FF7707EA03373A43114FB8420ED027
:100E3000104FB8420BD0B0F1804F08D00E4FB842DF
:100E400005D00E4FB84202D00D4FB84206D14DF634
:100E5000FF77394046F48057394305E047F6FF579E
:100E6000394044F48057394382830184F0BD000047
:100E7000002C014000340140000400400008004004
:100E8000000C004021B1028842F08002028004E0A0
:100E900002884FF67F731A40028070470A884B8899
:100EA0001A438B881A43CB881A430B891A434B8900
:100EB0001A438B891A43A0F84420704721B1028855
:100EC00042F00102028004E002884FF6FE731A40ED
:100ED0000280704731B1B0F8442042F40042A0F8DB
:100EE000442005E0B0F84420C2F30E02A0F84420EC
:100EF0007047F0B50C4615461E460021002200231F
:100F00000189028B038C4FF6F877394021434FF665
:100F1000FC473A4040F201173A434FF6DD773B4039
:100F20004FF6FF7707EA06172F433B430181028301
:100F30000384F0BD70B505460C46244885420ED0AA
:100F4000234885420BD0B5F1804F08D02148854217
:100F500005D02148854202D02048854200D100E0DA
:100F600000BF208850B92389A28861882846FFF7EE
:100F700069FEE188284600F092F825E020880428E0
:100F80000AD12389A28861882846FFF79BFEE18861
:100F9000284600F08DF817E0208808280AD1238918
:100FA000A28861882846FFF7D9FEE188284600F02C
:100FB0008CF809E02389A28861882846FFF716FF8C
:100FC000E188284600F08AF870BD0000002C01403E
:100FD000003401400004004000080040000C0040C4
:100FE0001AB183890B43838102E083898B43838118
:100FF0007047000070B5002400220023058C4FF6D6
:10100000FE7635400584028C8388048B4FF68F75FD
:101010002C40B51E2C400D882C43751E2A400D898E
:101020002A434D882A43144DA8420BD0134DA842A1
:1010300008D0134DA84205D0124DA84202D0124D3F
:10104000A84213D14FF6F7752A404D892A434FF62F
:10105000FB752A408D882A434FF6FF652B404FF6DB
:10106000FF552B408D892B43CD892B4383800483EF
:10107000CD888586028470BD002C0140003401407B
:101080000040014000440140004801400A46002160
:10109000018B4FF6F7731940114301837047028BA0
:1010A0004FF6F3731A400283028B0A4302837047A0
:1010B000028B4FF2FF331A400283028B4FF6FF730D
:1010C00003EA01231A4302837047828B4FF6F373BE
:1010D0001A408283828B0A4382837047828B4FF24D
:1010E000FF331A408283828B4FF6FF7303EA01239A
:1010F0001A43828370470000002202881D4B9842E9
:101100000ED01D4B98420BD0B0F1804F08D01B4B36
:10111000984205D01A4B984202D01A4B984204D1FB
:101120004FF68F731A404B881A43174B984207D0DB
:10113000164B984204D04FF6FF431A40CB881A430F
:1011400002808B8883850B8803850A4B98420BD0DD
:10115000094B984208D00E4B984205D00D4B98424F
:1011600002D00D4B984201D10B7A03860123838272
:1011700070470000002C0140003401400004004092
:1011800000080040000C0040001000400014004027
:101190000040014000440140004801407047000009
:1011A00008B501210820FFF7CBFB4FF4C050ADF884
:1011B000000010208DF8030003208DF8020069461E
:1011C0000448FFF78DF90120034908600349C1F87D
:1011D000B00108BD000C0140AC81214200802142D9
:1011E00010B540F225511D4800F0A8F810B31B4877
:1011F00000F060F9C4B21A48008800F40040C8B991
:101200001748008800F4804060B10A2C03D0002009
:101210001349088020E01248008840F4004010493B
:10122000088019E00D2C06D10D48008840F480405C
:101230000B49088010E00A480088C0F30D000949F6
:101240000C5407480088401C05490880084600885F
:10125000C72801DD0020088010BD000000380140D3
:101260001C0000203400002010B540F22551054834
:1012700000F064F820B1034800F01CF9C4B200BFCC
:1012800010BD00000044004021B1828942F40052A8
:10129000828104E082894DF6FF731A408281704793
:1012A00010B504462048844209D101218803FFF784
:1012B00057FB00214FF48040FFF752FB32E01B4800
:1012C000844209D101214804FFF72AFB00214FF491
:1012D0000030FFF725FB25E01548844209D10121A4
:1012E0008804FFF71DFB00214FF48020FFF718FB57
:1012F00018E01048844209D10121C804FFF710FB0F
:1013000000214FF40020FFF70BFB0BE00A4884425A
:1013100008D101210805FFF703FB00214FF48010DD
:10132000FFF7FEFA10BD0000003801400044004005
:1013300000480040004C00400050004070B502469C
:10134000002400230025002040F66A16B14200D197
:1013500000BFC1F3421501F01F03012606FA03F393
:10136000012D02D19689334006E0022D02D1168A62
:10137000334001E0968A33400C12012606FA04F449
:101380001688344013B10CB1012000E0002070BD7C
:10139000F0B50346002400260025002040F66A1719
:1013A000B94200D100BF1846C1F3421401F01F0634
:1013B000012707FA06F5012C01D10C3004E0022CBC
:1013C00001D1103000E014301AB107682F430760D4
:1013D00002E00768AF430760F0BD00002DE9F04769
:1013E00086B005460E460024A24600BFA14600274F
:1013F000B08900B100BF2F462C8A4CF6FF70044024
:10140000F08804432C82AC894EF6F3100440B08877
:1014100031890843718908430443AC81AC8A4FF693
:10142000FF400440B0890443AC8201A8FFF7A8FA4A
:101430001F48874202D1DDF810A001E0DDF80CA0C2
:10144000A88900F4004040B10AEBCA0000EB0A1082
:1014500031684900B0FBF1F807E00AEBCA0000EB85
:101460000A1031688900B0FBF1F86420B8FBF0F095
:1014700004012009642101FB1089A88900F40040BF
:1014800040B1322000EBC900B0FBF1F000F00700E2
:10149000044308E0322000EB09106421B0FBF1F0B6
:1014A00000F00F0004432C8106B0BDE8F087000077
:1014B0000038014001468888C0F30800704700BF2B
:1014C000FEE700BF7047000010B56FF00400FFF7A3
:1014D00073FB0A4800680A49B0FBF1F0094908703B
:1014E0000846007800EB4001C1EBC0104FF6FF71D9
:1014F00001EAC0000449088010BD0000200000205F
:1015000000127A0014000020160000200146114A43
:1015100012884A434FF0E0235A6100229A611A462A
:10152000126942F001021A6100BF4FF0E022106917
:1015300000F001021AB100F48032002AF5D04FF019
:10154000E022126922F001024FF0E0231A6100222A
:101550009A6170471600002000BF054A128802F009
:101560004002002AF9D0C2B2014B1B1D1A807047FD
:1015700000380140FFF7EFF8FFF734FBFFF7A4FF57
:101580004FF4165000F038F8FFF72EF9FEF73CFF45
:10159000FFF704FEFFF784F8FEF70EFFFFF7E6FA09
:1015A000FFF730F8FFF744F8FEF7EAFEFFF7C8FA56
:1015B000FFF7F6FD4FF41650FFF776F809A0FEF797
:1015C00027FE01200B4908600BE00A48006808B9B3
:1015D000012000E00020074908604FF4FA70FFF78F
:1015E00095FFF2E7434F4D20546578740D0A0D0ABC
:1015F00000000000A081214210B586B00446012100
:1016000044F20400FFF79CF92348FFF749FE4FF42A
:101610000070ADF8140003208DF8160018208DF826
:10162000170005A91D48FEF75BFF4FF48060ADF879
:10163000140004208DF8170005A91848FEF750FF84
:1016400025208DF8000003208DF801008DF80200A0
:1016500001208DF803006846FFF784F8019400200C
:10166000ADF80800ADF80A00ADF80C00ADF81000B8
:101670000C20ADF80E0001A90748FFF7AFFE0122CC
:1016800040F225510448FFF783FE01210248FFF78D
:10169000FBFD06B010BD000000380140000801400D
:1016A000C016000800000020340000006C01000893
:1016B000F4160008340000202C0700008801000800
:1016C00000000000010203040102030406070809E8
:1016D00002040608000000000000000000000000F6
:1016E00000A24A0400000000000000000102030400
:0416F00006070809D8
:0400000508000131BD
:00000001FF
