:020000040800F2
:10000000A00C0020E5010008412A0008791D000825
:100010003D2A0008A9130008B947000800000000A5
:10002000000000000000000000000000493000084F
:100030004D14000800000000012C0008BD3200082B
:10004000FF010008FF010008FF010008FF01000890
:10005000FF010008FF010008FF010008FF01000880
:10006000FF010008FD160008FF010008FF0100085D
:10007000FF010008FF010008FF010008FF01000860
:10008000FF010008FF010008FF010008FF01000850
:10009000FF010008FF010008FF0100086D170008BC
:1000A000FF01000821330008FF010008FF010008DC
:1000B000FF0100089D330008FF010008FF01000850
:1000C000FF010008FF010008FF010008FF01000810
:1000D000FF010008BD42000845430008FF01000879
:1000E00079150008FF010008FF010008FF01000862
:1000F000FF010008FF010008FF010008FF010008E0
:10010000FF010008FF010008FF010008FF010008CF
:10011000FF010008FF0100082D350008BD3600086A
:10012000FF010008FF010008FF010008FF010008AF
:1001300000F002F800F047F80AA090E8000C8244B2
:100140008344AAF10107DA4501D100F03CF8AFF28F
:10015000090EBAE80F0013F0010F18BFFB1A43F0A5
:1001600001031847007F0000207F0000103A24BFE1
:1001700078C878C1FAD8520724BF30C830C144BF0C
:1001800004680C607047000000230024002500264E
:10019000103A28BF78C1FBD8520728BF30C148BFEA
:1001A0000B607047662906F01881002070471FB564
:1001B00000F0DCFA04000020002105F013F9E060F3
:1001C0001FBD10B510BD00F0D9FB1146FFF7EFFFC2
:1001D00004F0A6FE00F0F7FB03B4FFF7F2FF03BC48
:1001E00004F020FE0948804709480047FEE7FEE783
:1001F000FEE7FEE7FEE7FEE7FEE7FEE7FEE7FEE7D7
:1002000004480549054A064B70470000C132000802
:1002100031010008A0060020A00C0020A00800204A
:10022000A0080020704700000FB4044910B503AACD
:10023000029800F089FA10BC5DF814FB68000020F9
:100240000FB41CB5074B06AA7B446946009005987D
:1002500000F061FA0020694600F070FA1CBC5DF8FD
:1002600014FB0000F10400002DE9F0410E460446A5
:10027000002020622046E168884730B3252805D059
:10028000D4E901219047206A401CF2E7E16820464A
:1002900000278847050018D0A5F14100192802D889
:1002A00020354FF400673246294620462760FFF785
:1002B00079FF40B1012804D0F61D26F00706083664
:1002C000D8E7361DD6E72846DAE7206ABDE8F08190
:1002D000704770477047704710B500F04BFA0068E0
:1002E00010BD10B5044600F045FA046010BD70471B
:1002F0002DE9FF4F0C461E464FF0FF378BB0D2E979
:100300000001DDF860800A908A46C1F30A5505B9FC
:100310003D46002108464FF00000BAF1000F00F4FE
:10032000400005DA00EB80004FF4400101EA500084
:100330004FEA9059B9F1010F00DDB9460A9850EA29
:100340004A000ED044F61050A5F2FF3545432F1455
:10035000B8F1000F1ED07542291E1EDDC9F1000242
:100360001CE0B8F1010F4FF0000001D0302103E094
:10037000F24305E02154401CB042FBDB3046002232
:10038000002121540B99C1F80880C1E900200FB069
:10039000BDE8F08FBD1B6D1CDEE74A4600DA6942FE
:1003A00006A800F071FA06AB93E8070003AB83E8F8
:1003B000070050460A9900F04FFB8DE80700A0F5B2
:1003C00000501F3800900398002D0ADD42F21F01F3
:1003D0004A460844002303A90390684600F0B8FD8C
:1003E00009E0A0F500504A461F38002303A90390F6
:1003F000684600F0C2FD8DE807000004000C03D041
:100400004FF0FF30410800E01046B8F1000F03D074
:100410000022009215461EE0751E05D400F0AEF9CC
:10042000303262556D1EF9D5B3460122084302D021
:1004300000227F1C04E02078302801D100227F1E9A
:10044000002A099784D01DE0112D07DA00F096F9F3
:10045000303262556D1C50EA0102F5D1084302D0DA
:100460000098C8B10EE00021681E05E0235C625CC4
:1004700063542254401E491C8142F7DBAB46A81B43
:10048000401E0990002004F80B000B98099AC0F850
:100490000880C0E9002B7AE711264FF0000857E7E3
:1004A0002DE9F04F88460446D21D22F0070191B095
:1004B000D1E90001CDE90A0104F080F902460B9868
:1004C000C00F01D02D2007E02068810701D52B2027
:1004D00002E0202101EAC000032A099001D0072A86
:1004E00005DB03464146204600F08EF90BE12078FB
:1004F000800601D5E06900E00620B8F1650F81466D
:1005000006D0B8F1660F18D0B8F1670F70D131E09E
:100510000020B9F1110F009001DB112301E009F176
:1005200001030AAA01A90CA8FFF7E2FEDDE90C709D
:10053000002609F10105834647E001204B46009063
:100540004FF000470AAA01A90CA8FFF7D1FEDDE988
:100550000DB00C995D46002610B909F101000D1887
:10056000B9EB050003D4C0F1FF3609F10105A5EB95
:1005700009002BE0B9F1010F01DA4FF00109002069
:10058000B9F1110F0090484601DD112300E0034648
:100590000AAA01A90CA8FFF7ABFEDDE90C704D46D5
:1005A00000268346207800070AD4AB4500DA5D4672
:1005B00001A8012D04DD411911F8011C302907D0D3
:1005C0004F4502DA17F1040F04DA012082460FE0EA
:1005D0006D1EEEE7002F02DCED1B3E4403E0781CAD
:1005E000A84200DD7D1CB81B00F1010A4FF0004756
:1005F0002078000703D4AA4501DB4FF0FF3A002121
:10060000B7F1004F0DF143088DF8431024D00220BC
:100610002B23002F01DA7F422D230A21021EA0F195
:10062000010000DC5FB197FBF1FC97FBF1F201FBED
:100630001C7C17460CF1300C08F801CDEEE7A8F150
:10064000010003702188090501D5452100E06521DD
:10065000A0F1010800F8011C09980FA9A1EB0807F7
:10066000FF1D00B10120411901EBEA70A169384476
:10067000081A401EA0612078C00602D42046AFF3BD
:100680000080099828B1D4E901219047206A401CD4
:1006900020622078C00622D52046AFF300801EE0FD
:1006A000002E04DBB34502DD01A8805D00E03020B0
:1006B000D4E901219047206A401C2062761CAAF1EF
:1006C00001005FEA000A0AD100F050F8C068016832
:1006D000405CD4E901219047206A401C2062281E1A
:1006E000A5F10105DCDC07E0D4E9012118F8010BD4
:1006F0009047206A401C2062381EA7F10107F3DCF6
:100700002046AFF30080032011B041E601694A1C86
:1007100002610878704700B58FB0CDE90131002142
:10072000059105497944CDE9031011466846FFF764
:100730009BFD0FB000BD0000E5FFFFFF0A6802F857
:10074000010B0A6070470000074B70B50D467B44F3
:10075000FFF7E1FF0446284600F008F910B14FF01A
:10076000FF3070BD204670BDB347000000487047A1
:1007700060060020004870474006002030B5B0F108
:100780000A024FEA900E71F100034EEA817EB0EB4F
:100790000E0061EB91014FEA101E4EEA017E10EB54
:1007A0000E0041EB11114FEA102E4EEA016E10EBD4
:1007B0000E0041EB11214FEA104E4EEA014E10EBB4
:1007C0000E0041EB1141401841F100014FEAD00009
:1007D00040EA41704FEAD10110EB80054FEA8104F5
:1007E00044EA907444EB01046D1944EB0404521B79
:1007F000A3414FF0000348BF0A3200D530BD401C72
:1008000041F1000130BD00002DE9F0411F460446D2
:1008100003260168072A01F4006004DB08B116A56D
:1008200005E016A503E008B115A500E015A521F027
:1008300010002060A069C01EA0610FB1401EA06121
:100840002046AFF300804FB1D4E9012138469047EC
:10085000206A401C2062C01C206206E0206AFAE781
:10086000D4E9012115F8010B9047761EF8D22046F5
:10087000AFF30080BDE8F0814E414E006E616E0026
:10088000494E4600696E66002DE9F04781461646DE
:100890008AB0354878440DC88DE80D003248784458
:1008A000801C03AC0DC884E80D0041F69B30084461
:1008B000372190FBF1F290FBF1F5A5F1800501FBEA
:1008C00012041B3C02D56442012000E00020DFF846
:1008D00098A080460027FA44AAF1BE0A0EE0E0077D
:1008E0000AD03246684607EB470101230AEB810133
:1008F00000F043FB8DE8070064107F1C002CEED154
:10090000194F7F44AE3F19E0E80715D007EB0410FC
:100910000DF1180A90E80E008AE80E00C068F04257
:1009200001D1981908903246012306A903A800F0C6
:1009300024FB03AB83E807006D10641C002DE3D19A
:100940004FF0010332466946B8F1000F03A802D008
:1009500000F0FEFA01E000F010FBC9E90001C9F85F
:1009600008200AB0BDE8F087B4770000007B00F0F3
:100970008000704700487047400600207546FFF72A
:10098000F9FFAE4605006946534620F0070085464C
:1009900018B020B5FFF734FCBDE820404FF000064A
:1009A0004FF000074FF000084FF0000B21F0070157
:1009B000AC46ACE8C009ACE8C009ACE8C009ACE89A
:1009C000C0098D46704710B50446AFF3008020463D
:1009D000BDE81040FFF700BC4FF0013C50F8042B7D
:1009E00051F8043B9A4221D1A2EB0C03934313EA42
:1009F000CC1317D150F8042B51F8043B9A4215D16F
:100A0000A2EB0C03934313EACC130BD150F8042B45
:100A100051F8043B9A4209D1A2EB0C03934313EA29
:100A2000CC13DBD04FF00000704700BFD01A01BAE2
:100A3000B1FA81F101F0180122FA01F0CB40C1F1C5
:100A40002001DBB2C0B2C01A2CFA01F3D11A9143D3
:100A500011EAC311E6D170475FEA400C08BF91F07C
:100A6000000F4FEA8C234FEAC12243EA51514FEA6B
:100A70001C5018BF00F5F0404FEA300018BF41F09D
:100A800000415FEA6C5C00F02980BCF1FF3F08BFC9
:100A900040F080407047130C06BF12044FF0100C5A
:100AA0004FF0000C130E04BF12020CF1080C130FD0
:100AB00004BF12010CF1040C930F04BF92000CF15F
:100AC000020CD30F04BF52000CF1010C11464FF081
:100AD0000002A0F11F00A0EB0C00704711F0004FC6
:100AE00008BF704731F000413FF4D5AF0B0C06BF93
:100AF00009044FF0100C4FF0000C0B0E04BF09025C
:100B00000CF1080C0B0F04BF09010CF1040C8B0F46
:100B100004BF89000CF1020CCB0F04BF49000CF19B
:100B2000010CCCF12003A0EB0C0022FA03F302FA33
:100B30000CF241EA030100F10100704720F07F4C04
:100B400080EA030023F07F47ACEB070303F57C53F7
:100B500000F0004003F1FF032DE980494FEA154BF7
:100B600009B44FEA144325EA0B4E24EA03480FF276
:100B7000042606EB132749083E785FEA320203FB9E
:100B80000667C7F5000707FB06F64FEA54374FEA3A
:100B9000D64606F1020607FB066CCCF1005C4FEA74
:100BA0001C472CEA074C07FB06F40CFB06F504EB8C
:100BB00015464FEA961634BF00204FF000404FEA2A
:100BC000D13706FB07FC4FEA1C4C0CFB0BF7D21B82
:100BD00003FB0CF761EB07010CFB0EF7B0EB0740D2
:100BE00072EB17420CFB08F734BFA2EB0742B2EBE3
:100BF000074261EB17414FEA0C444FEA910706FBAD
:100C000007FC4FEA1C4C0CFB0BF7B0EBC74072EB38
:100C1000573203FB0CF734BFA2EBC742B2EBC7421B
:100C200061EB57310CFB0EF7B0EBC70072EB57725C
:100C30000CFB08F734BFA2EBC702B2EBC70261EBB3
:100C40005771039F4FEA816141EA921104EBCC0492
:100C50004FEAD1374FEA826206FB07FC42EA901264
:100C60004FEA80604FEA1C4C0CFB0BF7D21B03FBD6
:100C70000CF761EB07010CFB0EF7B0EB074072EBD2
:100C800017420CFB08F734BFA2EB0742B2EB074256
:100C900061EB17414FEA8C554FEA910704EB9C2416
:100CA00006FB07FC4FEA1C4C0CFB0BF7B0EBC740F4
:100CB00072EB573203FB0CF734BFA2EBC742B2EB27
:100CC000C74261EB57310CFB0EF7B0EBC70072EB7C
:100CD00057720CFB08F734BFA2EBC702B2EBC70296
:100CE00061EB577115EB4C254FEA816141EA921196
:100CF0004FEA82624FEAD13742EA901206FB07FCC4
:100D000044F100044FEA80604FEA1C4C0CFB0BF7E7
:100D1000D21B03FB0CF761EB07010CFB0EF7B0EBEA
:100D2000074072EB17420CFB08F734BFA2EB0742F7
:100D3000B2EB074261EB174115EB1C154FEA81310D
:100D400041EA92414FEA823242EA90424FEA8030D1
:100D50004FEA0C7644F1000448EA03434EEA0B489C
:100D60004FF0000EB2EB080C71EB030724BF624694
:100D700039464EEB0E0E4FF0000B00185241494120
:100D80004BEB0B0BB2EB080C71EB03077BF1000B89
:100D900024BF624639464EEB0E0E4FF0000B001892
:100DA000524149414BEB0B0BB2EB080C71EB0307C3
:100DB0007BF1000B24BF624639464EEB0E0E51EA22
:100DC000020718BF46F0010616EB0E7655F1000239
:100DD00054F1000103D5BDE88901BDE80088BDE8F4
:100DE0008901BDE80048B619524141EB0101A3F168
:100DF0000103704780807F7E7D7C7B7A797877766F
:100E000076757473727171706F6E6E6D6C6C6B6AE7
:100E10006A69686867666665646463636261616085
:100E2000605F5F5E5E5D5D5C5C5B5B5A5A59595802
:100E3000585757565655555554545353525252516C
:100E4000515050504F4F4F4E4E4D4D4D4C4C4C4BC2
:100E50004B4B4A4A4A494949484848474747474609
:100E60004646454545444444444343434342424245
:100E700042414141002B9C4630D477002BD01CB519
:100E80004FEA370703B44FF010004FF01001BAF1EA
:100E9000000F06D0BCF1000FDCBF40F0080040F0AE
:100EA00008014FF000000FBCBDE810400BF1010B32
:100EB000BBF1010F08BF5FEA170722BF12F1010261
:100EC00011F101014FF0004143F1000300F0004037
:100ED00043EA00007047F9D35708D0E746EA0646D0
:100EE00013F1400F4FEA16461FDD13F1200FDFBF4D
:100EF00016430A46002120335B42BED0C3F12007CF
:100F000046EA064602FA07F74FEA164646EA070699
:100F1000C3F1200722FA03F201FA07F721FA03F1DD
:100F20004FF0000342EA0702A7E746EA020646EA54
:100F300006464FEA164646EA0106BCBF46EA0646A2
:100F4000360C4FF000034FF000024FF0000194E721
:100F50002DE9804C9A46934670B491E8380007C852
:100F600031EA400C48BF34EA430C03D5FFF7E6FDF5
:100F7000FFF780FFF0BCBDE8008C2DE9804C9A465D
:100F8000934670B491E8380007C810F0804F08BF4E
:100F900013F0804F03D100F005F8FFF76BFFF0BCB2
:100FA000BDE8008C20F07F4780EA030023F07F4CEF
:100FB00007EB0C03A3F57C5300F00040A3F1FE0304
:100FC00092F0000F00F0B38095F0000F00F07780F2
:100FD0002DE901494FEA11404FEA144621EA004841
:100FE00000FB06FC24EA064708FB06F607FB08F8A8
:100FF00000FB07F718EB06484CEB164C4FEA124B78
:1010000018EB07484FEA15464CEB174022EA0B4E07
:101010000BFB06FC25EA06470EFB06F607FB0EFE59
:101020000BFB07F71EEB064E4CEB164C4FF0000681
:101030001EEB074E4CEB174B18EB0B0840F1000072
:1010400018EB0E0B58EB000840F100008F1A4FF020
:1010500000013CBFC943661B14BFB5EB040C002163
:101060003CBFC943F61B4FEA17444EEA8E0E27EAEF
:1010700004454FEA1C4704FB07622CEA074C05FBBA
:1010800007F70CFB05F604FB0CFC16EB074642EBDE
:10109000174216EB0C4642EB1C421BEB060658EBC4
:1010A0000202414146EA9E0601D5BDE80189B61912
:1010B000524141EB0101A3F10103BDE801894FEA6F
:1010C00014454FEA114724EA054621EA074C05FB7F
:1010D00007F406FB07F70CFB06F105FB0CFC11EB14
:1010E000074144EB17444FEA124711EB0C4144EB24
:1010F0001C4422EA074C05FB07F206FB07F70CFB32
:1011000006F605FB0CFC16EB074642EB174216EB06
:101110000C4642EB1C456A1854F1000148BF704769
:10112000B619524141EB0101A3F10103704795F05B
:10113000000F37D04FEA11424FEA144721EA024626
:1011400024EA074C02FB07F106FB07F70CFB06F449
:1011500002FB0CFC14EB074441EB17414FEA154727
:1011600014EB0C4441EB1C4125EA074C02FB07F54C
:1011700006FB07F70CFB06F602FB0CFC16EB07461A
:1011800045EB174516EB0C4645EB1C42121951F185
:10119000000148BF7047B619524141EB0101A3F16C
:1011A000010370474FEA14454FEA114724EA054608
:1011B00021EA074C05FB07F106FB07F70CFB06F2DB
:1011C0004FF0000605FB0CFC12EB074241EB174108
:1011D00012EB0C4251EB1C4148BF7047921841EB97
:1011E0000101A3F10103704721B1826842F00102BD
:1011F000826003E0826822F001028260704701464B
:1012000000208A6802F004020AB1012000E00020F8
:1012100070470146C86C80B27047024600201368D0
:101220000B400BB1012000E0002070470146002078
:101230008A6802F008020AB1012000E0002070472D
:1012400030B502460020002350680F4C20400D7935
:101250000C6844EA05242043506090680B4C204001
:10126000D1E902542C434D7944EA4504204390606F
:10127000D06A20F470000C7C641EE4B2234340EA80
:101280000350D06230BD0000FFFEF0FFFDF7F1FF1C
:10129000F0B504460D4600200021092D11DDE0685F
:1012A000A5F10A0606EB4607072606FA07F188436A
:1012B000A5F10A0606EB460603FA06F10843E060CC
:1012C0000CE0206905EB4507072606FA07F188437D
:1012D00005EB450603FA06F108432061072A0FDAF9
:1012E000606B561E06EB86071F2606FA07F1884339
:1012F000561E06EB860605FA06F10843606322E0F7
:101300000D2A0FDA206BD61F06EB86071F2606FA7A
:1013100007F18843D61F06EB860605FA06F1084357
:10132000206310E0E06AA2F10D0606EB86071F2697
:1013300006FA07F18843A2F10D0606EB860605FAC8
:1013400006F10843E062F0BD816841F00801816068
:10135000704721B1826842F4A002826003E0826893
:1013600022F4A00282607047816841F0040181602C
:101370007047000008B50121202001F06FFC10200B
:101380008DF8030003208DF802000420ADF8000062
:101390006946044800F0AEFA0421024800F035FB2B
:1013A00008BD00000014014000BFFEE700B587B093
:1013B0000121042001F052FC0121480201F04EFC01
:1013C0004FF4004001F01EFC00208DF81B000320AC
:1013D0008DF81A007020ADF8180006A9184800F022
:1013E00089FA00208DF8090004904FF460200390E2
:1013F0000020019001208DF8140000208DF80800D5
:1014000001A91048FFF71CFF01210F48FFF7ECFE70
:101410000D48FFF799FF00BF0B48FFF707FF0028B3
:10142000FAD10948FFF7A0FF00BF0748FFF7E7FE22
:101430000028FAD101A90448FFF702FF07B000BD58
:1014400000080140002801400024014070470000CE
:1014500000B587B001211C2001F000FC012105200E
:1014600001F0DCFB0121084601F0F8FB48208DF873
:101470001B0003208DF81A00ADF8180006A93A48A1
:1014800000F038FAE020ADF8180006A9374800F05F
:1014900031FA0820ADF8180006A9354800F02AFAFC
:1014A0000521012000F006FA2020049001208DF88B
:1014B000160000208DF814000C208DF8150004A8EB
:1014C00000F092F90321022000F0F4F908200490C2
:1014D00004A800F089F917208DF80C0001208DF880
:1014E0000F0002208DF80D008DF80E0003A801F00A
:1014F000A9FA09208DF80C0001208DF80F000220B8
:101500008DF80D008DF80E0003A801F09BFA002065
:10151000ADF80600ADF802004FF6FF70ADF804001C
:101520000020ADF800008DF8080069464FF08040BB
:1015300002F018FB69460F4802F014FB02231A461A
:101540000121880702F0BFF902231A460121094848
:1015500002F0B9F90121880702F09AF90121054842
:1015600002F096F907B000BD00080140000C0140F0
:10157000001001400008004010B5022003F076FC86
:101580005348006818BB5348006808B9012000E0C0
:101590000020504908605048D0F8A001012803D12C
:1015A00000204E49087002E001204C4908700120DB
:1015B0004B49087000BF464800680028FBD04FF434
:1015C000806000F00BF901204649087010BD4048CA
:1015D000001D006830BB3E487C30006808B901201F
:1015E00000E000203A497C3108603F48D0F8A4016F
:1015F000012803D100203D49087002E001203B4949
:10160000087001203649087000BF3148001D00688D
:101610000028FAD04FF4006000F0E0F801203149D2
:101620000870D3E72A480830006830BB2848683083
:10163000006808B9012000E00020254968310860F1
:101640002948D0F89001012803D1002028490870CA
:1016500002E001202649087001202149087000BFDE
:101660001B48083000680028FAD04FF4805000F082
:10167000B5F801201B490870A8E715480C30006830
:1016800000BB1C480078401C1A49087008460078C6
:10169000032190FBF1F201FB1200401C1649087077
:1016A0000846007802F0A8FD01200D49087000BF2F
:1016B00007480C3000680028FAD04FF4005000F0C2
:1016C0008DF883E74FF4705000F088F800BF7DE795
:1016D00028012242A001214200002142880000206E
:1016E00072000020740000200000224289000020C7
:1016F0008A000020200000202100002010B50220D8
:1017000003F0B4FB1548006800BB15480078401C86
:101710001349087008460078032190FBF1F201FBA1
:101720001200401C012804D0022806D003280CD146
:1017300007E001200B49088007E0052009490880DF
:1017400003E00A200749088000BF00BF01200649C6
:101750000870082000F042F810BD00000C01224281
:1017600067000020240000207200002010B5022035
:1017700003F07CFB1548006800BB15480078401C4E
:101780001349087008460078032190FBF1F201FB31
:101790001200401C012804D0022806D003280CD1D6
:1017A00007E001200B49088007E00A20094908806A
:1017B00003E064200749088000BF00BF01200649FC
:1017C0000870202000F00AF810BD000014812142AA
:1017D00066000020220000207200002001490860FD
:1017E0007047000014040140002123498279002A37
:1017F0003AD00A46126803689A430B461A600A1DDB
:10180000126803689A430B1D1A60027911440A6832
:1018100003681A430A60184A0832126803689A4338
:10182000154B08331A601A1D126803689A43124B4D
:101830000C331A604279102A0ED11A1F12680368FD
:101840001A430D4B08331A601A1D126803681A43B5
:10185000094B0C331A600DE00749427911440A68BC
:1018600003681A430A6005E0027911440A680368B4
:101870009A430A60704700000004014008B5012146
:10188000082001F0EBF910208DF8030003208DF8FB
:1018900002004FF40070ADF800006946044800F003
:1018A00029F84FF40071024800F0AFF808BD0000BD
:1018B000000C014030B500228B071C0F0F2303FAE8
:1018C00004F20B4B8C1053F824309343084C8D10CA
:1018D00044F8253023468C1053F824308C07240F0D
:1018E00000FA04F42343024C8D1044F8253030BD37
:1018F000080001402DE9F0410246002500260020A5
:1019000000230024002791F803C00CF00F0591F884
:1019100003C00CF0100CBCF1000F03D091F802C012
:101920004CEA050591F800C0BCF1000F31D01468F5
:1019300000202BE04FF0010C0CFA00F3B1F800C0CE
:101940000CEA03069E4220D183004FF00F0C0CFAE4
:1019500003F7BC4305FA03FC4CEA040491F803C006
:10196000BCF1280F06D14FF0010C0CFA00FCC2F8B4
:1019700014C00AE091F803C0BCF1480F05D14FF044
:10198000010C0CFA00FCC2F810C0401C0828D1D38E
:101990001460B1F800C0BCF1FF0F34DD54680020C2
:1019A0002EE000F1080C4FF0010808FA0CF3B1F832
:1019B00000C00CEA03069E4221D183004FF00F0CB9
:1019C0000CFA03F7BC4305FA03FC4CEA040491F853
:1019D00003C0BCF1280F05D100F1080C08FA0CF87F
:1019E000C2F8148091F803C0BCF1480F07D100F190
:1019F000080C4FF0010808FA0CF8C2F81080401CDF
:101A00000828CED35460BDE8F08141617047016180
:101A10007047000010B504460723012221460948FB
:101A2000FFF736FC01210748FFF793FC00BF0221B6
:101A30000448FFF7F2FB0028F9D00248FFF7E9FB62
:101A400010BD0000002401402DE9F04107460C467E
:101A50000025002608E03846FFF7DCFF0544052096
:101A600003F004FA701CC6B2A642F4DBB5FBF4F036
:101A700080B2BDE8F081000010B5044607230122C2
:101A800021460948FFF704FC01210748FFF761FCE4
:101A900000BF02210448FFF7C0FB0028F9D002482C
:101AA000FFF7B7FB10BD0000002801402DE9F04111
:101AB00007460C460025002608E03846FFF7DCFF05
:101AC0000544052003F0D2F9701CC6B2A642F4DB2F
:101AD000B5FBF4F080B2BDE8F08100002DE9F84FCD
:101AE0000746884693469A46DDF828900097C8F145
:101AF000F0001FFA80F8B3E099F8000080283DDA82
:101B000099F800600D2E05D1009F08F110001FFA12
:101B100080F830E0202E03DDA6F1200086B200E040
:101B20000026002422E000251CE004EB06105049AA
:101B3000095C80202841014041B108EB040291B2C8
:101B40007A1990B25A4600F00BF909E0D34507D054
:101B500008EB040291B27A1990B2524600F000F9F3
:101B6000681CC5B2082DE0DB601CC4B2102CDADBA7
:101B700007F1080087B209F1010971E0002668E069
:101B800006EB06103B4911F8100099F80010884246
:101B90005DD106EB0610374901EB4000407899F81B
:101BA0000110884253D100244FE0002520E006EBCD
:101BB0000610304901EB4000801C10F81400802111
:101BC0002941084040B108EB040291B27A1990B261
:101BD0005A4600F0C5F809E0D34507D008EB0402E7
:101BE00091B27A1990B2524600F0BAF8681CC5B2A8
:101BF000082DDCDB002524E006EB06101D4901EB77
:101C00004000801C012101EB4401405C80212941FE
:101C1000084048B108EB040291B27A19083290B238
:101C20005A4600F09DF80AE0D34508D008EB0402BC
:101C300091B27A19083290B2524600F091F8681CBD
:101C4000C5B2082DD8DB601CC4B2102CADDB701CF3
:101C500086B2322E94DB09F1020907F1100087B237
:101C600099F8000000287FF447AFBDE8F88F000026
:101C7000D0640008427200082DE9FE4306460F4674
:101C8000904699460A9C174903C9CDE901010020F5
:101C90008DF80B0001A84B4642463946009030466D
:101CA000FFF71CFF002510E00A20B4FBF0F100FB59
:101CB00011403030C5F1060101AA50540A20B4FB8E
:101CC000F0F404B903E0681CC5B2062DECDB00BFDC
:101CD00001A84B464246394600903046FFF7FEFECB
:101CE000BDE8FE83A87E00082DE9FE4306460F46A8
:101CF000904699460A9C18A103C9CDE9010100202C
:101D00008DF8090001A84B464246394600903046FE
:101D1000FFF7E4FE002511E00A2094FBF0F100FB40
:101D200011403030C5F1040101AA50540A2094FB3F
:101D3000F0F084B204B903E0681CC5B2042DEBDBFB
:101D400000BF01A84B464246394600903046FFF797
:101D5000C5FEBDE8FE8300002020202020200000DA
:101D600070B505460E4614463146284600F01DFE65
:101D7000204600F045FE70BD00BFFEE770B541F2A1
:101D8000342001F0EDF9552800D070BD00242CE07E
:101D9000204601F0E5F9254604EBD5714910544A77
:101DA00022F81100601CC4B2204604EBD071491027
:101DB00032F811104FF6FF7202EA012104EBD072E3
:101DC00052104B4B23F8121001F0CAF9254604EBD0
:101DD000D5714910464A32F81110084404EBD57108
:101DE000491022F81100601CC4B2062CD0DB00247C
:101DF00079E004F5805001F0B3F92546E11704EBD2
:101E0000917189103B4A42F82100601CC4B2E1176D
:101E100004EB9171891052F8211009022046E21753
:101E200004EB92729210334B43F8221004F5805069
:101E300001F096F9E11704EB917189102D4A52F8DF
:101E4000211008442546E11704EB9171891042F8EE
:101E50002100601CC4B2E11704EB9171891052F8A3
:101E6000211009022046E21704EB92729210214BD6
:101E700043F8221004F5805001F072F9E11704EBE9
:101E8000917189101B4A52F8211008442546E11728
:101E900004EB9171891042F82100601CC4B2E11773
:101EA00004EB9171891052F8211009022046E217C3
:101EB00004EB927292100F4B43F8221004F58050FD
:101EC00001F04EF9E11704EB91718910094A52F8BB
:101ED000211008442546E11704EB9171891042F85E
:101EE0002100601CC4B20C2C83DB00BF4DE7000056
:101EF000260000202C00002010B500200F490860AB
:101F00000F48006820F470200D49086008460068FA
:101F100040F44030086000200A49C1F8B0010220B6
:101F200002F0CAFF012005490860022002F0C4FF48
:101F300000200449C1F8AC0110BD0000AC012142F1
:101F4000040801400000214210B500200F4908603C
:101F50000F48006820F470200D49086008460068AA
:101F600040F44030086001200A49C1F8B001022065
:101F700002F0A2FF012005490860022002F09CFF48
:101F800000200449C1F8AC0110BD0000AC012142A1
:101F9000040801400000214270B50546002417489E
:101FA000006820F47020154908600846006840F475
:101FB00000200860002616E0002011490860022079
:101FC00002F07AFF01200F49C1F8AC016006040E4F
:101FD0000B487C38006808B1601CC4B2012002F0D4
:101FE0006BFF701CC6B2082EE6DB15B9FFF7ACFF1D
:101FF00001E0FFF781FF204670BD000004080140AA
:10200000AC0121420000214270B504461548006829
:1020100020F47020134908600846006840F44030FE
:102020000860002010490860002517E0E0090E490B
:10203000091D08606006040E022002F03DFF012029
:102040000A49C1F8AC01022002F036FF002006491F
:102050000860022002F030FF681CC5B2082DE5DBE5
:1020600070BD000004080140AC0121420000214283
:1020700010B50F48006820F470200D49086008462C
:10208000006840F44030086001200A4908600A49AD
:10209000C1F8AC01042002F00FFF002005490860E0
:1020A000042002F009FF00200349C1F8AC0110BD73
:1020B00004080140B00121420000214210B50F4840
:1020C000006820F470200D4908600846006840F45C
:1020D0004030086000200A4908600A49C1F8B00190
:1020E000042002F0E9FE0120054908600549C1F815
:1020F000B001042002F0E0FE10BD00000408014021
:10210000AC0121420000214210B5002414480068AF
:1021100020F47020124908600846006840F400204E
:10212000086001200F49086002F0C6FE01200E4938
:10213000C1F8AC0102F0C0FE07E0601CC4B2FA2C8A
:1021400003DDFFF7BBFF012010BD064880380068A3
:102150000028F2D10349091F086000BFF4E700001E
:1021600004080140B00121420000214210B50020C6
:102170000E4908600E48006820F470200C49086081
:102180000846006840F44030086000200949C1F862
:10219000B001012002F090FE01200449086002F025
:1021A0008BFE00200349C1F8AC0110BDAC81214277
:1021B000040C01400080214210B500200E49086047
:1021C0000E48006820F470200C490860084600683A
:1021D00040F44030086001200949C1F8B00102F024
:1021E0006BFE01200449086002F066FE00200449ED
:1021F000C1F8AC0110BD0000AC812142040C0140CB
:102200000080214270B5054600241748006820F47C
:102210007020154908600846006840F400200860F6
:10222000002616E0002011490860012002F044FE5B
:1022300001200F49C1F8AC016006040E0B487C3840
:10224000006808B1601CC4B2012002F035FE701CA9
:10225000C6B2082EE6DB15B9FFF7AEFF01E0FFF7C7
:1022600085FF204670BD0000040C0140AC81214276
:102270000080214270B504461448006820F47020A4
:10228000124908600846006840F4403008600020A9
:102290000F490860002516E0E0090D49091D086096
:1022A0006006040E012002F007FE01200949C1F872
:1022B000AC0102F001FE002005490860012002F097
:1022C000FBFD681CC5B2082DE6DB70BD040C0140A7
:1022D000AC8121420080214210B50F48006820F4F3
:1022E00070200D4908600846006840F440300860DE
:1022F00001200A4908600A49C1F8AC0102F0DCFD7E
:10230000002006490860012002F0D6FD00200449A3
:10231000C1F8AC0110BD0000040C0140B0812142A5
:102320000080214210B50E48006820F470200C494E
:1023300008600846006840F4403008600020094901
:1023400008600949C1F8B001012002F0B5FD012083
:10235000044908600449C1F8B00102F0ADFD10BDA8
:10236000040C0140AC8121420080214210B50024C0
:102370001448006820F4702012490860084600687C
:1023800040F40020086001200F49086002F094FD2D
:1023900001200E49C1F8AC0102F08EFD07E0601C7F
:1023A000C4B2FA2C03DDFFF7BDFF012010BD0648C3
:1023B000803800680028F2D10349091F086000BF77
:1023C000F4E70000040C0140B0812142008021426A
:1023D0001FB50121102000F041FC0121084600F04A
:1023E0003DFC48208DF80F0003208DF80E004FF4BF
:1023F0007050ADF80C0003A92148FFF77BFA0A21C1
:102400000220FFF757FA4FF48060019001208DF809
:102410000A0000208DF808000C208DF8090001A8A2
:10242000FFF7E2F90B210220FFF744FA4FF40060B6
:10243000019001A8FFF7D8F90C210220FFF73AFA22
:102440004FF48050019001A8FFF7CEF90D21022032
:10245000FFF730FA4FF40050019001A8FFF7C4F9DC
:1024600028208DF8000001208DF803008DF8010070
:1024700002208DF80200684600F0E4FA1FBD00005B
:102480000010014008B50121082000F0E7FB4FF4DF
:102490007E40ADF8000003208DF8020010208DF87A
:1024A000030069460148FFF725FA08BD000C01400A
:1024B00008B501211C2000F0D1FB10208DF803008D
:1024C00003208DF802004FF48070ADF800006946DB
:1024D0001048FFF70FFA4FF48070ADF8000069461E
:1024E0000D48FFF707FA40F21720ADF800006946E3
:1024F0000A48FFF7FFF94FF480710648FFF787FAA3
:1025000040F217210548FFF782FA002004490860CD
:1025100008BD000000080140000C0140001001400F
:102520008801224208B500F009F9002000F0E2F825
:1025300045A04FF6FF731F22EB2100903220FFF7DA
:10254000CDFA49A04FF478430022C82100906420BE
:10255000FFF7C4FA46A04FF6FF731F22C821009070
:10256000A020FFF7BBFA43A04FF6FF731F22C8213C
:102570000090DC20FFF7B2FA3FA04EF67D731F22D9
:10258000C82100904FF48C70FFF7A8FA3CA04EF6DB
:102590007D731F22B42100900020FFF79FFA3BA01B
:1025A0004EF67D731F22A02100900020FFF796FABF
:1025B00039A04EF67D731F228C2100900020FFF77A
:1025C0008DFA38A04EF67D731F22B42100904FF48F
:1025D0008C70FFF783FA33A04EF67D731F22A02183
:1025E00000904FF48C70FFF779FA30A04EF67D73AF
:1025F0001F226E2100906420FFF770FA2BA04EF688
:102600007D731F226E210090A020FFF767FA27A09C
:102610004EF67D731F226E210090DC20FFF75EFADC
:1026200024A04EF67D731F22462100900020FFF764
:1026300055FA2AA04EF67D731F221E2100906420B9
:10264000FFF74CFA08BD00004D61676E6574696361
:10265000206669656C642067656E657261746F726F
:102660002056312E30000000204F43312000000062
:102670004F4332004F433300205374657000000015
:10268000204672657128487A293A000020416D7011
:102690006C287825293A00002043757272286D4114
:1026A000293A00002020202020000000636C6F7376
:1026B000652000002054656D7065726174757265E7
:1026C0003A202020202020202020202743202020C6
:1026D000202020202020202020274300506F7765D5
:1026E00072566F6C746167653A202020202020208C
:1026F0006D56000030B50446EF2340F23F12002132
:10270000084600F037F94FF400600B4908604010AC
:10271000091F0860002506E0201200F0FFFBE0B270
:1027200000F0FCFB6D1CB5F5963FF5D34FF400604F
:102730000149091F086030BD140C014010B5FFF7B6
:10274000A1FE00F003F9112000F064F9002000F070
:1027500043F9CF2000F05EF9002000F03DF9C120E0
:1027600000F03AF9302000F037F9ED2000F052F98E
:10277000642000F031F9032000F02EF9122000F05F
:102780002BF9812000F028F9E82000F043F985209A
:1027900000F022F9112000F01FF9782000F01CF958
:1027A000F62000F037F9012000F016F9302000F093
:1027B00013F9002000F010F9CB2000F02BF939209C
:1027C00000F00AF92C2000F007F9002000F004F9CD
:1027D000342000F001F9052000F0FEF8F72000F0A9
:1027E00019F9202000F0F8F8EA2000F013F9002091
:1027F00000F0F2F8002000F0EFF8C02000F00AF935
:10280000202000F0E9F8C12000F004F9112000F0C8
:10281000E3F8C52000F0FEF8312000F0DDF83C20A0
:1028200000F0DAF8C72000F0F5F8A92000F0D4F89D
:102830003A2000F0EFF8552000F0CEF8362000F0F6
:10284000E9F8E82000F0C8F8B12000F0E3F8002033
:1028500000F0C2F8182000F0BFF8B42000F0DAF859
:10286000002000F0B9F8002000F0B6F8F22000F0E7
:10287000D1F8002000F0B0F8262000F0CBF80120BD
:1028800000F0AAF8E02000F0C5F80F2000F0A4F84E
:10289000172000F0A1F8142000F09EF8092000F0A5
:1028A0009BF80C2000F098F8062000F095F84320E3
:1028B00000F092F8752000F08FF8362000F08CF8C8
:1028C000082000F089F8132000F086F8052000F0B9
:1028D00083F8102000F080F80B2000F07DF808202D
:1028E00000F07AF8E12000F095F8002000F074F88C
:1028F0001F2000F071F8232000F06EF8032000F094
:102900006BF80E2000F068F8042000F065F839201C
:1029100000F062F8252000F05FF84D2000F05CF830
:10292000062000F059F80D2000F056F80B2000F0BA
:1029300053F8332000F050F8372000F04DF80F2006
:1029400000F04AF8292000F065F810BD10B54FF4EA
:10295000805007490860642002F088FA4FF48050E4
:102960000349091F0860322002F080FA10BD000000
:10297000140C0140F0B507460C4615461E462A20A9
:1029800000F048F8384600F03BF8284600F038F8E8
:102990002B2000F03FF8204600F032F8304600F0DF
:1029A0002FF82C2000F036F8F0BD30B504460D4667
:1029B0002A2000F02FF8C4F5A07188B200F020F8AA
:1029C0002B2000F027F8C5F1F00188B200F018F8CC
:1029D0002C2000F01FF830BD10B504464FF4006005
:1029E000064908604010091F0860204600F096FA6A
:1029F0004FF400600149091F086010BD140C01402C
:102A000010B504462012FFF7E7FFE0B2FFF7E4FF3E
:102A100010BD000010B504464FF400600649086080
:102A200040100860204600F079FA4FF40060024937
:102A3000091F086010BD0000140C014000BFFEE734
:102A40007047000070B5002100230F22C47804B342
:102A5000154C246804F4E064C4F5E064210AC1F173
:102A60000403CA40447804FA03F1847814402143F3
:102A700009010E4C0678A155047804F01F050124C5
:102A8000AC4005786D11AD0005F1E025C5F80041B9
:102A900009E0047804F01F050124AC40044D0678D9
:102AA000761145F8264070BD0CED00E000E400E032
:102AB00080E100E002490143024A116070470000D2
:102AC0000000FA050CED00E000B58DB00121C80250
:102AD00000F0C4F80121480300F0C0F801211C20D7
:102AE00000F0BCF818208DF8330003208DF8320078
:102AF0008020ADF830000CA93D48FEF7FBFE032016
:102B0000ADF830000CA93B48FEF7F4FE4FF4E0703E
:102B1000ADF830000CA93848FEF7ECFE0020ADF807
:102B20002A00ADF8260040F26710ADF8280000201A
:102B3000ADF824008DF82C0009A9304801F012F8F6
:102B40006020ADF804000020ADF80600ADF80800E4
:102B5000ADF80C00ADF80E00ADF81000ADF81200A5
:102B6000B420ADF80A0001A9244800F0EBFE0821CA
:102B7000224800F033FFB420ADF80A0001A91F4835
:102B800000F036FF08211D4800F084FFB420ADF8A6
:102B90000A0001A9194800F08BFF0821174800F02E
:102BA000D7FF0020ADF81400ADF81600ADF81800FE
:102BB0001B20ADF81A004FF48040ADF82000002033
:102BC000ADF81C004FF40050ADF81E0005A90B48ED
:102BD00000F048FE0121094800F038FE01210748B5
:102BE00000F062FE0121054800F052FE0DB000BD6C
:102BF00000080140000C0140001001400034014079
:102C00007047000001460020034A506820F440400D
:102C100008435060704700000010024029B1064A86
:102C2000D2690243044BDA6104E0034AD269824369
:102C3000014BDA61704700000010024029B1064ADA
:102C400012690243044B1A6104E0034A1269824389
:102C5000014B1A61704700000010024029B1064A7A
:102C600092690243044B9A6104E0034A92698243E9
:102C7000014B9A61704700000010024029B1064ADA
:102C8000D2680243044BDA6004E0034AD26882430C
:102C9000014BDA60704700000010024030B500219F
:102CA0000022002400232D4D6D6805F00C0121B198
:102CB000042905D0082923D105E0294D056022E02B
:102CC000274D05601FE0254D6D6805F47012234DFA
:102CD0006D6805F48034022505EB92421CB9214D44
:102CE000554305600BE01D4D6D6805F400351DB1C1
:102CF0001C4D5543056002E0194D5543056002E047
:102D0000174D056000BF00BF144D6D6805F0F00160
:102D10000909154D6B5C0568DD4045600F4D6D6818
:102D200005F4E061090A104D6B5C4568DD40856083
:102D30000A4D6D6805F46051C90A0B4D6B5C45681E
:102D4000DD40C560054D6D6805F44041890B074DB8
:102D50006B5CC568B5FBF3F5056130BD0010024042
:102D600000127A0000093D00000000201000002041
:102D70002DE9FC5F82460AF10301C8B20521FEF786
:102D800063FE0090009802F0F1FD80464FF066323D
:102D9000174B02F0FFFD06460022164B02F01AFC0C
:102DA000044602F035FB8346584602F0E7FF06462C
:102DB000114A124B02F05EFB044602F029FB8346E7
:102DC0000F49584603F096F904460E4903F090FA6D
:102DD00001900D49019803F08DF9064602F0CEFFEF
:102DE00021F00041044602F07DFD80B2BDE8FC9F69
:102DF00066660A400000B0401F85EB51B81EE13FF7
:102E0000000020410000C84100007A442DE9F0474D
:102E10000A210F20FEF74AFE054640F6E44005FB76
:102E200000F4E11704EB1151081303F003F9824693
:102E3000504602F0A3FF8046044A054B02F0AAFD6B
:102E4000064602F04FFD80B2BDE8F08785EB51B831
:102E50001E8518402DE9F84F8246FFF73DFA0AF02B
:102E6000FE00FFF707FAFFF781FA0020FFF702FAEA
:102E7000FFF77CFAFFF730FA4AF00100FFF7FAF9A2
:102E8000FFF774FA0120FFF7BDF983460020FFF732
:102E9000B9F90090FFF746FA009800EB0B2084B2D6
:102EA00064110BF08000F0B140F6FF300440E043C5
:102EB00084B2601C84B2204602F058FD074600220E
:102EC0004FF07F5302F066FD054602F0A1FA8146FD
:102ED0001049484603F0DAF902D20020BDE8F88F25
:102EE00089F00040FAE7204602F040FD0546002246
:102EF0004FF07F5302F04EFD074602F089FA8146FB
:102F00000549484603F0C2F901D20020E6E74846E9
:102F1000E4E70000000020420000F0420021082108
:102F200017E000F0800222B14FF400420A4B1A6011
:102F300004E04FF40042084B1B1D1A604FF400528E
:102F4000054B1B1D1A601B1F1A604206100E4A1EFD
:102F5000D1B20029E5DC7047100C01401FB50121FA
:102F60003220FFF75BFE40F20770ADF8080000204A
:102F7000ADF80400ADF806008DF80C0001A92F484B
:102F800000F0F0FD01A92E4800F0ECFD01A92D484C
:102F900000F0E8FD36208DF8000001208DF80300D8
:102FA00002208DF8010000208DF802006846FFF72E
:102FB00049FD37208DF8000001208DF80300022024
:102FC0008DF8010001208DF802006846FFF73AFDF8
:102FD0001D208DF8000001208DF8030002208DF8DF
:102FE00001008DF802006846FFF72CFD012113480F
:102FF00000F048FC0121124800F044FC0121114876
:1030000000F040FC012211460C4800F091FC012226
:1030100011460B4800F08CFC01221146094800F0D3
:1030200087FC0121054800F033FC0121044800F031
:103030002FFC0121034800F02BFC1FBD00100040B5
:103040000014004000040040704710B500F002F882
:1030500010BD00000CB500200190009033480068BE
:1030600040F480303149086000BF3048006800F407
:10307000003000900198401C0190009818B9019808
:10308000B0F5A06FF1D12948006800F4003010B10C
:103090000120009001E0002000900098012843D119
:1030A0002348006840F01000214908600846006885
:1030B00020F0030008600846006840F00200086045
:1030C0001A48406819494860084640684860084600
:1030D000406840F4806048600846406820F47C10F6
:1030E00048600846406840F4E810486008460068B8
:1030F00040F08070086000BF0C48006800F000706D
:103100000028F9D00948406820F0030007494860CA
:103110000846406840F00200486000BF034840682D
:1031200000F00C000828F9D10CBD0000001002408E
:103130000020024008B501210420FFF78FFD4FF465
:10314000C050ADF8000010208DF8030003208DF86A
:10315000020069460148FEF7CDFB08BD00080140AA
:1031600070B504460026FEF783FFA020FEF74CFF53
:10317000FEF7CAFF2012FEF747FFFEF7C5FF254600
:10318000E11704EB11610912A4EB0121C8B2FEF7AB
:103190003BFFFEF7B9FFFEF76BFFA120FEF734FF00
:1031A000FEF7B2FF0020FEF7F7FE0646FEF786FFA9
:1031B000304670BD70B504460E46FEF759FFA0209C
:1031C000FEF722FFFEF7A0FF2012FEF71DFFFEF71D
:1031D0009BFF2546E11704EB11610912A4EB0121C5
:1031E000C8B2FEF711FFFEF78FFF3046FEF70CFF67
:1031F000FEF78AFFFEF762FF0A2001F037FE70BD7E
:1032000000B587B001211020FFF728FD01218802B9
:10321000FFF724FD4FF40040FFF7F4FC00208DF889
:103220001B0003208DF81A002020ADF8180006A915
:103230001648FEF75FFB00208DF8090004904FF45C
:10324000602003900020019001208DF814000020E0
:103250008DF8080001A90E48FDF7F2FF01210C4886
:10326000FDF7C2FF0A48FEF76FF800BF0848FDF7F8
:10327000DDFF0028FAD10648FEF776F800BF0448C3
:10328000FDF7BDFF0028FAD107B000BD00100140D6
:1032900000280140042808D14FF0E021096941F0DD
:1032A00004014FF0E022116107E04FF0E0210969CD
:1032B00021F004014FF0E0221161704770470000D7
:1032C00010B51348006840F0010011490860084635
:1032D0004068104908400E494860084600680E4999
:1032E00008400B4908600846006820F48020086008
:1032F0000846406820F4FE0048604FF41F008860D4
:10330000FFF7A3FE4FF000600449086010BD000005
:10331000001002400000FFF8FFFFF6FE08ED00E09D
:1033200010B50121164800F0F2FA18B30120154932
:1033300008701549087015480088401C134908801A
:1033400008460088B0F5FA7F05DB012010490870B7
:1033500000200E4908800F480088401C0D49088055
:1033600008460088642805DB01200B49087000200E
:10337000084908800121024800F087FA10BD0000CA
:10338000002C014070000020710000207600002019
:103390006E000020780000206F00002010B5012191
:1033A000594800F0B4FA002846D00121564800F0F0
:1033B0006CFA5648007870B9554800884FF6FF31CE
:1033C000084053490880084600884FF6FF610840CE
:1033D0004F49088010BD4F480088401C4D49088067
:1033E0004D480078012828D14C48098830F8110050
:1033F00047491C3108804A48007888B14448008811
:103400004FF6FF310840424908800846008840F4E2
:1034100080700880002042490870012041490870EE
:103420003C4800884049097888426BDD00203949D2
:10343000088002203849087064E037480078022884
:1034400017D13948007833490988401A334931F88F
:1034500010002F491C3108802E4800883249097815
:1034600088424FDD00202B49088003202A4908703C
:1034700048E029480078032829D1284825490988A7
:1034800030F8110022491C3108802648007888B1A4
:103490001F4800884FF6FF6108401D490880084614
:1034A000008840F48060088000201E4908700120D8
:1034B0001B490870174800881B490978884221DD9C
:1034C0000020144908800420134908701AE01248AB
:1034D0000078042816D1144800780E490988401A4B
:1034E0000E4931F810000A491C310880094800884B
:1034F0000D490978884205DD002006490880012031
:103500000549087000BF65E70004004088000020FE
:10351000203401408E0000207C000020700100203B
:1035200082000020830000207F00002010B50121D0
:10353000594800F0ECF9002846D00121564800F027
:10354000A4F95648007870B9554800884FF6BF7105
:10355000084053490880084600884FF6EF7108403C
:103560004F49088010BD4F480088401C4D490880D5
:103570004D480078012828D14C48098830F81100BE
:103580004749183108804A48007888B14448008883
:103590004FF6BF710840424908800846008840F055
:1035A000100008800020424908700120414908703D
:1035B0003C4800884049097888426BDD0020394941
:1035C000088002203849087064E0374800780228F3
:1035D00017D13948007833490988411A334830F8FF
:1035E00011002F49183108802E4800883249097887
:1035F00088424FDD00202B49088003202A490870AB
:1036000048E029480078032829D128482549098815
:1036100030F811002249183108802648007888B116
:103620001F4800884FF6EF7108401D490880084682
:10363000008840F04000088000201E4908700120EA
:103640001B490870174800881B490978884221DD0A
:103650000020144908800420134908701AE0124819
:103660000078042816D1144800780E490988411AB8
:103670000E4830F811000A491831088009480088BE
:103680000D490978884205DD00200649088001209F
:103690000549087000BF65E7001000408900002060
:1036A00020340140900000207D0000200A0300200B
:1036B00084000020850000208000002010B501213A
:1036C000594800F024F9002846D00121564800F05E
:1036D000DCF85648007870B9554800884FF6FB7101
:1036E000084053490880084600884FF6FE7108409C
:1036F0004F49088010BD4F480088401C4D49088044
:103700004D480078012828D14C48098830F811002C
:103710004749143108804A48007888B144480088F5
:103720004FF6FB710840424908800846008840F087
:1037300001000880002042490870012041490870BA
:103740003C4800884049097888426BDD00203949AF
:10375000088002203849087064E037480078022861
:1037600017D13948007833490988411A334830F86D
:1037700011002F49143108802E48008832490978F9
:1037800088424FDD00202B49088003202A49087019
:1037900048E029480078032829D128482549098884
:1037A00030F811002249143108802648007888B189
:1037B0001F4800884FF6FE7108401D4908800846E2
:1037C000008840F00400088000201E490870012095
:1037D0001B490870174800881B490978884221DD79
:1037E0000020144908800420134908701AE0124888
:1037F0000078042816D1144800780E490988411A27
:103800000E4830F811000A49143108800948008830
:103810000D490978884205DD00200649088001200D
:103820000549087000BF65E7001400408A000020C9
:1038300020340140920000207E000020A4040020DB
:1038400086000020870000208100002021B102882E
:1038500042F08002028004E002884FF67F731A4033
:10386000028070470A884B881A438B881A43CB889A
:103870001A430B891A434B891A438B891A43A0F8C0
:1038800044207047CA4302827047CA43028270478D
:1038900021B1028842F00102028004E002884FF662
:1038A000FE731A400280704731B1B0F8442042F4F0
:1038B0000042A0F8442005E0B0F84420C2F30E0214
:1038C000A0F844207047F0B50C4615461E4600216E
:1038D000002200230189028B038C4FF6F8773940D0
:1038E00021434FF6FC473A4040F201173A434FF666
:1038F000DD773B404FF6FF7707EA06172F433B4340
:10390000018102830384F0BD0146888C704730B585
:103910000246002000230024158A05EA0103958948
:1039200005EA010413B10CB1012000E0002030BD14
:103930001AB183890B43838102E083898B4383819E
:103940007047000070B5002400220023058C4FF65C
:10395000FE7635400584028C8388048B4FF68F7584
:103960002C40B51E2C400D882C43751E2A400D8915
:103970002A434D882A43144DA8420BD0134DA84228
:1039800008D0134DA84205D0124DA84202D0124DC6
:10399000A84213D14FF6F7752A404D892A434FF6B6
:1039A000FB752A408D882A434FF6FF652B404FF662
:1039B000FF552B408D892B43CD892B438380048376
:1039C000CD888586028470BD002C01400034014002
:1039D0000040014000440140004801400A460021E7
:1039E000018B4FF6F77319401143018370470000B4
:1039F00070B5002400220023058C4FF6EF76354089
:103A00000584028C8388048B48F6FF752C404FF6A2
:103A1000FF452C400D884FF6FF7606EA05252C431E
:103A20004FF6DF752A400D8906EA05152A434D88B1
:103A300006EA05152A43154DA84202D0144DA842A6
:103A40001DD14FF67F752A404D894FF6FF7606EA65
:103A500005152A434FF6BF752A408D8806EA0515DD
:103A60002A434FF6FF352B404FF2FF752B408D89CF
:103A700006EA85052B43CD8906EA85052B4383801D
:103A80000483CD880587028470BD0000002C0140AE
:103A9000003401400A460021018B4FF2FF731940A8
:103AA0004FF6FF7303EA02231943018370470000B6
:103AB00070B5002400220023058C4FF6FF663540C8
:103AC0000584028C8388848B4FF68F752C404FF6CB
:103AD000FC752C400D882C434FF6FF552A400D896C
:103AE0004FF6FF7606EA05252A434D8806EA0525A6
:103AF0002A43154DA84202D0144DA8421DD14FF2C1
:103B0000FF752A404D894FF6FF7606EA05252A43C0
:103B10004FF6FF352A408D8806EA05252A434EF6E2
:103B2000FF752B404DF6FF752B408D8906EA051574
:103B30002B43CD8906EA05152B4383808483CD88EA
:103B40008587028470BD0000002C014000340140D4
:103B50000A460021818B4FF6F77319401143818388
:103B600070470000002202881D4B98420ED01D4B6A
:103B700098420BD0B0F1804F08D01B4B984205D033
:103B80001A4B984202D01A4B984204D14FF68F73C9
:103B90001A404B881A43174B984207D0164B98424D
:103BA00004D04FF6FF431A40CB881A4302808B881B
:103BB00083850B8803850A4B98420BD0094B9842AA
:103BC00008D00E4B984205D00D4B984202D00D4BB9
:103BD000984201D10B7A038601238382704700004B
:103BE000002C014000340140000400400008004067
:103BF000000C004000100040001400400040014054
:103C0000004401400048014021B1028842F0020214
:103C1000028004E002884FF6FD731A40028070476C
:103C200070B5002400BF5B4A1588EA1705EB1262E5
:103C3000C2F307212046FFF7BDFA641C554A1588D8
:103C4000EA1705EB12621212A5EB0222D1B220464E
:103C5000FFF7B0FA641C4F4A5588EA1705EB126269
:103C6000C2F307212046FFF7A5FA641C494A55888C
:103C7000EA1705EB12621212A5EB0222D1B220461E
:103C8000FFF798FA641C434A9588EA1705EB12621D
:103C9000C2F307212046FFF78DFA641C3D4A958840
:103CA000EA1705EB12621212A5EB0222D1B22046EE
:103CB000FFF780FA641C0024374A1268110E04F5DD
:103CC0008050FFF777FA641C334A1268C2F3074149
:103CD00004F58050FFF76EFA641C2F4A1288C2F375
:103CE000072104F58050FFF765FA641C2A4A117811
:103CF00004F58050FFF75EFA641C274A5268110EE3
:103D000004F58050FFF756FA641C234A5268C2F348
:103D1000074104F58050FFF74DFA641C1E4A928853
:103D2000C2F3072104F58050FFF744FA641C1A4AD5
:103D3000117904F58050FFF73DFA601CC4B2164AB1
:103D40009268110E04F58050FFF734FA601CC4B27B
:103D5000114A9268C2F3074104F58050FFF72AFA2E
:103D6000601CC4B20C4A1289C2F3072104F58050CA
:103D7000FFF720FA601CC4B2074A117A04F580509C
:103D8000FFF718FA601CC4B2552141F23420FFF746
:103D900011FA70BD260000202C00002008B56CA090
:103DA0004FF6FF731F22C82100906420FDF796FE96
:103DB00069A04FF6FF731F22C8210090A020FDF7D5
:103DC0008DFE67A04FF6FF731F22C8210090DC20F4
:103DD000FDF784FE64480078012809D15CA04FF407
:103DE00078430022C82100906420FDF777FE19E097
:103DF0005D480078022809D157A04FF4FC630022E7
:103E0000C8210090A020FDF769FE0BE0564800781D
:103E1000032807D152A01F230022C8210090DC20D4
:103E2000FDF75CFE5148007848B951A04EF67D730D
:103E30001F226E2100906420FDF750FE08E04EA086
:103E40004FF6E0731F226E2100906420FDF746FEBE
:103E50004B48007848B946A04EF67D731F226E216C
:103E60000090A020FDF73AFE08E043A04FF6E07373
:103E70001F226E210090A020FDF730FE41480078FF
:103E800048B93BA04EF67D731F226E210090DC20C6
:103E9000FDF724FE08E038A04FF6E0731F226E21E4
:103EA0000090DC20FDF71AFE374800684EF67D735F
:103EB0001F22B42100906420FDF7DEFE3348008805
:103EC0004EF67D731F22A02100906420FDF70CFFA9
:103ED0002D4840684EF67D731F22B4210090A0202B
:103EE000FDF7CAFE294840884EF67D731F22A021A7
:103EF00000900846FDF7F8FE234880684EF67D7373
:103F00001F22B4210090DC20FDF7B6FE1F488088F8
:103F10004EF67D731F22A0210090DC20FDF7E4FE09
:103F20001B4800884EF67D731F22B42100904FF489
:103F30008C70FDF7D9FE174800884EF67D731F225E
:103F4000A02100904FF48C70FDF7CEFE08BD00005C
:103F5000204F433120000000204F4332200000005A
:103F6000204F433320000000210000208800002063
:103F7000636C6F7365200000204F70656E20000039
:103F8000890000208A0000202C000020260000204C
:103F9000220000202400002070B50446424800881A
:103FA00084423BDA40490988081B00EBD071C1F319
:103FB0004F053D4804801E2D00DD70BD3B48007854
:103FC000401E3B4931F810003A49098805FB1100B1
:103FD00081B236480078401E354A22F81010334826
:103FE0000078401E114631F81000012806DA012140
:103FF0002E480078401E22F810103AE02B48007836
:10400000401E2B4931F81000632832DD012127487A
:104010000078401E264A22F810102AE0224909881A
:10402000601A00EBD071C1F34F051F4804801E2DAC
:1040300000DDC2E71D480078401E1D4931F8100020
:104040001C49098805FB010081B218480078401E10
:10405000174A22F8101015480078401E114631F812
:104060001000632805DD632110480078401E22F807
:10407000101001201049087010490870104908708C
:104080000A480078401E0A4B13F8102007480078B1
:10409000401E0C4B33F8200081B20448007800F039
:1040A0007DFA00BF89E700001E00002021000020EB
:1040B0002600002024000020720000207300002051
:1040C000740000202C00002070B50446424800888F
:1040D00084423BDA40490988081B00EBD071C1F3E8
:1040E0004F053D4804801E2D00DD70BD3B48007823
:1040F000401E3B4951F820003A49098805FB11014F
:1041000036480078401E364A42F82010334800787E
:10411000401E114651F82000642806D264212F4821
:104120000078401E42F820103CE02C480078401EE9
:104130002B4951F82000B0F57A7F33D96421274804
:104140000078401E264A42F820102BE022490988B8
:10415000601A00EBD071C1F34F051F4804801E2D7B
:1041600000DDC2E71D480078401E1D4951F82000BF
:104170001C49098805FB010118480078401E184AAF
:1041800042F8201015480078401E114651F82000D2
:10419000B0F57A7F06D94FF47A7110480078401E46
:1041A00042F8201001201049087010490870104989
:1041B00008700A480078401E0E4B13F8102007487C
:1041C0000078401E064B33F8200081B20348007887
:1041D00000F0E4F900BF88E71A0000202100002069
:1041E0002C0000202200002072000020730000201C
:1041F000740000202600002001280AD10021124A64
:1042000011600121114AC2F884110F4A083A116065
:1042100019E002280BD101210B4A116000210B4A41
:10422000C2F884110121084A083A11600BE0032802
:1042300009D10121044A1160044AC2F88411002105
:10424000014A083A11607047880122420000224268
:104250001FB50121C802FEF701FD6320ADF808007B
:1042600041F61F40ADF804000020ADF80A00ADF89B
:1042700006008DF80C0001A90F48FFF773FC192008
:104280008DF8000001208DF8030000208DF801005A
:104290008DF802006846FEF7D5FB01210648FFF7BE
:1042A000F1FA012211460448FFF742FB01210248BE
:1042B000FFF7EEFA1FBD0000002C014010B540F2E0
:1042C00025511D4800F0A8F810B31B4800F060F914
:1042D000C4B21A48008800F40040C8B917480088E2
:1042E00000F4804060B10A2C03D0002013490880FC
:1042F00020E01248008840F400401049088019E08E
:104300000D2C06D10D48008840F480400B490880F0
:1043100010E00A480088C0F30D0009490C54074812
:104320000088401C0549088008460088C72801DD30
:104330000020088010BD0000003801406C00002003
:10434000A800002010B540F22551054800F064F89F
:1043500020B1034800F01CF9C4B200BF10BD00003A
:104360000044004021B1828942F40052828104E07D
:1043700082894DF6FF731A408281704710B504465A
:104380002048844209D101218803FEF777FC0021EF
:104390004FF48040FEF772FC32E01B48844209D1A2
:1043A00001214804FEF74AFC00214FF40030FEF7DB
:1043B00045FC25E01548844209D101218804FEF717
:1043C0003DFC00214FF48020FEF738FC18E0104837
:1043D000844209D10121C804FEF730FC00214FF4CA
:1043E0000020FEF72BFC0BE00A48844208D1012193
:1043F0000805FEF723FC00214FF48010FEF71EFC99
:1044000010BD00000038014000440040004800405A
:10441000004C00400050004070B5024600240023CC
:104420000025002040F66A16B14200D100BFC1F35A
:10443000421501F01F03012606FA03F3012D02D1F4
:104440009689334006E0022D02D1168A334001E0FE
:10445000968A33400C12012606FA04F4168834407A
:1044600013B10CB1012000E0002070BDF0B503468F
:10447000002400260025002040F66A17B94200D12A
:1044800000BF1846C1F3421401F01F06012707FAC6
:1044900006F5012C01D10C3004E0022C01D11030C2
:1044A00000E014301AB107682F43076002E0076884
:1044B000AF430760F0BD00002DE9F04786B0054628
:1044C0000E460024A24600BFA1460027B08900B1D5
:1044D00000BF2F462C8A4CF6FF700440F08804433E
:1044E0002C82AC894EF6F3100440B0883189084321
:1044F000718908430443AC81AC8A4FF6FF40044005
:10450000B0890443AC8201A8FEF7C8FB1F4887426C
:1045100002D1DDF810A001E0DDF80CA0A88900F4BC
:10452000004040B10AEBCA0000EB0A1031684900B4
:10453000B0FBF1F807E00AEBCA0000EB0A103168A3
:104540008900B0FBF1F86420B8FBF0F00401200909
:10455000642101FB1089A88900F4004040B1322099
:1045600000EBC900B0FBF1F000F00700044308E0E5
:10457000322000EB09106421B0FBF1F000F00F00D5
:1045800004432C8106B0BDE8F087000000380140EC
:1045900001468888C0F30800704700002DE9F04FFD
:1045A0008FB0064689469246B9F1640F02DBB9F531
:1045B0007A7F02DD0FB0BDE8F08FBAF1630F00DD46
:1045C000F8E749F6404191FBF9F0C11700EB917112
:1045D000C1F38F05C82D00DDC825504601F042FD0E
:1045E00080466C4901F064FC07466B4901F082FD8E
:1045F0008346012E04D0022E45D0032E42D184E002
:1046000066490D7000243BE0284601F0AFF9CDE982
:104610000601204601F0AAF9614A624BCDE900018A
:1046200001F0B8F900224FF08043CDE9020100F01B
:10463000D1FFCDE90401DDE9062300F0CBFFCDE990
:10464000080100F02BFE07468846584601F096FB0D
:104650003A464346CDE90A0101F09CF9CDE90C0147
:1046600001F040F950490988084481B2701ECD22FA
:1046700050434E4A02EB400020F81410601CC4B2B4
:10468000AC42C1DB83E04A490D7000243AE0284681
:1046900001F06CF9CDE90401204601F067F9404AC8
:1046A000404BCDE9000101F075F9074600224FF0BB
:1046B000804300F08FFFCDE90201DDE9042300F023
:1046C00089FFCDE9060100F0E9FDCDE90A01584670
:1046D00001F054FBCDE90801DDE90A2301F05AF9A4
:1046E000CDE90C0101F0FEF82F490988084481B298
:1046F000701ECD2250432D4A02EB400020F81410CA
:10470000601CC4B2AC42C2DB41E02A490D700024F7
:104710003AE0284601F02AF9CDE90401204601F0EB
:1047200025F91F4A1F4BCDE9000101F033F9074677
:1047300000224FF0804300F04DFFCDE90201DDE99A
:10474000042300F047FFCDE9060100F0A7FDCDE905
:104750000A01584601F012FBCDE90801DDE90A2300
:1047600001F018F9CDE90C0101F0BCF80E490988F7
:10477000084481B2701ECD2250430C4A02EB400027
:1047800020F81410601CC4B2AC42C2DB00BF00BFF2
:1047900000BF0FE70000C8420000B4437F000020C4
:1047A0002BE74130FD2109408C00002070010020E2
:1047B000800000208100002000BFFEE7490050EA91
:1047C000C12018BF04204A0D18BF40F0010040F27C
:1047D000FF72B2EB515F08BF40F00200012808BF32
:1047E000052070472DE9F74F144694B00021C4E925
:1047F00002111599079121F00045C9498D4206DC47
:104800001599C4E9000117B00020BDE8F08FC54933
:10481000DFF814A3A9423CDD0799C44E0029C44F18
:10482000C44A1599534619DD01F0BEF9554506D025
:10483000C14AC24B01F0B8F9C4E900010AE04FF0E7
:10484000D352BE4B01F0B0F932463B4601F0ACF911
:10485000C4E9000117B00120BDE8F08F00F00AFEA6
:10486000554506D0B44AB54B00F004FEC4E900013A
:104870000AE04FF0D352B14B00F0FCFD32463B460C
:1048800000F0F8FDC4E9000117B04FF0FF30BDE8BB
:10489000F08FAB49A942159978DB21F0004183469E
:1048A0008846A84AA84B01F075F80022A74B00F0F3
:1048B000E1FD00F0E7FF099001F041F806460F46E0
:1048C0009C4A534601F066F843465A4601F060F9A7
:1048D00080468A46984A994B3046394601F05AF844
:1048E0002A0D01250B924246534601F051F9032D42
:1048F000C4E9000139D00B98C1F30A51401A05EB05
:1049000045111139814230DA9148C346784400EBB1
:104910000510CDF80CA00C90D0E9002330463946A4
:1049200001F038F802460B46049106905846039968
:1049300001F03AF980468A4602460B4658460399EA
:1049400001F032F9049B069A01F02EF983460C9887
:1049500003913946D0E90223304601F01BF85A464C
:10496000039B01F021F96D1CBDE707980028A2BF49
:10497000099817B0BDE8F08F616881F0004161606F
:10498000099817B04042BDE8F08FFFE784461598BC
:10499000C1F31301C0F30A50A0F2F5304FEA6018DA
:1049A00000F01F06C6F1200013900020069007902B
:1049B00041F4801E05206D4676B1664A08EB000181
:1049C0007A4452F8213002EB8101B3404A681399CE
:1049D00022FA01F1194305E05F4908EB000279442E
:1049E00051F82210A1FB0E27A1FB0C131A449A4286
:1049F00034BF0123002303EB070A05EB8003D3E94F
:104A000001B70F448F4234BF0121002193448B44EE
:104A100011B1934502D903E0934501D2012100E091
:104A20000021C3E901B7514445F82010011EA0F14F
:104A30000100C1DC0298059F00F10050800F129028
:104A40000298DDE90356800000F079FF834628468E
:104A50000D9100F08BFF6FF01D0201F0F2FCCDE92B
:104A60000E01304600F082FF6FF03D0201F0E9FCDC
:104A700080468A46384600F079FF6FF05D0201F00B
:104A8000E0FC074642465346119100F0F3FCDDE995
:104A90000E2300F0EFFC5A460D9B00F0EBFC0025C6
:104AA0000E465A4628460D9B01F07EF8DDE90E239E
:104AB00001F07AF84246534601F076F83A46119BE7
:104AC00001F066F8DFF898A0244A534600F062FF30
:104AD00007468846234A244B3146284600F05AFFB1
:104AE0003A46434600F0C6FC074688464FF0A842C7
:104AF00053463146284600F04DFF3A46434600F003
:104B0000B9FC159A12F0004F04D0129A81F00041BE
:104B100052421292C4E90001129817B0BDE8F08F1A
:104B2000FB21E93F7CD90240FB21F93F7370032E42
:104B30008A19A33B000040543163621A61B4D03D2E
:104B4000FB21394183C8C96D305FE43F0000E03F7D
:104B5000D03500004C3500002E350000182D44548F
:104B6000FB21F93D3326A611460B113C2DE9FF4DE3
:104B700021F0004807460C46B8F1795F08DA00F0EA
:104B800081FE002801BF0020324904B0BDE8F08D4D
:104B90003A4623461046194600F0FCFE05460246FA
:104BA0002D480E460B460621784400F05DF82A4653
:104BB000334600F0EFFEDDE9022382468B4638469D
:104BC000214600F0E7FE04460F4652465B46284663
:104BD000314600F0DFFE22463B4600F0E5FF074687
:104BE0008A464FF0FF322846314601F02AFC1B4A24
:104BF00090450ADA3A46534600F0D6FF04B0002248
:104C0000BDE8F04D134B00F0C3BF154A4245A8BFA5
:104C1000A8F500154FF00004B8BF124D22462B46F0
:104C200000F0C2FF0646884622462B46002009496E
:104C300000F0BAFF04460D463A4653463046414618
:104C400000F0B2FF04B022462B46BDE8F04D00F064
:104C50009FBF00000000F03F043300003333D33F18
:104C60000000E93F0000D23F2DE9F0414F1E00EB6C
:104C7000C7010446D1E9000115461E4637F0060279
:104C80000DD02A46334600F085FE7F1E04EBC70395
:104C9000D3E9002300F0EEFB37F00602F1D1022F3A
:104CA00025D0042F13D0062F18BFBDE8F0812A4667
:104CB000334600F06FFED4E90A2300F0DBFB2A46FE
:104CC000334600F067FED4E9082300F0D3FB2A4600
:104CD000334600F05FFED4E9062300F0CBFB2A4602
:104CE000334600F057FED4E9042300F0C3FB2A4604
:104CF000334600F04FFED4E9022300F0BBFB2A4606
:104D0000334600F047FED4E90023BDE8F04100F04F
:104D1000B1BB00002DE9FF4D054621F0004084B0F5
:104D20000C46B0F1795F0BDA2846FFF747FD0428FF
:104D300008BF00F06FF8284608B02146BDE8F08DA6
:104D40002A460B46104600F025FE06460F462A4628
:104D5000234600F01FFE804626488A4632463B46E0
:104D600005217844FFF780FF83461098029160B3D5
:104D7000214A224B4046514600F00CFECDE900018D
:104D80005A4640465146029B00F004FE8246884641
:104D9000DDE906014FF0FF3201F053FB5246434676
:104DA00000F002FF32463B4600F0F4FDDDE9062349
:104DB00000F0FAFEDDE9002300F0F6FE08B02A4616
:104DC0002346BDE8F04D00F0E3BE0B465A463046A0
:104DD000394600F0DFFD084A084B00F04BFB424625
:104DE000534600F0D7FD08B02A462346BDE8F04DF3
:104DF00000F040BB42320000495555555555C5BFDE
:104E0000012201F01EBB002213461046114600F09D
:104E1000E1BB0000024A0020110701F012BB0000B4
:104E200001FDFFFF00BF704710B56FF00400FEF7F3
:104E300031FA0A4800680A49B0FBF1F009490870E4
:104E40000846007800EB4001C1EBC0104FF6FF713F
:104E500001EAC0000449088010BD00009400002051
:104E600000127A0014000020160000200146114AAA
:104E700012884A434FF0E0235A6100229A611A4691
:104E8000126942F001021A6100BF4FF0E02210697E
:104E900000F001021AB100F48032002AF5D04FF080
:104EA000E022126922F001024FF0E0231A61002291
:104EB0009A617047160000200146114A12784A4351
:104EC0004FF0E0235A6100229A611A46126942F0BB
:104ED00001021A6100BF4FF0E022106900F00102E8
:104EE0001AB100F48032002AF5D04FF0E0221269A6
:104EF00022F001024FF0E0231A6100229A6170470C
:104F00001400002000BF054A128802F04002002A67
:104F1000F9D0C2B2014B1B1D1A8070470038014006
:104F200008B5FFF781FF4FF4E060FDF7C3FD4FF4D4
:104F3000165000F003FAFDF7C7FDFCF789FAFFF7FA
:104F400087F9FDF7EFFAFCF731FAFEF759F9FDF7AB
:104F50003FFAFDF7ADFAFCF70DFAFCF78FFCFEF710
:104F6000E9F8FDF7FBFFFCF709FFFEF717FF9D4887
:104F700002789D48008881B20120FFF70FFB994815
:104F800082789948808881B20220FFF707FB954814
:104F900002799548008981B20320FFF7FFFA0120CA
:104FA000924908601DE19148006808B9012000E0BD
:104FB00000208E4908608E48007878B300208C4924
:104FC00008700120FDF7D4FE8A4908800220FDF711
:104FD000CFFE884948800320FDF7CAFE85498880B6
:104FE000084600884EF67D731F228C2100906420B5
:104FF000FCF77AFE7F4840884EF67D731F228C2195
:105000000090A020FCF770FE7A4880884EF67D73F1
:105010001F228C210090DC20FCF766FE7648007889
:1050200010B10020744908707448007890B10020D5
:1050300072490870FDF7EAFE04464FF6E0731F223E
:105040001E21D2200094FCF74FFE072C02DA6CA040
:10505000FBF7EAF87848007800286DD00020764900
:105060000870002201217548FEF762FC0022012130
:105070007348FEF75DFC002201217248FEF758FCE0
:1050800000217048FEF7C0FD00216C48FEF7BCFD12
:1050900000216B48FEF7B8FD00216848FEF7F8FBD9
:1050A00000216748FEF7F4FB00216648FEF7F0FB9D
:1050B0009020FDF7CFFE07469220FDF7CBFE8046FD
:1050C000012211465D48FEF733FC012211465C487F
:1050D000FEF72EFC012211465A48FEF729FC012159
:1050E0005848FEF791FD01215448FEF78DFD01213E
:1050F0005348FEF789FD01215048FEF7C9FB012105
:105100004F48FEF7C5FB01214E48FEF7C1FB38466C
:1051100000F034FE05462A460B464BA14B48FBF7F0
:105120008FF8404600F02AFE05462A460B4646A167
:105130004748FBF785F800E01EE046A04EF67D7379
:105140001F22462100900020FCF7C8FC3F484FF684
:10515000E0731F22462100906E20FCF7BFFC3C4804
:105160004FF6E0731F2246210090E120FCF7B6FCC9
:1051700001201E49091D08604048007820B1002028
:105180003E490870FEF74CFD3D48007808B300200A
:105190003B4908703B48FEF7B7FB3B49088008468F
:1051A00000883A490988884203D037480088FEF7CA
:1051B0008BFF4FF08040FEF7A7FB3549088008467B
:1051C000008834490988884203D031480088FEF7B6
:1051D000E3FE3148007820B100202F490870FEF727
:1051E000DDFDE0E6260000202C000020A081214209
:1051F0007000002038000020740000206F000020A4
:10520000092A2A2A2A2A2A2A2A2A2A2A2A2A2A2A1F
:105210002A2A09204572726F72203A506F776572A0
:10522000204661756C7421092A2A2A2A2A2A2A2AE8
:105230002A2A2A2A2A0D0A006E00002000100040A7
:105240000014004000040040256600003E000020DD
:10525000520000202054656D70657261747572652E
:105260003A202020202020202020202743202020FA
:105270002020202020202020202743007300002011
:105280007100002000080040180000201A000020D3
:105290001C0000201E0000207200002000B5254BDD
:1052A00021F0004287B09A4203DC002213460092AC
:1052B0002BE0214B9A4208D140B94FF00100FBF797
:1052C00010F8FFF7A0FD07B000BD03DBFFF798FD66
:1052D00007B000BD02AAFFF785FA10F003014FF0F6
:1052E00001000DD0012914D002291AD00DF1080CAB
:1052F0009CE80F00FFF73AFC07B081F0004100BDC9
:105300000DF1080C00909CE80F00FFF703FD07B0BB
:1053100000BD0DF1080C9CE80F00FFF727FC07B05B
:1053200000BD0DF1080C00909CE80F00FFF7F2FCA7
:10533000E2E70000FB21E93F0000F07F10B586B0F6
:105340000446012144F20400FDF788FC2348FFF7DE
:1053500015F84FF40070ADF8140003208DF8160016
:1053600018208DF8170005A91D48FCF7C3FA4FF463
:105370008060ADF8140004208DF8170005A91848C6
:10538000FCF7B8FA25208DF8000003208DF8010005
:105390008DF8020001208DF803006846FDF752FBEE
:1053A00001940020ADF80800ADF80A00ADF80C003B
:1053B000ADF810000C20ADF80E0001A90748FFF76A
:1053C0007BF8012240F225510448FFF74FF80121F4
:1053D0000248FEF7C7FF06B010BD000000380140CC
:1053E0000008014010B500290AD00878002807D02D
:1053F00005487844FBF7F0FA002801D0002010BDE2
:105400000248784410BD0000922C00008A2C000055
:1054100021F00042A2F16052B2F5801F01F000437A
:1054200028BFD2F17F6C0BD95FEA001C43EAC202AD
:1054300042EB507018BF704728BF20F00100704742
:10544000B2F5801FBCBF184670474FEA410C1CF5EF
:10545000001F02D2084600F014BF70B500F044FBF4
:1054600000000089FFF7F6BF4FF00040A0F5800074
:105470007047000010B591EA030F48BF83F0004366
:1054800000F19A83841A71EB030C05D2121943EBD5
:105490000C03001B61EB0C01DFF824E14FEA11540F
:1054A000A4EB135C1EEA430F18BF9EEA445F73D05F
:1054B00023EA0E03DCF1200E21EA045143F48013A9
:1054C00032D322FA0CFE10EB0E0023FA0CFE41EB55
:1054D0000E01CCF1200E03FA0EFE10EB0E0051F17E
:1054E0000001B1F5801FCCF1200E32D201EB045146
:1054F00012FA0EF2BDE8104058BF7047401C38BF8A
:105500005FEA420218BF7047002814BF20F0010074
:1055100041F100014FEA410313F5001F38BF704706
:10552000A1F1C04100F02EBB012A43EB0302ACF114
:10553000200CDCF11F0E32BF4FF0000E23FA0CF3EB
:1055400010EB030041EB0451B4EB115FD0D0A1EBA1
:10555000045101F5801149085FEA300001EB045164
:105560000ED350F1000038BF12FA0EFE08D1BDE88C
:105570001040C9E7401C38BF5FEA4202CAD1C3E706
:10558000BDE810404FEA410313F5001F38BF7047D4
:10559000A1F1C04100F0F6BA9EEA445F08D011EADA
:1055A0005E0FBDE8104004BF01F0004100207047CD
:1055B000BDE8104070B500F097FA00BF64FBBE3E36
:1055C0000000E0FF02494FF0000000F008BF00BFFC
:1055D0000000F87F2DE9C04130B4DFF8A0C23CEAFA
:1055E000111418BF3CEA131400F0EC8081EA0305A3
:1055F0001CEA111444EAD57418BF1CEA131500F014
:10560000C780A4EB05044FF0004545EAC12145EAF7
:10561000C32341EA505143EA525304F17F74994243
:1056200004F500344FEAC0204FEAC22208BF90427E
:1056300000F09C804FEA13650FF24016765D4FEA4A
:10564000134506FB05F7C7F1807706FB07F74FEA1E
:10565000D737A7FB03687642C8F58038A7FB06CE8C
:1056600038BFA8F1010807FB08E64FF0000EA6FBC3
:10567000028CE6FB03CEDCF1000CCEF1004E38BF0D
:10568000AEF1010EA6FB0C584FF000074FF00005DD
:10569000E6FB0E87A1FB08C6A0FB07CE16EB0E06A5
:1056A00045F10005E1FB076515F1E04E7EBFA4F56D
:1056B00080345FEA46066D4116F1800745F100052A
:1056C0004FEA17274FEA066647EA0567A6F1DE4666
:1056D000B6F1805F4FEA15251FD9384624F0010C3A
:1056E00005EBC471BCF1FE6F01EB0C1102D8F0BCEC
:1056F000BDE8008124425CBF01F5801E9EEAC47FA4
:1057000002D4F0BCBDE80081244238D4F0BCA1F141
:10571000C041BDE8004100F035BA4FEAD22242EA6A
:1057200043524FEAD323A7FB02864FEAD02040EA38
:10573000415007FB03661EEA0E0F4FEAD12105FB1D
:10574000026658BFA6EB0056B6EB00564FEA520E63
:105750004EEAC37E18EB0E0E56EB530EBDD518EB7A
:1057600002085E417F1C55F10005B6E74FF4801535
:105770004FF000074FF000064FF00008ADE7F0BC17
:105780004FF0000001F1C04101F00041BDE800818F
:1057900011EA0C1F0CEA131500D00CE013EA0C1FE1
:1057A00000F025804FF00000F0BC81EA030101F019
:1057B0000041BDE80081F0BCBDE8004181EA030181
:1057C00000F0E0B9F0BCBDE8004170B500F08CF924
:1057D000097EFC3E00F007B881EA03014FF00000AB
:1057E00001F00041704781EA030100F0CBB9F0BC41
:1057F000BDE800414FF0000021497047FFFDFBF973
:10580000F7F5F4F2F0EEEDEBE9E8E6E4E3E1E0DEF3
:10581000DDDBDAD8D7D5D4D3D1D0CFCDCCCBCAC865
:10582000C7C6C5C4C2C1C0BFBEBDBCBBBAB9B8B78C
:10583000B6B5B4B3B2B1B0AFAEADACABAAA9A8A87F
:10584000A7A6A5A4A3A3A2A1A09F9F9E9D9C9C9B4D
:105850009A999998979796959594939392919190F8
:105860008F8F8E8E8D8C8C8B8B8A89898888878789
:105870008685858484838382828181800000FF07FE
:105880000000F87F4FEA41034FEA5353A3F58063CA
:10589000D3F11E03C8BFD3F1210C0CDD4FF0004241
:1058A00042EAC12242EA505232FA03FC8CEAE17C1D
:1058B000ACEBE1707047102BC4BF0020704703F5BC
:1058C000787CBCF1FF3F04D06FF0004282EA2100F7
:1058D000704770B500F008F94992248000207047A5
:1058E000F2E700004FEA1153A3F58063D3F11E03E2
:1058F000A8BFD3F1200C08DB4FF0004242EAC122DE
:1059000052EA505232FA03F0704709420BD4102B7E
:10591000C4BF0020704703F5787CBCF1FF3F05D081
:105920004FF0FF3070474FF00000704770B500F047
:10593000DBF800BF4992248000207047F0E710F0A8
:10594000004248BF4042B0FA80F310FA03F10AD097
:10595000C3F11D0303F580634FEA415002EB03528C
:1059600002EBD12170474FF000007047B0FA80F38E
:1059700010FA03F10AD0C3F11D0303F580634FEA67
:1059800041504FEA035202EBD12170474FF0000023
:1059900070470000DFF848C170B51CEA111E1EBF39
:1059A0001CEA13159EEA0C0F95EA0C0F00F06F80AD
:1059B00081EA030423EA4C134EEAD47E21EA4C1117
:1059C00041F4801143F48013AE44A1FB024CA0FBD0
:1059D0000365AEF17F7E361955EB0C05A1FB034C38
:1059E0004CF10003A0FB021C16EB0C06654153F1C1
:1059F0000003094218BF46F0010613F4007F0BD1E3
:105A00004FEA03314FEA0530340341EA155140EAC9
:105A100016506FF003020AE04FEAC3214FEAC52097
:105A2000F40241EA555140EA56506FF0020202EB8F
:105A30002E4201EB025585EACE710AD05FEA440C92
:105A400018BF24F0004450F1000041F1000120EAA9
:105A5000D47040F2FE7C624500D270BDA84214BFF3
:105A60004FF080444FF04044002E08BF0024BEF1A8
:105A7000806FA8BFA1F1C041BDE8704080F2828074
:105A80004FF0000001F1C04101F0004170479EEA73
:105A90000C0F0CEA131518BF95EA0C0F06D04FF047
:105AA000000081EA030E0EF0004170BD00F01CF80A
:105AB0008900013E00F007B800F009B84FEA430C36
:105AC0005FEA5C5C08D081EA030100F05BB84FEA52
:105AD000410C5FEA5C5CF6D14FF000000149704771
